:400000000010002011000000251D0000251D000080B500AF01F08AFE80B500AF2A4B2A4A12688021C9020A431A60302002F0ACF9264B274A1A60274B30221A60264B2022F0
:400040001A60264B32221A60254B11221A60254B31221A60244B21221A60244B12221A60234B22221A60234B822212061A60164B8022D2021A60204B204A1A60204B214ADE
:400080001A60214B214A1A60214B224A1A60224B204A1A60214B1F4A1A60214B214A1A60214B224A1A60224B144A1A60214B0920191C02F059FA092002F0BCFA1E4B002230
:4000C0001A60BD4680BDC04600010B4004010B40060000800C0202401C0202402002024024020240280202402C020240340202403C02024008010B40000002407FBB00807E
:4001000040000240050000808000024022000080040002402F0000804400024084000240080002403300008048000240AC03008088000240892800000C020B4080B586B01E
:4001400000AF72B6754B01221A701723FB1800221A7026E01723FB181A78131C5B009B185B006F4A9B183B613B691A78597809020A43997809040A43DB781B061343191CF4
:400180003B691A795B791B0213439BB2081C191C01F04AFE1723FB181A781723FB1801321A701723FB181B78022BD3D91723FB1800221A7038E01723FB181A78131C9B0086
:4001C0009B185B00574A9B18FB60FB681A78597809020A43997809040A43DB781B061343BB60FB681A79597909020A43997909040A43DB791B0613437B60BA1CFB68197AD6
:400200005B7A1B020B431380BB1C1B88B9687A68081C111C1A1C01F017FE1723FB181A781723FB1801321A701723FB181B78002BC1D03D4A3D4B101C191C01F017FE3C4B5F
:40024000C02292001A603B4B30221A603A4B3B4A1A603B4B992212041A603A4B802252031A60394B992212041A60384BA222D2031A60374B992212041A60364B992212046F
:400280001A60354B3D221A60344B28221A60344A334B1B78DBB202210B43DBB21370314A304B1B78DBB23C218B43DBB214210B43DBB213702A4A2A4B1B78DBB216210B439C
:4002C000DBB21370284B05221A60284BF6221A60274B02221A60274BB222FF321A60264B03221A60254BE0221A60254BE0221A60244B02221A60244B244A1A60244B0222F5
:400300001A60244B08221A60234B244A1A60FFF783FE01F0EBFDBD4606B080BD1C700F403050000044500000505000007050000000000140040001400C00014099EE0000EB
:4003400000500F4008500F4010500F4018500F4020500F4030500F402000004000800F4000700F4001700F40000004400800044000010440080104400C01044000020440DC
:40038000180204400003044008030440B10D0000180304400004044008040440860D000010B5064C2378002B07D1054B002B02D0044800E000BF0123237010BD4801002027
:4003C000000000002450000008B5084B002B03D00748084900E000BF07480368002B00D108BD064B002BFBD09847F9E700000000245000004C010020C800002000000000F2
:4004000080B500AF62B600F071F8204B1B78DBB2002B1BD1012003F001F8322002F02EF9C04600F0DDFD031EFBD0194B0122DA7001F0F8F8031C1A1C154B9A70154A164B60
:40044000101C191C022203F0FBFB14E0134B124A1A60124B1B681B78181C01F0EDF801F0E1F8031E012B03D1012002F0D7FF02E0002002F0D3FF012003F0CCF8FF2003F0E5
:4004800095F8074B181C00F04DFCF4E72B50000064010020660100202A5000006C0100202850000080B500AF054B01221A70054A054B101C191C012203F0C2FBBD4680BD1B
:4004C000680100202D5000002B50000080B500AF014B181CBD4680BD2850000080B500AF014B181CBD4680BD6401002080B500AF012002F093FF002003F08CF802F0B8FF6D
:40050000002003F053F802F0E3FA03F053F902F055FB01F0FBFC01F059FE02F0D3FC02F061FE02F063FC02F037FD03F0D9F802F0E3FB02F053FA03F07FFB002002F06EFF95
:40054000BD4680BD80B500AF024B1B78181CBD4680BDC046B901002080B500AF024B00221A70BD4680BDC046B901002080B582B000AFFB1D00221A7000233B6002F026FF77
:40058000021CFB1D1A70FB1D1B78181C00F08EF902F06EFE031EF1D1044B1B683B60044B3A681A60BD4602B080BDC046CC0F0740C00F074080B582B000AF78600A1CFB1CB1
:4005C0001A707B68002B03D0FB1C1B780D2B01D0012309E0FB1C1B7805497A68081C111C1A1C04F00DFD0023181CBD4602B080BD7001002080B500AF012003F0E9F9164B5C
:400600001B881D2B0BD8154B181C0D2102F0A6FD114B1B8801339AB20F4B1A801AE0104B01221A70002002F0F9FE03F075F90A4B00221A80094B9B78181C01F019F8074BB6
:40064000181C0D2102F03AFE044B181C00210D2204F0DFFCBD4680BDB601002070010020B801002090B589B000AF1F23FB1800221A701C23FB1800221A80012002F0AAFBD7
:40068000814B1B780133DAB27F4B1A707E4B1B78032B05D97C4B00221A707C4B01221A707B4B002000211A1C042301F0CBF8794B1B781A1C764B5200D25A1C23FB181A80A8
:4006C0001F23FC1800F0AEFF031C23703B1D181C0021162204F09DFC6E4B1B789A1C6E49131C9B009B185A5C3B1D1A70694B1B789A1C6949131C9B009B18CB185A783B1DDC
:400700005A70644B1B789A1C6349131C9B009B18CB189B78991C5F4B1B789A1C5E48131C9B009B18C318DA783B1D5A54594B1B789A1C5949131C9B009B18CB189B78D91CE3
:40074000544B1B789A1C5448131C9B009B18C3181A793B1D5A544F4B1B781A1C131CDB009B185B004D4A99183B1D02229B181222181C04F045FC1F23FB181B7801335B00FE
:400780001C22BA181288120A92B2D1B23A1DD1541F23FB181B7801335B0001331C22BA181288D1B23A1DD1541F23FB181B78012B1DD1374BDB889BB2181C00F07FFF354B86
:4007C0001B78181C01F026F8031C1A1C1C23FB181A801C23FB181B881B0A9BB2DAB23B1D9A701C23FB181B88DAB23B1DDA702C4B1B780133DAB22A4B1A70294B1B78022B6D
:4008000007D9274B00221A703B1D181C162102F055FD204B1B781C1C3B1D0433181C122100F01AFA031C191C1E4B6200D1521F23FB181B78012B13D1164B1B78022B0FD148
:40084000184B181C032101F009F901F0FDF8031C1A1C154B9A70144B181C052102F02EFD0C4B1B78012B01D101F02CFD094B1B780133181C032103F0D1FD0B1CDAB2054B16
:400880001A70BD4609B090BDBA010020B9010020BC010020C4010020CC00002080010020BB010020C8010020EC00002080B584B000AF021CFB1D1A700F23FB1800221A7007
:4008C000894B1B78012B00D16FE0022B00D18DE0002B00D004E1854B1B78002B19D1844B1B78191C834A0B1C9B005B189B5CFA1D12789A420DD17D4B1B78191C7E4BFA1D27
:4009000012785A54794B1B780133DAB2774B1A704AE0764B1B78012B3FD10F23FB1800221A7029E00F23FB181A787249131C9B009B18CB185B78FA1D12789A4215D16C4B89
:400940000F22BA1812781A70684B1B78191C6A4BFA1D12785A54654B1B780133DAB2634B1A70614B01221A700BE00F23FB181A780F23FB1801321A700F23FB181B78052B81
:40098000D0D90F23FB181B78052B0DD9574B00221A70574B00221A70A2E0544B00221A70534B00221A709BE09AE0504B1B78191C514BFA1D12785A544C4B1B780133DAB2C0
:4009C0004A4B1A70494B1B78181C494B1B78191C484A0B1C9B005B18D3189B780233984203DB414B02221A707AE079E03F4B1B78181C3F4B1B78191C3E4A0B1C9B005B1822
:400A0000D3189B78023398421AD1394B1B78191C384A0B1C9B005B18D318DB78FA1D12789A420DD1314B1B78191C334BFA1D12785A542E4B1B780133DAB22C4B1A704EE016
:400A40002A4B1B78181C2A4B1B78191C294A0B1C9B005B18D3189B780333984236D1244B1B78191C234A0B1C9B005B18D3181B79FA1D12789A4229D11C4B1B78191C1E4BD9
:400A8000FA1D12785A541A4B1B78002B05D11A4B181C0D2100F096F80EE0154B1B78012B05D1154B181C0D2100F0B8F804E0124B181C162100F022F80C4B00221A700A4B56
:400AC00000221A700A4B00221A7008E0074B00221A70054B00221A70054B00221A70C046BD4604B080BDC046CE010020CF010020D0010020CC000020D401002090B585B040
:400B000000AF78600A1CFB1C1A700E23FB1800221A707B68002B03D0FB1C1B78162B01D0012346E00E23FC1800F07CFD031C23700E23FB181B78002B04D00E23FB181B7883
:400B4000082B01D9012334E00F23FB1800221A7016E07B68013319780F23FB181B789A1C1648131C9B009B18C3185B78994200D10BE00F23FB181A780F23FB1801321A701A
:400B80000F23FB181B78032BE3D90F23FB181A78131CDB009B185B00094A9A187B680233111C1A1C1223081C111C1A1C04F028FA0023181CBD4605B090BDC046CC000020E4
:400BC0008001002080B582B000AF78600A1CFB1C1A707B68002B03D0FB1C1B780D2B01D0012317E07B6802331B78181C00F040FD7B68181C0D2102F061FB00F013FD031E30
:400C0000012B03D1012002F009FC02E0002002F005FC0023181CBD4602B080BD80B582B000AF78600A1CFB1C1A707B68002B03D0FB1C1B780D2B01D0012307E002F06CFEAE
:400C4000044B00221A8000F02FFD0023181CBD4602B080BDB601002080B584B000AF78600A1CFB1C1A700E23FB1800221A800A23FB1800221A800D23FB1800221A707B68A8
:400C8000002B03D0FB1C1B78122B01D0002343E00D23FB1800221A7036E00A23FB1800221A800D23FB181B785B001A1C7B689B181B781A020A23FB181A800D23FB181B78DB
:400CC0005B0001337A68D3181B7899B20A23FB180A22BA1812880A431A800A23FA180E23FB180021525E00215B5E9A4205DD0E23FB180A22BA1812881A800D23FB181A78C4
:400D00000D23FB1801321A700D23FB181B78072BC3D90E23FB181B881BB2181CBD4604B080BDC04680B582B000AF78603D4B1B78012B2ED002DC002B06D070E0022B4ED080
:400D4000032B00D16AE06AE0374B1B78DBB2012B1ED10A2001F092FC00F064FC031E012B0AD100F05FFC031E012B11D12D4B01221A7002F039FE52E000F04AFC031C9AB267
:400D80002A4B1A80274B02221A7002F02DFE46E045E0274B1B78DBB2012B11D1224B1B78DBB2002B0CD101F0A9FA031E012B07D11F4B00221A701B4B00221A7002F026FE70
:400DC000FFF7C0FB031E012B08D1FFF77FFB031C181C00F099F8FFF7BFFB20E01FE0FFF7B1FB031E012B18D100F0E0FB01F07EFC0F4B1B78DBB2012B0CD10D4B00221A7094
:400E0000084B00221A7002F001FE0A4B00221A8001F024FCFFF7A0FB01E000E0C046BD4602B080BDEE010020ED010020FA010020F2010020F801002080B500AF02F040FEDE
:400E400001F06AFA024B01221A70BD4680BDC046F201002080B500AF01F0A6FE012001F02BFE00F0DFFB031E012B15D1164B1B889BB2952B07D8144B1B889BB201339AB25A
:400E8000114B1A801EE001F0BBFD0F4B00221A800E4B01221A7015E00B4B1B889BB20C4A934207D8084B1B889BB201339AB2064B1A8007E001F0A4FD034B00221A80034BB5
:400EC00001221A70BD4680BDF0010020ED0100200F27000090B583B000AFFB1D00221A70FC1D02F0FBF8031C2370FB1D1B78181C00F080F802F0E0F8031C1A1C2023134019
:400F0000EED1BD4603B090BD90B585B000AF78600F23FB1800221A700E23FB1800221A700E23FC1800F07EFB031C23700E23FB181B78012B4FD1294B1B78002B05D1274B10
:400F400001221A70FA2001F099FB7B681B780F22BC18181C012100F0F7FB031C23707E2002F0E2F8422002F0DFF80F23FB181B78181C02F0D9F80F23FB181B78181C02F05E
:400F8000D3F80F23FB181B78181C02F0CDF80F23FB181B78181C02F0C7F80F23FB181B78181C02F0C1F80F23FB181B78181C02F0BBF80F23FB181B78181C02F0B5F80F23A1
:400FC000FB181B78181C02F0AFF80D2002F0ACF80A2002F0A9F8BD4605B090BDFC01002080B500AF024B1B78181CBD4680BDC046EC01002090B585B000AF021CFB1D1A70A8
:401000000F23FB1800221A70A74B1B78012B00D16FE0022B00D18DE0002B00D040E1A34B1B78002B19D1A24B1B78191CA14A0B1C9B005B189B5CFA1D12789A420DD19B4BC4
:401040001B78191C9C4BFA1D12785A54974B1B780133DAB2954B1A704AE0944B1B78012B3FD10F23FB1800221A7029E00F23FB181A789049131C9B009B18CB185B78FA1D07
:4010800012789A4215D18A4B0F22BA1812781A70864B1B78191C884BFA1D12785A54834B1B780133DAB2814B1A707F4B01221A700BE00F23FB181A780F23FB1801321A708B
:4010C0000F23FB181B78052BD0D90F23FB181B78052B0DD9754B00221A70754B00221A70DEE0724B00221A70714B00221A70D7E0D6E06E4B1B78191C6F4BFA1D12785A54F3
:401100006A4B1B780133DAB2684B1A70674B1B78181C674B1B78191C664A0B1C9B005B18D3189B780233984203DB5F4B02221A70B6E0B5E05D4B1B78181C5D4B1B78191C45
:401140005C4A0B1C9B005B18D3189B78023398421AD1574B1B78191C564A0B1C9B005B18D318DB78FA1D12789A420DD14F4B1B78191C514BFA1D12785A544C4B1B78013319
:40118000DAB24A4B1A708AE0484B1B78181C484B1B78191C474A0B1C9B005B18D3189B780333984200D071E0414B1B78191C414A0B1C9B005B18D3181B79FA1D12789A4260
:4011C00064D13A4B1B78191C3B4BFA1D12785A5401F016FC394B00221A80394B00221A7001F0FCFB324B1B78002B08D100F000FA314B181C0C21002200F020F93CE02C4BA4
:401200001B78012B07D100F0F3F92B4B181C0D2100F07CF830E0264B1B78032B0ED100F0E7F9FFF75BF9041CFFF750F9021C224B201C111C1A1C00F08FF91DE01C4B1B78CC
:40124000042B05D11C4B181C052100F03BF813E0174B1B78052B07D100F0CAF9164B181C072100F0D5F807E000F0C2F9124B181C0C21012200F0E2F80C4B00221A700A4BD3
:4012800000221A700A4B00221A7008E0074B00221A70054B00221A70054B00221A70C046BD4605B090BDC046000200200102002002020020F400002004020020F0010020DE
:4012C000ED01002080B582B000AF78600A1CFB1C1A707B68002B03D0FB1C1B78052B01D001230DE000F09EF9031C1A1C064B1A70054B1B78012B02D1022002F08FF8012336
:40130000181CBD4602B080BD1102002080B586B000AF78600A1CFB1C1A701623FB1800221A701723FB1800221A707B68002B03D0FB1C1B780D2B01D0012360E0324B1B78A2
:40134000002B01D000235AE02F4B01221A70FB1C1B780822B9187A68081C111C1A1C03F04FFE0823FB1841225A701723FB1800221A700EE0FB1C1B780822BA18101C191C46
:4013800001F09CFF1723FB181A781723FB1801321A701723FB181B78042BEBD97B6802331A781623FB1801321A701623FB181B78181C00F041F9154B01221A701623FB189C
:4013C0001B7802337A68D3181622BA1812781A707B6802331622BA1812781A707A68FB1C1B78101C191CFFF7E5F87A68FB1C1B78101C191C01F0B2FE02F07CFA0023181CF7
:40140000BD4606B080BDC04612020020EC01002080B582B000AF78600A1CFB1C1A70FFF741F87A68FB1C1B78101C191C01F096FE0023181CBD4602B080BDC04690B585B050
:4014400000AF7860081C111CFB1C021C1A70BB1C0A1C1A700F23FB1800221A700E23FB1800221A707B68002B03D0FB1C1B780C2B01D0012369E0BB1C1B78012B05D0BB1C2B
:401480001B78002B01D001235FE00E23FC1800F0C9F8031C23700E23FB181B78002B04D00E23FB181B78082B01D901234DE0294B1B78002B02D0274B00221A70FFF742F835
:4014C000031E012B40D10E23FB181B78012B30D1BB1C1B78002B0BD00E23FB181B7801337A68D3181B78181C002100F02DF918E00E23FB181B7801337A68D3181B780F22B0
:40150000BC18181C012100F01FF9031C23707B689A1C0F23FB181B78101C191C082203F078FD7A68FB1C1B78101C191C01F016FE0AE00E23FB181B7801337A68D3181B781C
:40154000181C002100F000F90023181CBD4605B090BDC0461201002080B584B000AFF860B9607A6000F05EF8031C1A1C0E4B1A700D4B1B78002B04D17B68181C072101F09C
:40158000EDFD094B1B7801337A68D3181A78FB681A70FA68BB68101C191C012202F050FBBD4604B080BDC0461302002080B500AF01F0C0FF002001F0F9FF01F09BFA02F050
:4015C0000BF901F00DFB00F0F5FD00F00DFE01F08BFC01F019FE01F01BFC01F03DFD02F091F801F09BFB01F00BFABD4680BDC04680B500AF00F016F8031E012B03D10120FC
:4016000001F00CFF02E0002001F008FFBD4680BD80B500AF024B9B78181CBD4680BDC0462801002080B500AF024B1B78181CBD4680BDC0462401002080B582B000AF021CB6
:40164000FB1D1A70FB1D1B78002B03D0FB1D1B78082B01D9012304E0044BFA1D12781A700023181CBD4602B080BDC0462401002080B582B000AF021CFB1D1A70FB1D1B78D0
:40168000002B03D0FB1D1B78082B01D9012304E0044BFA1D12785A700023181CBD4602B080BDC0462401002080B500AF024B00229A70BD4680BDC0462401002080B582B0CF
:4016C00000AF021CBB1D1A80114B1B78012B0DD1BB1D1B880F4A934208D80D4B00221A7002F042FA0A4B00225A700DE0084B1B78002B09D1BB1D1B88074A934204D9044B11
:4017000001221A7002F01EFABD4602B080BDC046300100209D0200006603000080B500AF012002F07DFA074B5B78FF2B06D0054B5B780133DAB2034B5A7001E002F014FA32
:40174000BD4680BD3001002080B582B000AF021CFB1D1A70BB1D0A1C1A70BB1D1B78012B05D0BB1D1B78002B01D000234AE0274B1B78FA1D12789A4203D0244BFA1D1278F5
:401780001A70234B1B78012B03D1BB1D1B78002B1CD11E4B1A781D4B9B789A420FD01B4B1B78002B08D0012001F034FF174B1B78181C01F0FBFE02E0002001F02BFF134B1B
:4017C0001A78124B9A70114B1B781BE00F4B5A780E4B9B789A420FD00C4B5B78002B08D0012001F017FF094B5B78181C01F0DEFE02E0002001F00EFF044B5A78034B9A70BD
:40180000024B5B78181CBD4602B080BD280100202401002080B582B000AF021CFB1D1A70FB1D1B78022B01D9002304E0FB1D1A78034B9200D35A1BB2181CBD4602B080BD9B
:401840001401002090B587B000AF041C081C3A60191CFB1D221C1A70BB1D021C1A707B1D0A1C1A701723FB1800221A701423FB1800221A800023FB6000233B61FB1D1B7866
:40188000012B05D0FB1D1B78002B01D00023CFE0FB1D1B78002B05D0BB1D1B78032B0AD90023C5E03B68002B03D07B1D1B78042B01D90023BCE009E01723FB181A78172329
:4018C000FB1801321A70082000F0FCFE012000F099FC031E04D11723FB181B78042BEBD91723FB181B78052B01D90023A0E0FB1D1B78002B46D0BB1D1B78022B2CD1032066
:4019000000F0BEFC031C181C02F0E6FE031CFB60F8684A4902F08EFD031C181C03F048FA031C0C1C181C211C454A464B02F01CFF031C0C1C181C211C03F08EFA031CFB60D0
:40194000F86802F0A9FE031C181C01F073FE021C1423FB181A8068E0BB1D1B78032B07D11423FC18022000F08BFC031C23805CE0BB1D1B781422BC18181C00F081FC031CE7
:40198000238052E000233B6112E01423FC183B69181C00F075FC031C23803B695B003A68D3181422BA1812881A803B6901333B613B69012BE9D9032000F062FC031C181CC9
:4019C00002F08AFE031CFB60F8681C4902F032FD031C181C03F0ECF9031C0C1C181C211C174A184B02F0C0FE031C0C1C181C211C03F032FA031CFB603B681C1DF86802F037
:401A00004BFE031C181C01F015FE031C9BB223801423FC18022000F033FC031C23803B6806331422BA1812881A801423FB181B881BB2181CBD4607B090BDC0460000A040B6
:401A4000FCA9F1D24D62F03F80B500AF024B1B79181CBD4680BDC0462801002090B585B000AF78600A1CFB1C1A700F23FB1800221A707B68002B07D0FB1C1B78042B03D846
:401A80006A4B1B78012B01D00023CAE0684BDB78012B5DD002DC002B06D0BDE0022B20D0032B00D18BE0B7E0614BFF221A71604B1A785F4B5A700F23FC187A68FB1C1B7840
:401AC000101C191C002200F0B7F8031C23700F23FB181B78012B03D1554B0222DA709BE09AE0534B1B79002B05D0514B1B79013BDAB24F4B1A714E4B1B781A1C4C4B1B795B
:401B00005343181CFF2102F0A3FB031CDAB2484B5A700F23FC187A68FB1C1B78101C191C002200F089F8031C23700F23FB181B78002B03D13E4B0322DA7008E00F23FB18AF
:401B40001B78022B03D13A4B0122DA7064E063E0374B1B79FF2B05D0354B1B790133DAB2334B1A71324B1B781A1C314B1B795343181CFF2102F06CFB031CDAB22C4B5A70E1
:401B80000F23FC187A68FB1C1B78101C191C002200F052F8031C23700F23FB181B78012B03D1234B0222DA7008E00F23FB181B78002B03D11E4B0322DA702DE02CE01C4B19
:401BC0001B781A1C1A4B1B795343181CFF2102F03FFB031CDAB2164B5A700F23FC187A68FB1C1B78101C191C002200F025F8031C23700F23FB181B78012B03D10C4B0222D0
:401C0000DA7008E00F23FB181B78022B03D1084B0122DA70FFE7C046064B00221A70044B5B78181CBD4605B090BDC04624010020280100201802002080B584B000AF7860D7
:401C4000081C111CFB1C021C1A703B1C0A1C1A800F23FB1800221A707B68002B01D103235AE0FB1C1B78042B01D9032354E00F23FB1800221A701DE00F23FB181B785B00DE
:401C80007A68D3181B881AB20F23FB181978244B8900CB5A19B23B1C00201B5ECB189A4201DD012338E00F23FB181A780F23FB1801321A700F23FA18FB1C12781B789A4234
:401CC000DAD30F23FB1800221A701DE00F23FB181B785B007A68D3181B881AB20F23FB1819780F4B8900CB5A19B23B1C00201B5ECB1A9A4201DA02230EE00F23FB181A78BB
:401D00000F23FB1801321A700F23FA18FB1C12781B789A42DAD30023181CBD4604B080BD1401002080B500AFFEE7C04680B586B000AF224B7B61224B3B61204B7B6135E089
:401D40003B691B68FB603B695B68BB603B699B683B6000237B600CE0FB681A68BB681A60BB680433BB60FB680433FB607B6804337B607A683B689A42EED13B69DB683B60B0
:401D800000237B6008E0BB6800221A60BB680433BB607B6804337B607A683B689A42F2D13B6910333B617B69013B7B617B69002BC6D103F0FFF8FEF723FBFEE701000000E8
:401DC000BC54000080B582B000AF00237B600FE07B68032B04D8104B7A689200D35800E00E4B0F4A796889008B507B6801337B607B682F2BECD9FEF7A1F90A4B00221A609E
:401E00008023DB058022D205126801210A431A60BD4602B080BDC04600000000251D000000000020C000002080B582B000AF786039607A683B68101C00211A1C03F0E9F8A6
:401E4000BD4602B080BDC04680B584B000AFF860B9607A60F968BA687B68081C111C1A1C03F0CEF8BD4604B080BDC04680B586B000AF7860396000233B6100237B612FE00F
:401E80007B699B007A68D3181B68BB600F23FB18BA681A70BB68FF229343BB6018E03B695B003A68D3181B781A1CBB68D318191C3B695B003A68D3185B780B703B690133D0
:401EC0003B610F23FB181A780F23FB18013A1A700F23FB181B78002BE1D17B6901337B617B69072BCCD9BD4606B080BD80B500AF034B044A1A60044B024A1A60BD4680BDBC
:401F000000031A40E000030040031A4080B500AF064B1B78002B04D100F00AF8034B01221A7000F033F9BD4680BDC0461902002080B584B000AF0E20032100F035FB744B29
:401F40000E20191C00F010FB724B07221A60724B1B68002B01DA714900E07149714B714A12680A431A60704B704A1A60704B714A1A60714B8022D2051A60704B704A1A60D4
:401F8000704B714A1A60714B704A1268802149020A431A606E4B6E4A1268802149020A431A606C4B00221A606B4B00221A606B4B11221A606A4B02221A606A4B1B687B6082
:401FC0007B68694A13407B607B68012213437B60644B7A681A600023FB6092E0634BFA689200D258DC239B0113407B60604AFB68D3181B781A1C7B6813437B60FB68022BF1
:4020000029D8FB689B005B4A944663447A681A60564BFA689200D3580122134009D04D4B4C4A1268F96801208840011C89B20A431A604E4BFA689200D358022213402AD0D6
:40204000454B454A1268F96801208840011C89B20A431A601FE0484B7A688021C9050A431A60424BFA689200D3580122134005D03A4B3A4A126820210A431A603B4BFA684A
:402080009200D3580222134005D0344B334A126840210A431A60354BFA689200D25880239B00134003D080235B00BB6002E080235B01BB602D4BFA689200D25880235B00CE
:4020C000134005D12D4BFA6852000021D15204E02A4BFA6852000021D152BB68284A5343284A94466344181C254902F0B1F8031C9BB219B2244BFA689200D150FB68013349
:40210000FB60FB68032B00D868E7BD4604B080BDE122000020001A4080031A40702010107020001000001A4004001A40FC00008018001A400000FF0F1C001A4010001A405A
:402140000200020014001A4002002D0000031A4040031A4028021A4038021A4018021A40000F1A4030001A40FFFFFFDFD4530000E453000080001A4080021A4054020020DF
:4021800010270000881300004402002080B500AF074B1B68002B09DB054B054A1268802109060A431A600A2000F08CFABD4680BD00001A4080B500AF034B034A126852000A
:4021C00052081A60BD4680BD00001A4080B500AF044B044A1268802149020A431A60BD4680BDC04604001A4080B500AF034B034A126803490A401A60BD4680BD04001A4078
:40220000FFFFFEFF80B584B000AF78600023FB607B680322134011D0184B1B6801221340FB60FB68002B03D17B6802221340F3D1FB68002B02D0114B01221A607B680C2258
:40224000134015D00D4B1B6810221340FA681343FB60FB681022134003D17B6808221340F0D1FB681022134002D0044B10221A60FB68181CBD4604B080BDC04610021A4024
:4022800080B584B000AF78607B68022B09D87B689B000A4A944663441B681B041B0CFB6004E0074B1B681B041B0CFB60FB689BB21BB2181CBD4604B080BDC04680011A40E6
:4022C00090021A4080B500AF044B044A1268802109060A431A60BD4680BDC04680021A4080B582B000AF044B1B687B60024B7A681A60BD4602B080BD10021A4080B500AFB0
:40230000044B1B68DBB201221340DBB2181CBD4680BDC0460401044080B582B000AF084B1B68DAB2FB1D01210A401A70044BFA1D12781A60FB1D1B78181CBD4602B080BDB7
:402340001001044090B585B000AF78600F23FC1801F03CFD031C2370094B7A6807210A40D104074A1268074802400A431A600F23FB181B78181C01F02DFDBD4605B090BD19
:4023800000010B40FFFFC7FF90B585B000AF78600C23FC1801F01AFD031C23707B68022B00D8B2E07B68302B00D9AEE05B4B1B78DBB21A1E7B689A420AD3594A0F23FB186E
:4023C00012781A70574A0E23FB1812781A703FE0554B1B78DBB21A1E7B689A420AD3534A0F23FB1812781A70514A0E23FB1812781A702DE04F4B1B78DBB21A1E7B689A4276
:402400000AD34D4A0F23FB1812781A704B4A0E23FB1812781A701BE0494B1B78DBB21A1E7B689A420AD3474A0F23FB1812781A70454A0E23FB1812781A7009E0434A0F23E6
:40244000FB1812781A70424A0E23FB1812781A707B68DA1E0B23FB183E498A5C1A700B23FB181B782F2B0DD97B682A2B0AD93A4B19221A60052001F09FFC0D23FB181922A6
:402480001A7007E0344B1B68DAB20D23FB183F210A401A700B23FA180D23FB1812781B789A4208D22C4B7A68033A2A498A5C1A60052001F081FC7B68254A9A180A23FB1810
:4024C00012781A70254B0A22BA1812781A60244B0F22BA1812781A60224B0E22BA1812781A60052000F0EEF80B23FA180D23FB1812781B789A4208D9174B7A68033A154936
:402500008A5C1A60052001F057FC0C23FB181B78181C01F05FFCBD4605B090BDC0F1FF0FC1F1FF0FC2F1FF0FC3F1FF0FC4F1FF0FC5F1FF0FC6F1FF0FC7F1FF0FC8F1FF0F9D
:40254000C9F1FF0FCAF1FF0FCBF1FF0FCCF1FF0FCDF1FF0FE85300002CFF0B4028FF0B401CFF0B4020FF0B4080B584B000AF021C3960FB1D1A7080239B05FB60FB1D1B78BC
:4025800010339B00FA68D3181B68BB60FB1D1B7810339B00FA68D3183A681A60BB68181CBD4604B080BDC04690B587B000AF021CFB1D1A70BB1D0A1C1A70FB1D1B780322CC
:4025C0001340DB0006337B611323FC1801F0FEFB031C2370FB1D1B789B08DBB29B00144A944663441B68FB607B6903229A40131CDA43FB681340FB60BB1D1A787B699A4017
:40260000131CFA681343FB60FB1D1B789B08DBB29B00074A94466344FA681A601323FB181B78181C01F0D6FBBD4607B090BDC04600E400E080B582B000AF021CFB1D1A70BB
:40264000054BFA1D12781F210A40012191400A1C1A60BD4602B080BD00E100E080B500AF044B044A12681204120C03490A431A60BD4680BD0CED00E00400FA0580B582B0D4
:4026800000AF786009E00C4B1B68181C01F094FB7B680A4A944663447B607A6880231B029A42F0D8064B1B687A685343181C01F083FBBD4602B080BD400100200080FFFF83
:4026C0003801002080B582B000AF021CBB1D1A80BB1D1B88044A12785343181C01F06CFBBD4602B080BDC0463C01002090B583B000AFFC1D01F06AFB031C2370194B194A02
:402700001268520052081A608023DB058022D205126802210A431A60134B144A128892B21A60134B124A126804210A431A60114B1B683B600220FFF705FE30BF0D4B3A68E7
:402740001A608023DB058022D205126802218A431A60FB1D1B78181C01F03CFBBD4603B090BDC04600000B400C000B4052F1FF0F10ED00E000010B4090B583B000AFFC1D93
:4027800001F024FB031C2370074B074A1268C02109020A431A60FB1D1B78181C01F01AFBBD4603B090BDC04600010B4080B500AF054B1A68C0231B02134001D0012300E06F
:4027C0000023181CBD4680BD00010B4090B583B000AFFC1D01F0FAFA031C23700C4B0C4A12680C490A408021C9010A431A60084B074A126807490A40802109020A431A60FC
:40280000FB1D1B78181C01F0E5FABD4603B090BD00010B40FF3FFFFF90B585B000AF78600B23FC1801F0D2FA031C2370FFF7BEFF031E04D00123FB60FFF7C8FF01E00023C4
:40284000FB607B680D4A13407B600D4B0C4A12680C4911407A680A431A60094B1B68FB68012B01D1FFF788FF0B23FB181B78181C01F0B0FABD4605B090BDC04604040400AF
:4028800010020B40FBFBFBFF80B500AF334B1B68042213401FD0324B1B680422134017D0304B1B6804221340DA432D4B1B681A402B4B1A602B4B1B68042293431A1C294BA6
:4028C0001A60294B1B68002B02D0274B1B6898470420FFF7A1FF214B1A688023DB00134022D01F4B1A688023DB00134017D01D4B1A688023DB001340DA43194B1B681A406E
:40290000174B1A60174B1B68184A1A40154B1A60154B5B68002B02D0134B5B6898478023DB00181CFFF778FF0C4B1A688023DB02134011D00A4B1A688023DB02134006D0F4
:40294000094B9B68002B02D0074B9B6898478023DB02181CFFF760FFBD4680BD10020B40440100202402002028020020FFFBFFFF80B500AF094B802292041A60084B0C22D1
:402980001A60012000F08CF8FA239B00181C00F05DF8002000F04CF8BD4680BD400105406401054090B583B000AFFC1D01F00EFA031C2370084B084A126802210A431A601F
:4029C000FB1D1B78181C01F005FA0220182100F04BF8BD4603B090BD0000054080B500AF064B1B78002B04D1FFF7C2FF034B01221A70FFF7D7FFBD4680BDC046380200204C
:402A000090B583B000AFFC1D01F0E0F9031C2370064B064A126802218A431A60FB1D1B78181C01F0D7F9BD4603B090BD0000054080B582B000AF7860034B7A681204120C1B
:402A40001A60BD4602B080BD4801054080B582B000AF7860034B7A681204120C1A60BD4602B080BD5401054090B585B000AF786039600F23FC1801F0A9F9031C2370074B8D
:402A80003A68796891400A1C1A600F23FB181B78181C01F09FF9BD4605B090BD0800054080B582B000AF7860024B7A681A60BD4602B080BD7801054080B582B000AF786006
:402AC000024B7A681A60BD4602B080BD7001054080B500AF00F05EF8054B181C00F01CF8032000F025F800F04BF8BD4680BDC0460D2B000080B500AF00F04CF8024B181C59
:402B000000F00AF8BD4680BD251D000080B500AFFEF7A0F9BD4680BD80B582B000AF7860024B7A689A64BD4602B080BD0000002090B585B000AF021CFB1D1A701623FB60C5
:402B40000B23FC1801F042F9031C23700A4B0A4A12680A491140FA1D1078FA689040021C0A431A600B23FB181B78181C01F032F9BD4605B090BDC04600E400E0FFFF3FFF89
:402B800080B500AF024B04221A60BD4680BDC04600E100E080B500AF024B04221A60BD4680BDC04680E100E080B500AF024B04221A60BD4680BDC04680E200E080B500AFA8
:402BC00000F05CF8054B181C00F01CF8032000F025F800F049F8BD4680BDC046F92B000080B500AF00F04AF8024B181C00F00AF8BD4680BD251D000080B500AFFDF732FD2C
:402C0000BD4680BD80B582B000AF7860024B7A681A65BD4602B080BD0000002090B585B000AF021CFB1D1A700623FB600B23FC1801F0CCF8031C23700A4B0A4A1268C0218C
:402C40008A43111CFA1D1078FA689040021C0A431A600B23FB181B78181C01F0BBF8BD4605B090BD04E400E080B500AF024B10221A60BD4680BDC04600E100E080B500AF63
:402C8000024B10221A60BD4680BDC04680E100E080B500AF084B802292041A60074B0C221A60012000F08AF8192000F05DF8002000F04CF8BD4680BD00010540240105405C
:402CC00090B583B000AFFC1D01F080F8031C2370084B084A126801210A431A60FB1D1B78181C01F077F80120182100F04BF8BD4603B090BD0000054080B500AF064B1B7895
:402D0000002B04D1FFF7C4FF034B01221A70FFF7D7FFBD4680BDC0463902002090B583B000AFFC1D01F052F8031C2370064B064A126801218A431A60FB1D1B78181C01F0F1
:402D400049F8BD4603B090BD0000054080B582B000AF7860034B7A681204120C1A60BD4602B080BD0801054080B582B000AF7860034B7A681204120C1A60BD4602B080BD00
:402D80001401054090B585B000AF786039600F23FC1801F01BF8031C2370074B3A68796891400A1C1A600F23FB181B78181C01F011F8BD4605B090BD0800054080B582B01E
:402DC00000AF7860024B7A681A60BD4602B080BD3801054080B582B000AF7860024B7A681A60BD4602B080BD3001054080B500AF00F05EF8054B181C00F01CF8032000F06F
:402E000025F800F04BF8BD4680BDC046292E000080B500AF00F04CF8024B181C00F00AF8BD4680BD251D000080B500AFFEF752F8BD4680BD80B582B000AF7860024B7A6818
:402E40005A65BD4602B080BD0000002090B585B000AF021CFB1D1A700E23FB600B23FC1800F0B4FF031C23700A4B0A4A12680A491140FA1D1078FA689040021C0A431A60F8
:402E80000B23FB181B78181C00F0A4FFBD4605B090BDC04604E400E0FF3FFFFF80B500AF024B20221A60BD4680BDC04600E100E080B500AF024B20221A60BD4680BDC04641
:402EC00080E100E080B500AF00F05CF8054B181C00F01CF8032000F025F800F049F8BD4680BDC046012F000080B500AF00F04AF8024B181C00F00AF8BD4680BD251D0000FF
:402F000080B500AFFDF732FBBD4680BD80B582B000AF7860024B7A68DA66BD4602B080BD0000002090B585B000AF021CFB1D1A701E23FB600B23FC1800F048FF031C23702D
:402F40000A4B0A4A126892009108FA1D1078FA689040021C0A431A600B23FB181B78181C00F038FFBD4605B090BDC04608E400E080B500AF024B802212011A60BD4680BDA7
:402F800000E100E080B500AF024B802212011A60BD4680BD80E100E080B500AF064B1B78002B04D100F00AF8034B01221A7000F023F8BD4680BDC0463A02002080B500AF29
:402FC000084B72221A70084B20221A70074B06221A70074B47221A70064B00221A70BD4680BDC04683000F4080000F4020000F4030000F4081000F4090B583B000AFFC1D16
:4030000000F0E4FE031C2370104A104B1B78DBB220210B43DBB213700D4A0D4B1B78DBB210210B43DBB213700A4A0A4B1B78DBB210210B43DBB2137000F000FAFB1D1B784D
:40304000181C00F0C7FEBD4603B090BD93000F4090000F4091000F4090B583B000AFFC1D00F0B4FE031C2370104A104B1B78DBB220218B43DBB2137000F0EEF90C4A0C4BB7
:403080001B78DBB210218B43DBB21370094A094B1B78DBB210218B43DBB21370FB1D1B78181C00F097FEBD4603B090BD93000F4090000F4091000F4080B582B000AF064B9C
:4030C0001B78DAB2FB1D7F210A401A70FB1D1B78181CBD4602B080BD60000F4080B582B000AFFB1D00221A700D4ABB1D12781A70BB1D1B78202213400BD00A4AFB1D1278B7
:403100001A70BB1D1B781E22134002D0FB1D00221A70FB1D1B78181CBD4602B080BDC04660000F4043000F4080B582B000AF021CFB1D1A70C046074B1B78DBB21A1C0423AE
:403140001340F8D1044AFB1D1B781370BD4602B080BDC04661000F4041000F4080B584B000AF78600A1CFB1C1A700F23FB1800221A700F4B1B78002B17D00FE00F23FB18A4
:403180001B787A68D3181B78181CFFF7CDFF0F23FB181A780F23FB1801321A700F23FA18FB1C12781B789A42E8D3BD4604B080BD3A02002080B500AF00F09AF8BD4680BD48
:4031C00080B500AF064B064A1268802109060A431A6000F02DF800F02FF8BD4680BDC0460000074080B500AF064B1B78002B04D1FFF7E0FF034B01221A70FFF7E1FFBD462F
:4032000080BDC0463C02002080B500AF00F01AF8054B054A1268520052081A60034B00221A60BD4680BDC04600000740880F074080B500AFBD4680BD80B500AF00F0ACF8D7
:40324000BD4680BD80B500AF00F0B4F8BD4680BD80B582B000AF00237B60044B1B687B607B68181CBD4602B080BDC0464003074080B582B000AF054B1B680F2213407B60AC
:403280007B68181CBD4602B080BDC0460803074080B582B000AF7860C046064B1B680F221340082BF9D0044B7A681A60BD4602B080BDC046080207404002074080B584B07F
:4032C00000AF786039600023FB6009E07A68FB68D3181B78181CFFF7DBFFFB680133FB60FA683B689A42F1D3BD4604B080BDC04680B500AF174B184A1A60184B00221A60CE
:40330000174B01221A60174B174A1A60174B07221A60174B00221A60164B01221A60164B114A1A60154B00221A60154B00221A60144B00221A60144B00221A60134B0022AC
:403340001A60134B04221A60124B00221A60BD4680BDC046000007400B00000240000740480007400003074007000080040307401003074044000740000207400402074092
:40338000880E0740C80E0740480F0740080F0740C80F0740880F074080B500AF044B044A1268F0218A4390210A431A60BD4680BD0C00014080B500AF034B034A1268F02133
:4033C0008A431A60BD4680BD0C00014080B582B000AFFFF74DFF031E04D0FFF739FF031C7B6002E00B4B1B687B600B4B1A68D8239B0013403B60084BD82292001A603B6896
:403400001B027A6813437B607B68181CBD4602B080BDC04640030740C00F074080B582B000AF021CFB1D1A70034AFB1D1B781370BD4602B080BDC04670000F4080B500AFC1
:40344000044B044A1268802109060A431A60BD4680BDC0460800024080B500AF034B034A1268520052081A60BD4680BD0800024080B500AF064B1B78002B04D100F00AF8CB
:40348000034B01221A7000F045F8BD4680BDC0463D02002090B583B000AF1C4B1B78DAB2FB1D3F218A431A70184AFB1D1B780A210B43DBB21370164A154B1B78DBB201212B
:4034C0000B43DBB21370FF2000F042F8FF2000F05DF8002000F06AF8002000F077F8BC1D00F074FC031C2370094A094B1B78DBB210210B43DBB21370BB1D1B78181C00F000
:4035000069FC00F035F8BD4603B090BD72000F4092000F4080B500AF0549054B1B78DBB2802252421343DBB20B70BD4680BDC04672000F4080B500AF044A044B1B78DBB286
:403540007F210B40DBB21370BD4680BD72000F4080B582B000AF021CFB1D1A70034AFB1D1B781370BD4602B080BDC04602000F4080B500AF01E000F043F800F037F8031C87
:403580001A1C10231340F6D1BD4680BD80B582B000AF021CFB1D1A70034AFB1D1B781370BD4602B080BDC04642000F4080B582B000AF021CFB1D1A70034AFB1D1B7813701D
:4035C000BD4602B080BDC04622000F4080B582B000AF021CFB1D1A70034AFB1D1B781370BD4602B080BDC04682000F4080B500AF024B1B78DBB2181CBD4680BD62000F40D2
:4036000080B500AF024B1B78DBB2181CBD4680BD52000F4080B582B000AF021CFB1D1A70034AFB1D1B781370BD4602B080BDC04671000F4080B588B000AF7860244B1B8815
:403640009BB29BB21BB2BB61224B1B889BB29BB21BB27B617B687A695A43BB699B02D3183B613B691C4A93420EDD3B69C822D203D31A00D50F331B11DB00181C552100F0F7
:40368000E7FD031CFB610FE03B69A022920394466344002B00DA0F331B11DB00181C372100F0D6FD031CFB613A69FB69D3188022120294466344FB60FB68002B02DA074AE9
:4036C000944663441B14181CBD4608B080BDC04666F1FF0F64F1FF0FFFFF0E00FFFF000080B500AF00F05CF8054B181C00F01CF8032000F025F800F049F8BD4680BDC046BF
:403700001D37000080B500AF00F04AF8024B181C00F00AF8BD4680BD251D000080B500AFFDF7FCFFBD4680BD80B582B000AF7860024B7A68DA64BD4602B080BD00000020AA
:4037400090B585B000AF021CFB1D1A701E23FB600B23FC1800F03AFB031C23700A4B0A4A126892009108FA1D1078FA689040021C0A431A600B23FB181B78181C00F02AFB8A
:40378000BD4605B090BDC04600E400E080B500AF024B08221A60BD4680BDC04600E100E080B500AF024B08221A60BD4680BDC04680E100E080B500AF00F05CF8054B181C56
:4037C00000F01CF8032000F025F800F049F8BD4680BDC046F137000080B500AF00F04AF8024B181C00F00AF8BD4680BD251D000080B500AFFCF7FEFEBD4680BD80B582B071
:4038000000AF7860024B7A681A64BD4602B080BD0000002090B585B000AF021CFB1D1A700623FB600B23FC1800F0D0FA031C23700A4B0A4A1268C0218A43111CFA1D10788A
:40384000FA689040021C0A431A600B23FB181B78181C00F0BFFABD4605B090BD00E400E080B500AF024B01221A60BD4680BDC04600E100E080B500AF024B01221A60BD4611
:4038800080BDC04680E100E080B500AF094B802292041A60084B0C221A60012000F08CF8FA23DB00181C00F05DF8002000F04CF8BD4680BD80010540A401054090B583B0DD
:4038C00000AFFC1D00F082FA031C2370084B084A126804210A431A60FB1D1B78181C00F079FA0420182100F04BF8BD4603B090BD0000054080B500AF064B1B78002B04D1F5
:40390000FFF7C2FF034B01221A70FFF7D7FFBD4680BDC0463E02002090B583B000AFFC1D00F054FA031C2370064B064A126804218A431A60FB1D1B78181C00F04BFABD4695
:4039400003B090BD0000054080B582B000AF7860034B7A681204120C1A60BD4602B080BD8801054080B582B000AF7860034B7A681204120C1A60BD4602B080BD94010540DE
:4039800090B585B000AF786039600F23FC1800F01DFA031C2370074B3A68796891400A1C1A600F23FB181B78181C00F013FABD4605B090BD0800054080B582B000AF7860DF
:4039C000024B7A681A60BD4602B080BDB801054080B582B000AF7860024B7A681A60BD4602B080BDB001054080B500AF00F05EF8054B181C00F01CF8032000F025F800F0DD
:403A00004BF8BD4680BDC046253A000080B500AF00F04CF8024B181C00F00AF8BD4680BD251D000080B500AFFDF706FABD4680BD80B582B000AF7860024B7A685A64BD469B
:403A400002B080BD0000002090B585B000AF021CFB1D1A700E23FB600B23FC1800F0B6F9031C23700A4B0A4A12680A491140FA1D1078FA689040021C0A431A600B23FB1871
:403A80001B78181C00F0A6F9BD4605B090BDC04600E400E0FF3FFFFF80B500AF024B02221A60BD4680BDC04600E100E080B500AF024B02221A60BD4680BDC04680E100E079
:403AC00080B500AF024B02221A60BD4680BDC04680E200E080B500AF094B802292041A60084B0C221A60012000F08EF8064B181C00F060F8002000F04FF8BD4680BDC04689
:403B0000C0010540E4010540DC05000090B583B000AFFC1D00F05AF9031C2370084B084A126808210A431A60FB1D1B78181C00F051F90820182100F04BF8BD4603B090BD80
:403B40000000054080B500AF064B1B78002B04D1FFF7C0FF034B01221A70FFF7D7FFBD4680BDC0463F02002090B583B000AFFC1D00F02CF9031C2370064B064A12680821CA
:403B80008A431A60FB1D1B78181C00F023F9BD4603B090BD0000054080B582B000AF7860034B7A681204120C1A60BD4602B080BDC801054080B582B000AF7860034B7A68A1
:403BC0001204120C1A60BD4602B080BDD401054090B585B000AF786039600F23FC1800F0F5F8031C2370074B3A68796891400A1C1A600F23FB181B78181C00F0EBF8BD4674
:403C000005B090BD0800054080B582B000AF7860024B7A681A60BD4602B080BDF801054080B582B000AF7860024B7A681A60BD4602B080BDF001054080B500AFBD4680BD8B
:403C400080B5ACB000AFF860B9607A60BB689822BA181360BA687B68D318564A934200D98DE09823FB181B68DB0B9422BA1813609823FB181B68DB09FF221340AC22BA1871
:403C800013609423FB181B681A02AC23FB181B68D318DB019C22BA1813600023A422BA1813600023A022BA1813605CE00023A822BA1813603EE09C23FB181A689823FB18F3
:403CC0001B689A421BD3A423FB181A687B689A4215D2FA68A423FB181B68D31819781423FA18A823FB181B68D3180A1C1A70A423FB181B680133A422BA1813600CE09C23AE
:403D0000FB181B681B78D9B21423FA18A823FB181B68D3180A1C1A709C23FB181B6801339C22BA181360A823FB181B680133A822BA181360A823FB181B687F2BBBD9AC23EC
:403D4000FB181A681423FB18101C191C00F048F8031CA022BA181360AC23FB181B680133AC22BA181360A423FB181A687B689A4209D2A023FB181B68002B97D003E0012319
:403D8000A022BA181360A023FB181B68002B09D0A023FB181B68012B04D001235B42A022BA181360A023FB181B68181CBD462CB080BDC046FF7F00000230800804D0C046BD
:403DC0000138FDD1C046C046C0467047EFF3108072B6704780F310887047C046C046C04690B5AFB000AF7860396000239422BA18136000239022BA1813600023A022BA181B
:403E000013600023B422BA1813600023B022BA1813600023AC22BA1813600023A822BA1813607B68FF2B00D943E13B68002B00D13FE10823FB1808331A1C3B68101C191CB3
:403E4000802201F0DDF80223A422BA1813602FE00823FB18A422BA1812689200D3589C22BA1813609C23FB181B68002B19D0AC23FB181A689C23FB181B68D318AC22BA18DE
:403E80001360A823FB181A689C23FB181B681343A822BA181360A423FB181B68B422BA181360A423FB181B680133A422BA181360A423FB181B68212BCAD9AC23FB181B68B0
:403EC000002B06D1A823FB181B68002B01D0012300E00023A022BA181360A023FB181B68002B11D00823FB18B422BA1812689200D358B022BA1813600823FB18B422BA18B6
:403F0000126892000021D1500823FB186E4A1A600823FB187F225A606C4B0822BA181A606B4B6C4A1A60694B1B681B0F1A07A0231B069A4204D0654B1B680F22134000E06A
:403F400000239422BA1813609423FB181B68002B00D0ADE09B23FC18FFF738FF031C237000F0C2F8031C9022BA1813609423FB181B68002B24D10823FB18574A1A600823EC
:403F8000FB181A687B681B041A430823FB181A604E4B0822BA181A604D4B504A1A604B4B1B681B0F1A07A0231B069A4204D0474B1B680F22134000E000239422BA1813600B
:403FC0009423FB181B68002B60D1A023FB181B68002B5BD00823FB180833181C0021802201F017F80823FB18B422BA1812689200B02179180968D1500823FB18324A1A60DF
:404000000823FB187F225A60304B0822BA181A602F4B304A1A602D4B1B681B0F1A07A0231B069A4204D0294B1B680F22134000E000239422BA1813609423FB181B68002BBD
:4040400024D10823FB18264A1A600823FB181A687B681B041A430823FB181A601B4B0822BA181A601A4B1F4A1A60184B1B681B0F1A07A0231B069A4204D0144B1B680F2250
:40408000134000E000239422BA1813609023FB181B68002B05D100F039F8031C9022BA1813609B23FB181B78181CFFF793FE04E003E004239422BA1813609423FB181B68D9
:4040C000181CBD462FB090BDB6D70000080000400400004004000080B6D8000005000080B6D900000600008080B582B000AF00237B60044B1A68044B1A607B68181CBD46D0
:4041000002B080BD08010B404002002080B582B000AF00237B60044A044B1B6813607B68181CBD4602B080BD08010B4040020020002243088B4274D303098B425FD3030ADB
:404140008B4244D3030B8B4228D3030C8B420DD3FF22090212BA030C8B4202D31212090265D0030B8B4219D300E0090AC30B8B4201D3CB03C01A5241830B8B4201D38B039B
:40418000C01A5241430B8B4201D34B03C01A5241030B8B4201D30B03C01A5241C30A8B4201D3CB02C01A5241830A8B4201D38B02C01A5241430A8B4201D34B02C01A524146
:4041C000030A8B4201D30B02C01A5241CDD2C3098B4201D3CB01C01A524183098B4201D38B01C01A524143098B4201D34B01C01A524103098B4201D30B01C01A5241C30895
:404200008B4201D3CB00C01A524183088B4201D38B00C01A524143088B4201D34B00C01A5241411A00D20146524110467047FFE701B5002000F0FCF802BDC0460029F7D074
:4042400003B5FFF775FF0EBC4243891A1847C04603460B437FD4002243088B4274D303098B425FD3030A8B4244D3030B8B4228D3030C8B420DD3FF22090212BA030C8B42F8
:4042800002D31212090265D0030B8B4219D300E0090AC30B8B4201D3CB03C01A5241830B8B4201D38B03C01A5241430B8B4201D34B03C01A5241030B8B4201D30B03C01AF6
:4042C0005241C30A8B4201D3CB02C01A5241830A8B4201D38B02C01A5241430A8B4201D34B02C01A5241030A8B4201D30B02C01A5241CDD2C3098B4201D3CB01C01A524146
:4043000083098B4201D38B01C01A524143098B4201D34B01C01A524103098B4201D30B01C01A5241C3088B4201D3CB00C01A524183088B4201D38B00C01A524143088B42AB
:4043400001D34B00C01A5241411A00D201465241104670475DE0CA0F00D04942031000D34042534000229C4603098B422DD3030A8B4212D3FC22890112BA030A8B420CD368
:40438000890192118B4208D3890192118B4204D389013AD0921100E08909C3098B4201D3CB01C01A524183098B4201D38B01C01A524143098B4201D34B01C01A5241030930
:4043C0008B4201D30B01C01A5241C3088B4201D3CB00C01A524183088B4201D38B00C01A5241D9D243088B4201D34B00C01A5241411A00D20146634652415B10104601D347
:404400004042002B00D54942704763465B1000D3404201B5002000F00BF802BD0029F8D003B5FFF715FF0EBC4243891A1847C0467047C046F0B55F4656464D464446F0B459
:4044400045024600C40F83B00F1C6D0A360EA34645D0FF2E25D080231B041D4300239A46ED007F3E01937B025B0A98467800FB0F000E994640D0FF2838D0802342461B0488
:404480001343DB00984600237F384A46019F30186240411C1F430F2F69D87D4EBF00F659B746002D45D108230193063B9A46DAE793465346022B2FD15B46012400251C401B
:4044C000FF236D02DB056D0AE4071D432543281C03B03CBC90469946A246AB46F0BD002D2CD104230193033B9A46BCE743465A4253410322D31AC8E742460123002AC4D06D
:40450000404600F039FD4246431F9A4076235B42181A90460023B8E7032B00D1ADE0012B00D08CE05B4654461C40E4B200230025C7E70C230193093B9A4694E7281C00F05E
:404540001BFD7626431F9D4000237642361A01939A4688E780250024ED03FF23B1E74546CB469A46A5E7454693469A46A1E743462C041B0C9C46230C444626041C1C360CD4
:404580002F0C7443351C66467D4373437743EB18260C9E19B54203D980235B029C46674424043304240C1B199D016C1EA5419B0E360C2B43BD19AD011D432B0104D5012359
:4045C00068081D400543081C031C7F33002B2CDD690704D00F212940042900D00435290103D52C4B1D40031C8033FE2B17DD0124FF231440002564E78020C003054209D017
:404600004346034206D1454605436D026D0A4C46FF2356E705436D026D0AFF2351E70124AD016D0ADBB214404BE77E235B421B1A1B2B07DD012400231440002541E7081C9C
:404640005A46C1E79E30291C8540D940681E85410D436B0704D00F232B40042B00D004356B0104D5012401231440002529E70124AD016D0A1440002323E78023DB031D4387
:4046800001245B466D0223401C1C6D0AFF2318E718540000FFFFFFF74202510A4200C30F120E00207E2A0DDD9D2A0CDC802000040143952A0ADC9620821AD1400A1C58424E
:4046C0004240D0187047034A9818FBE7963A91400A1CF4E7FFFFFF7F70B5041E39D0C50F00D04442201C00F047FC9E23261C1B1A962B07DC082801DD083884406402640AF1
:40470000D8B21EE0992B0ADD0522211C121AD1400A1C011C1B318E40711E8E411643052801DD421F96400F4C3440720704D00F221640042E00D0043462010ED4A401640A1A
:40474000D8B26402C005640AED0704432C43201C70BD002500200024F3E7024B1C409F231B1AEBE7FFFFFFFBF0B55F4656464D464446F0B40F0387B098464D003B0BCC0F1A
:40478000061C924681469B466D0D01946BD0664B9D4235D080275B467F031F43F3009946624BFF00400F9C4607430023BB46002665440093424617035000D20F53463F0B17
:4047C000400D904600D172E0574A904267D080235B031F435346554A5B0FFF001F43944653460021DB0060444246624092462D1A0E430F2E00D9A1E04D48B600805987462E
:404800005B461E4300D076E000239B469946023308260093CEE799464346BB4601930091009B022B6BD1019B9A46002153460122002789461A403C4B00213F030C0D24055B
:404840003F0B27433B4C1B0527401F437F00D2077F0817434846391C07B03CBC90469946A246AB46F0BD03433ED05B46002B00D19CE1584600F080FB2823311C1B1A021CAC
:404880005F46D940083A97400B1C96403B439B46B1460023284D00262D1A00938AE7524603213A43A0D10027002302219CE752463A4315D0002F00D185E1381C00F05CFB30
:4048C000021C28215046891A131CC8405146083B99409F400B1C074317480021801A83E70027002301217FE700239B4699460133042600935EE703230C2600935AE7032B15
:4049000000D13CE2012B00D0BFE11A1C019B1A4000210023002789468EE700238027994600223F03004B87E7FF07000001FCFFFF58540000FFFF0F800DFCFFFFBB4500D931
:4049400051E100D14CE14A46039200225C469046013D180E3F0238431B020193030C994603041B0C4946061C201C1F1C0093FFF7DFFB021C7A4302904946201C171CFFF76F
:404980005DFC039B09041B0C19438F420CD9029B8919013B8E4200D952E18F4200D84FE1029B8919023B0293CC1B201C4946FFF7BFFB009F834647434946201CFFF73EFC2A
:4049C000039A0B041404240C23439F420DD95A469B19013A9E4200D930E19F4200D82DE10222524294469B19E344029ADB1B17045A463A439346019C170C220C101C0492B6
:404A00005A4611042204120C141C090C7C4305924A43414347436118100C09188C4203D980204002844667440C0C12040804120C3C198118A34200D2E5E000D1DFE01F1B04
:404A400043465C1AA04592415242BF1AB74200D10EE1381C4946FFF76BFB009B029043434946381C9846FFF7E9FB230C0F041F43B8450CD9029BBF19013BBE4200D9FBE0E1
:404A8000B84500D8F8E0029BBF19023B02934346FF1A4946381CFFF74BFB009B039043434946381C9846FFF7C9FB24040904240C214388450CD9039B8919013B8E4200D972
:404AC000DCE0884500D8D9E0039B8919023B03934346C91A029B039A1B04059C1A43100C13049146221C049F1B0C5A4344437B437843E318170CDB199C4203D98024640241
:404B0000A44660441C0C12041B04120C00199B18814200D296E000D1FCE04A4601231A4391469B4BEB18002B00DC99E04A4652070AD00F2249460A40042A05D00431494504
:404B400092418946524293445A46D20106D55A46904B1A4080239346DB00EB188E4A934200DD62E64A465946D208490711435A4689465702514601225B053F0B5B0D0A404E
:404B80005AE680205A460003024208D0074206D107433F0399463F0B4246804B4CE65F4607433F033F0B221C7C4B45E600F0E4F9031C2030272800DC5EE6083B9E40002362
:404BC000B346994665E6504600F0D6F9021C2032272A00DC75E657460838874000237BE6994500D2AFE65A46594654084A46C8075208024303924A46D2079046A9E60027B5
:404C0000884500D31CE7019F5A46BC46E044B845BF417F42BF19FF18013ABE4206D2BC425FD800D19FE03F1B934609E7B742FAD1019B4345F3D9371B934601E79346D4E6A9
:404C40000293B1E64A468919013A8E4218D99146814200D061E7019A9A4200D05DE760E74F4F7F1B382F13DD012253461A404FE601235B42994654E7029308E7039327E779
:404C800088423CD874D0914647E7019B9A4648E71F2F44DC434B4A469C465B466544FA40AB4013434A46AA40151C6A1E95415A46FA402B43171C5A0709D00F221A40042A78
:404CC00005D01A1D9A429B415B42FF18131C3A023ED55346012200211A40002701238946AAE502235B429C46019AE3449446E04490459B415B429B19DF193F1BA0E6019F00
:404D00004A467C00BC42BF417F42BF19023AC91901949CE7002B95D1002201929BE75A46214B5B1BDA40202F27D0204B9C465B466544AB4049460B43591E8B4113430722CF
:404D400000271A4007D00F2200271A40042AB8D17A077F023F0BDB0813439946012253461A40002368E54145BBD89346002767E6019C9C42C3D391466DE70023DAE780275B
:404D80005B463F031F433F033F0B019A034B53E5FF030000FFFFFFFEFE070000FF07000002FCFFFF1E040000E2FBFFFF3E0400004200120E511C38B5C9B243025D0AC40F08
:404DC000012915DDE02189008C466D071B0B62440021281C0D0D2D052B431C4D52052B40520813435B00E4075B082343191C38BD002A15D1002D1FD0281C00F0BDF80A2881
:404E00001DDC0B232A1C1B1ADA40131C021C153295400F4A1B03121A52051B0B520DD7E7002D06D080221B0B120313436D07094ACEE7084A0023CBE700220023C8E7031C24
:404E40000B3B9D402B1C0025E3E7C046FFFF0F8089030000FF07000070B50B034D00440F6D0D5B0A23436C1C6405C90FC200640D012C2ADD3B4C2C19FE2C1ADC002C35DD42
:404E80008001451EA841DB000343520F13435A0704D00F221A40042A00D004338022D2041A4027D00134FF2C03D09B015B0AE4B201E0FF2400235B02E4055B0A23435B0032
:404EC000C9075B080B43181C70BD002D06D113430ED100245B025B0AE4B2ECE71A43E8D08020DB0080040343FF24D0E717340CDA05230024DB08FF2CECD1002B2DD0802202
:404F0000D20313435B025B0AD5E78024164824042343401B1F280DDC144CA4466544AB401C1C131CAB405D1EAB41C240234313430024ACE71E1C0E4C641BE640341C2028D0
:404F40000DD00C4884466544AB401D1C2A43531E9A41131C2343002499E70023ABE70025F4E7C04680FCFFFF9E03000082FCFFFF7E030000A2FCFFFF1C2101231B049842AE
:404F800001D3000C10391B0A984201D3000A08391B09984201D30009043902A2105C40187047C046040302020101010100000000000000000E4B70B500251E1C0D4CE41A2A
:404FC000A410A54204D0AB00F35898470135F8E700F062FA084B00251E1C084CE41AA410A54204D0AB00F35898470135F8E770BDA4540000A4540000A4540000AC5400009A
:40500000002310B5934203D0CC5CC4540133F9E710BD031C8218934202D019700133FAE77047000000000000FF0000000100000000300F40800200330F40000100400F40F7
:405040000004000080320F40545300008000000004000F4079300F404A310F4034320F4053330F400C400F4015410F4002600F408038810F820D83720102020C031504C0BB
:4050800008C009C00D201080114012401380144015271680182C19271A031C311D041E0E1F0A2208243125012606274A29802A1330C031073318340F35C03630372038809A
:4050C0003A283E403F144001454049FF4A074BFF4C404D204EF04F05500854185604580459045A045B045C115D115F01604061A8624063208010824085538620870C88DCE5
:4051000089038A228B448F0895209603974598149B809C099ED0A00CA153A271A304A50AA754A810AAACAB80B130B21FB30FB580B6E0B740B902BA80BB08BF50C036C104D8
:40514000C50BC6C0C70EC819C9FFCAFFCBFFCEF0CF44D00CD401D804D904DA04DB04DC11DD11DF01E6C0EA40EB020354052A088809800A840C040E220F081088110814808F
:405180001720180119241A841B081D801E201F40200221012218244425042641276028242B202E042F443002324033143508362039523A013C403D083E103F204001448077
:4051C00045044880490A4C084F0850085404571059015E905F0A600462806340680269106F018408872088048B02C07EC2EFC45ECAE6CC6FCE7DD0C8D220D6F1D80D0302CE
:4052000004040508061208040A09130114181B04230127022A032E203018310432043301342035083603370238083F544020410445D04612481E49FF4AFF4BFF4DA04F04AB
:40524000501852805405580459045A045B045C135D335F01604062C06440654066C068C06AC06CC06EC0004601020308062408200AA00E10108012011314160817801804E0
:4052800019511A201D201E501F50204022A425822728282029522A802E082F503080310632103420370138683B023C083D024004428043084521464048014A084B024F0168
:4052C000530456645A085D045E405F0169406B1470947314778083208984928095409708982099049A019B019D019F1CA005A208A308A6A0AA10B340C06FC22EC4CFCACFDF
:40530000CCAFCECFD0A7D20CD6D2EA2054206E026F02730879807C808780D440DA80DCE0DE20E4100380214023102601270852808020871295809F08A280A420A601A7827C
:40534000AA80B080C010C8F0D420E280EE20010A100A00000000F380F3180C00FF0800001C59E324820000010F7FF000415900220010000008000006040100000C6700184A
:40538000C3000080C01F2C400F201C8000202802000000442503040006C0000E12FFFFFF62A0F0410C000000000002120404040411110001000000000000400200103010DF
:4053C00000101012000000000000000000000000000000000004000000040000000400000034000006070570030405060708090A0B0C0E0F101112131415161718191B1C4D
:405400001D1E1F2021222325262728292A2B2E2F30313233343500006E45000066450000664500005E450000B0440000B0440000544500005E450000B0440000544500008B
:40544000B04400005E450000B2440000B2440000B2440000F84500003C4900002A4800001049000016480000104900001A49000010490000164800002A4800002A48000071
:405480001A49000016480000204800002048000020480000824B0000F8B5C046F8BC08BC9E467047C9030000C51D0000F8B5C046F8BC08BC9E467047A1030000D054000024
:4054C000C8000020800000001801000000000000000000007E43090D0A7E41090D0A7E54120D0A7E55120D0A7E57120D0A7E56120D0A00007E42000D0A0000007E42080DCD
:405500000A7E43090D0A7E46080D0A7E53030D0A7E4C010D0A7E41010D0A0100C201640090016400640050002C0164000000010000000000FF00000001FF0000006CDC024D
:4055400080BB0000300000000000C05D0404040000000000000000000000000000000000000000000000000000000000000000000000000000000000000000000000000097
:4055800000000000000000000000000000000000000000000000000000000000000000000000000000000000000000000000000000000000000000000000000000000000EB
:4055C00000000000000000000000000000000000000000000000000000000000000000000000000000000000000000000000000000000000000000000000000000000000AB
:40560000000000000000000000000000000000000000000000000000000000000000000000000000000000000000000000000000000000000000000000000000000000006A
:40564000000000000000000000000000000000000000000000000000000000000000000000000000000000000000000000000000000000000000000000000000000000002A
:0200000490303A
:020000009D0859
:0200000490402A
:200000000000000000000000000000000000000000000000000000000000000000000000E0
:0200000490501A
:0C0000000002046311931101047FAE9B09
:0200000490600A
:0100000001FE
:00000001FF