:400000000010002011000000C1110000C111000080B500AF01F0D8F880B500AF2A4B2A4A12688021C9020A431A60302001F088FB264B274A1A60274B11221A60264B2022CA
:400040001A60264B32221A60254B21221A60254B12221A60244B31221A60244B30221A60234B22221A60234B822212061A60164B8022D2021A60204B204A1A60204B214ABF
:400080001A60214B214A1A60214B224A1A60224B224A1A60224B214A1A60224B1F4A1A60214B224A1A60224B144A1A60214B0920191C01F035FC092001F098FC1E4B002272
:4000C0001A60BD4680BDC04600010B4004010B40060000800C0202401C0202402002024024020240280202402C020240340202403C02024008010B40000002407FBB00807E
:40010000400002400500008080000240080000800400024022000080440002402F000080840002400800024048000240AC030080880002404D1B00000C020B4080B582B096
:4001400000AF72B6494B01221A70FB1D00221A7023E0FB1D1A78131C5B009B185B00444A9B183B603B681A78597809020A43997809040A43DB781B061343191C3B681A7984
:400180005B791B0213439BB2081C191C01F09AF8FB1D1A78FB1D01321A70FB1D1B78012BD7D9344A344B101C191C01F09BF8334B334A1A60334B344A1A60344B99221204AC
:4001C0001A60334BC82212041A60324B992212041A60314B992212041A60304B992212041A602F4B1D221A602E4B08221A602E4A2D4B1B78DBB202210B43DBB213702B4AE2
:400200002A4B1B78DBB23C218B43DBB214210B43DBB21370244A244B1B78DBB216210B43DBB21370224B0A221A60224B224A1A60224BC02252001A60214BE0221A60214B77
:40024000E0221A60204B02221A60204B204A1A60204B02221A60204B06221A60FFF7DCFE01F080F8BD4602B080BDC0461C700F40403900004C3900006C39000000000140A4
:40028000303000000C00014099EE000000500F4008500F4010500F4020500F4030500F402000004000800F4000700F4001700F400000044008000440D80C0C00080104400C
:4002C00000020440180204400003044008030440B10D0000180304400804044010B5064C2378002B07D1054B002B02D0044800E000BF0123237010BD28010020000000009D
:400300003C39000008B5084B002B03D00748084900E000BF07480368002B00D108BD064B002BFBD09847F9E7000000003C3900002C010020C80000200000000080B500AFEC
:4003400062B600F007F8012000F01CFC00F010FCFEE7C04680B500AF002002F0A9F801F0E3FF002002F070F801F014FD02F064F901F07AFD01F006F801F058F901F068FE41
:4003800001F0DCFE02F0FAF801F000FE01F088FC02F086FA00F006FFBD4680BD80B582B000AFFB1D00221A7000233B6001F094FF021CFB1D1A70FB1D1B78181C00F066F979
:4003C00001F0E8FE031EF1D1044B1B683B60044B3A681A60BD4602B080BDC046CC0F0740C00F074080B500AF012002F09BF9124B1B881D2B06D8104B1B8801339AB20E4BB3
:400400001A8017E00D4B01221A7002F073F90A4B00221A800A4B9B78181C00F0CFFB084B181C0D2101F0DCFE054B181C00210D2203F07BFABD4680BD8A0100208C0100200D
:400440004401002090B589B000AF1F23FB1800221A701C23FB1800221A80012001F0ECFD814B1B780133DAB27F4B1A707E4B1B78032B05D97C4B00221A707C4B01221A701E
:400480007B4B002000211A1C042300F01BFC794B1B781A1C764B5200D25A1C23FB181A801F23FC1800F064FB031C23703B1D181C0021162203F039FA6E4B1B789A1C6E49FE
:4004C000131C9B009B185A5C3B1D1A70694B1B789A1C6949131C9B009B18CB185A783B1D5A70644B1B789A1C6349131C9B009B18CB189B78991C5F4B1B789A1C5E48131C50
:400500009B009B18C318DA783B1D5A54594B1B789A1C5949131C9B009B18CB189B78D91C544B1B789A1C5448131C9B009B18C3181A793B1D5A544F4B1B781A1C131CDB0061
:400540009B185B004D4A99183B1D02229B181222181C03F0E1F91F23FB181B7801335B001C22BA181288120A92B2D1B23A1DD1541F23FB181B7801335B0001331C22BA1886
:400580001288D1B23A1DD1541F23FB181B78012B1DD1374BDB889BB2181C00F035FB354B1B78181C00F076FB031C1A1C1C23FB181A801C23FB181B881B0A9BB2DAB23B1DE6
:4005C0009A701C23FB181B88DAB23B1DDA702C4B1B780133DAB22A4B1A70294B1B78022B07D9274B00221A703B1D181C162101F0F7FD204B1B781C1C3B1D0433181C1221FF
:4006000000F010FA031C191C1E4B6200D1521F23FB181B78012B13D1164B1B78022B0FD1184B181C032100F059FC00F04DFC031C1A1C154B9A70144B181C052101F0D0FD16
:400640000C4B1B78012B01D101F05EF8094B1B780133181C032102F06DFB0B1CDAB2054B1A70BD4609B090BD8E0100208D0100209001002098010020CC00002054010020C0
:400680008F0100209C010020EC00002080B584B000AF021CFB1D1A700F23FB1800221A70894B1B78012B00D16FE0022B00D18DE0002B00D004E1854B1B78002B19D1844BB3
:4006C0001B78191C834A0B1C9B005B189B5CFA1D12789A420DD17D4B1B78191C7E4BFA1D12785A54794B1B780133DAB2774B1A704AE0764B1B78012B3FD10F23FB180022B2
:400700001A7029E00F23FB181A787249131C9B009B18CB185B78FA1D12789A4215D16C4B0F22BA1812781A70684B1B78191C6A4BFA1D12785A54654B1B780133DAB2634B00
:400740001A70614B01221A700BE00F23FB181A780F23FB1801321A700F23FB181B78052BD0D90F23FB181B78052B0DD9574B00221A70574B00221A70A2E0544B00221A70CA
:40078000534B00221A709BE09AE0504B1B78191C514BFA1D12785A544C4B1B780133DAB24A4B1A70494B1B78181C494B1B78191C484A0B1C9B005B18D3189B780233984218
:4007C00003DB414B02221A707AE079E03F4B1B78181C3F4B1B78191C3E4A0B1C9B005B18D3189B78023398421AD1394B1B78191C384A0B1C9B005B18D318DB78FA1D1278F4
:400800009A420DD1314B1B78191C334BFA1D12785A542E4B1B780133DAB22C4B1A704EE02A4B1B78181C2A4B1B78191C294A0B1C9B005B18D3189B780333984236D1244B4D
:400840001B78191C234A0B1C9B005B18D3181B79FA1D12789A4229D11C4B1B78191C1E4BFA1D12785A541A4B1B78002B05D11A4B181C0D2100F096F80EE0154B1B78012BE6
:4008800005D1154B181C0D2100F0AEF804E0124B181C162100F022F80C4B00221A700A4B00221A700A4B00221A7008E0074B00221A70054B00221A70054B00221A70C0466B
:4008C000BD4604B080BDC046A2010020A3010020A4010020CC000020A801002090B585B000AF78600A1CFB1C1A700E23FB1800221A707B68002B03D0FB1C1B78162B01D0A8
:40090000012346E00E23FC1800F032F9031C23700E23FB181B78002B04D00E23FB181B78082B01D9012334E00F23FB1800221A7016E07B68013319780F23FB181B789A1C4C
:400940001648131C9B009B18C3185B78994200D10BE00F23FB181A780F23FB1801321A700F23FB181B78032BE3D90F23FB181A78131CDB009B185B00094A9A187B680233B0
:40098000111C1A1C1223081C111C1A1C02F0C4FF0023181CBD4605B090BDC046CC0000205401002080B582B000AF78600A1CFB1C1A707B68002B03D0FB1C1B780D2B01D057
:4009C00001230DE07B6802331B78181C00F0F6F87B68181C0D2101F003FC00F0C9F80023181CBD4602B080BD80B582B000AF78600A1CFB1C1A707B68002B03D0FB1C1B78BA
:400A00000D2B01D0012307E001F074FE044B00221A8000F0EFF80023181CBD4602B080BD8A01002080B584B000AF78600A1CFB1C1A700E23FB1800221A800A23FB18002250
:400A40001A800D23FB1800221A707B68002B03D0FB1C1B78122B01D0002343E00D23FB1800221A7036E00A23FB1800221A800D23FB181B785B001A1C7B689B181B781A0261
:400A80000A23FB181A800D23FB181B785B0001337A68D3181B7899B20A23FB180A22BA1812880A431A800A23FA180E23FB180021525E00215B5E9A4205DD0E23FB180A2231
:400AC000BA1812881A800D23FB181A780D23FB1801321A700D23FB181B78072BC3D90E23FB181B881BB2181CBD4604B080BDC04680B500AF01F0AEF9012001F03FF900F0DF
:400B000037F8031E012B15D1164B1B889BB2952B07D8144B1B889BB201339AB2114B1A801EE001F0CFF80F4B00221A800E4B01221A7015E00B4B1B889BB20C4A934207D887
:400B4000084B1B889BB201339AB2064B1A8007E001F0B8F8034B00221A80034B01221A70BD4680BDC4010020C10100200F27000080B500AF024B1B78181CBD4680BDC046BF
:400B80000401002080B582B000AF021CFB1D1A70FB1D1B78002B03D0FB1D1B78082B01D9012304E0044BFA1D12781A700023181CBD4602B080BDC0460401002080B582B07C
:400BC00000AF021CFB1D1A70FB1D1B78002B03D0FB1D1B78082B01D9012304E0044BFA1D12785A700023181CBD4602B080BDC0460401002080B500AF024B00229A70BD468F
:400C000080BDC0460401002080B582B000AF021CBB1D1A80114B1B78012B0DD1BB1D1B880F4A934208D80D4B00221A7001F0D0FD0A4B00225A700DE0084B1B78002B09D149
:400C4000BB1D1B88074A934204D9044B01221A7001F0ACFDBD4602B080BDC046100100209D0200006603000080B500AF012001F00BFE074B5B78FF2B06D0054B5B780133B4
:400C8000DAB2034B5A7001E001F0A2FDBD4680BD1001002080B582B000AF021CFB1D1A70FB1D1B78022B01D9002304E0FB1D1A78034B9200D35A1BB2181CBD4602B080BD75
:400CC000F400002090B587B000AF041C081C3A60191CFB1D221C1A70BB1D021C1A707B1D0A1C1A701723FB1800221A701423FB1800221A800023FB6000233B61FB1D1B7813
:400D0000012B05D0FB1D1B78002B01D00023CFE0FB1D1B78002B05D0BB1D1B78032B0AD90023C5E03B68002B03D07B1D1B78042B01D90023BCE009E01723FB181A781723B4
:400D4000FB1801321A70082000F064FE012000F07BFC031E04D11723FB181B78042BEBD91723FB181B78052B01D90023A0E0FB1D1B78002B46D0BB1D1B78022B2CD10320A7
:400D800000F0A0FC031C181C02F032F9031CFB60F8684A4901F0DAFF031C181C02F094FC031C0C1C181C211C454A464B02F068F9031C0C1C181C211C02F0DAFC031CFB6006
:400DC000F86802F0F5F8031C181C01F081FB021C1423FB181A8068E0BB1D1B78032B07D11423FC18022000F06DFC031C23805CE0BB1D1B781422BC18181C00F063FC031C5E
:400E0000238052E000233B6112E01423FC183B69181C00F057FC031C23803B695B003A68D3181422BA1812881A803B6901333B613B69012BE9D9032000F044FC031C181C90
:400E400002F0D6F8031CFB60F8681C4901F07EFF031C181C02F038FC031C0C1C181C211C174A184B02F00CF9031C0C1C181C211C02F07EFC031CFB603B681C1DF86802F04D
:400E800097F8031C181C01F023FB031C9BB223801423FC18022000F015FC031C23803B6806331422BA1812881A801423FB181B881BB2181CBD4607B090BDC0460000A0400F
:400EC000FCA9F1D24D62F03F80B500AF024B1B79181CBD4680BDC0460801002090B585B000AF78600A1CFB1C1A700F23FB1800221A707B68002B07D0FB1C1B78042B03D8F2
:400F00006A4B1B78012B01D00023CAE0684BDB78012B5DD002DC002B06D0BDE0022B20D0032B00D18BE0B7E0614BFF221A71604B1A785F4B5A700F23FC187A68FB1C1B78CB
:400F4000101C191C002200F0B7F8031C23700F23FB181B78012B03D1554B0222DA709BE09AE0534B1B79002B05D0514B1B79013BDAB24F4B1A714E4B1B781A1C4C4B1B79E6
:400F80005343181CFF2101F0EFFD031CDAB2484B5A700F23FC187A68FB1C1B78101C191C002200F089F8031C23700F23FB181B78002B03D13E4B0322DA7008E00F23FB18EE
:400FC0001B78022B03D13A4B0122DA7064E063E0374B1B79FF2B05D0354B1B790133DAB2334B1A71324B1B781A1C314B1B795343181CFF2101F0B8FD031CDAB22C4B5A7020
:401000000F23FC187A68FB1C1B78101C191C002200F052F8031C23700F23FB181B78012B03D1234B0222DA7008E00F23FB181B78002B03D11E4B0322DA702DE02CE01C4BA4
:401040001B781A1C1A4B1B795343181CFF2101F08BFD031CDAB2164B5A700F23FC187A68FB1C1B78101C191C002200F025F8031C23700F23FB181B78012B03D10C4B02220E
:40108000DA7008E00F23FB181B78022B03D1084B0122DA70FFE7C046064B00221A70044B5B78181CBD4605B090BDC0460401002008010020EC01002080B584B000AF7860D0
:4010C000081C111CFB1C021C1A703B1C0A1C1A800F23FB1800221A707B68002B01D103235AE0FB1C1B78042B01D9032354E00F23FB1800221A701DE00F23FB181B785B006A
:401100007A68D3181B881AB20F23FB181978244B8900CB5A19B23B1C00201B5ECB189A4201DD012338E00F23FB181A780F23FB1801321A700F23FA18FB1C12781B789A42BF
:40114000DAD30F23FB1800221A701DE00F23FB181B785B007A68D3181B881AB20F23FB1819780F4B8900CB5A19B23B1C00201B5ECB1A9A4201DA02230EE00F23FB181A7846
:401180000F23FB1801321A700F23FA18FB1C12781B789A42DAD30023181CBD4604B080BDF400002080B500AF01F02CFC01F07CFB012001F0C5FB002001F014FCBD4680BD35
:4011C00080B500AFFEE7C04680B586B000AF224B7B61224B3B61204B7B6135E03B691B68FB603B695B68BB603B699B683B6000237B600CE0FB681A68BB681A60BB6804334C
:40120000BB60FB680433FB607B6804337B607A683B689A42EED13B69DB683B6000237B6008E0BB6800221A60BB680433BB607B6804337B607A683B689A42F2D13B691033ED
:401240003B617B69013B7B617B69002BC6D102F03DFBFFF773F8FEE701000000AC3B000080B582B000AF00237B600FE07B68032B04D8104B7A689200D35800E00E4B0F4A5C
:40128000796889008B507B6801337B607B682F2BECD9FEF753FF0A4B00221A608023DB058022D205126801210A431A60BD4602B080BDC04600000000C11100000000002074
:4012C000C000002080B582B000AF786039607A683B68101C00211A1C02F027FBBD4602B080BDC04680B586B000AF7860396000233B6100237B612FE07B699B007A68D318CF
:401300001B68BB600F23FB18BA681A70BB68FF229343BB6018E03B695B003A68D3181B781A1CBB68D318191C3B695B003A68D3185B780B703B6901333B610F23FB181A7834
:401340000F23FB18013A1A700F23FB181B78002BE1D17B6901337B617B69072BCCD9BD4606B080BD80B500AF034B044A1A60044B024A1A60BD4680BD00031A40E00003007A
:4013800040031A4080B500AF064B1B78002B04D100F00AF8034B01221A7000F033F9BD4680BDC046ED01002080B584B000AF0E20032100F0D5FA744B0E20191C00F0B0FA86
:4013C000724B07221A60724B1B68002B01DA714900E07149714B714A12680A431A60704B704A1A60704B714A1A60714B8022D2051A60704B704A1A60704B714A1A60714B12
:40140000704A1268802149020A431A606E4B6E4A1268802149020A431A606C4B00221A606B4B00221A606B4B11221A606A4B02221A606A4B1B687B607B68694A13407B60F5
:401440007B68012213437B60644B7A681A600023FB6092E0634BFA689200D258DC239B0113407B60604AFB68D3181B781A1C7B6813437B60FB68022B29D8FB689B005B4A9C
:40148000944663447A681A60564BFA689200D3580122134009D04D4B4C4A1268F96801208840011C89B20A431A604E4BFA689200D358022213402AD0454B454A1268F9680C
:4014C00001208840011C89B20A431A601FE0484B7A688021C9050A431A60424BFA689200D3580122134005D03A4B3A4A126820210A431A603B4BFA689200D358022213409C
:4015000005D0344B334A126840210A431A60354BFA689200D25880239B00134003D080235B00BB6002E080235B01BB602D4BFA689200D25880235B00134005D12D4BFA688A
:4015400052000021D15204E02A4BFA6852000021D152BB68284A5343284A94466344181C254901F001FB031C9BB219B2244BFA689200D150FB680133FB60FB68032B00D8C1
:4015800068E7BD4604B080BD2517000020001A4080031A40702010107020001000001A4004001A40FC00008018001A400000FF0F1C001A4010001A400200020014001A40FF
:4015C00002002D0000031A4040031A4028021A4038021A4018021A40000F1A4030001A40FFFFFFDFC43A0000D43A000080001A4080021A402402002010270000881300008D
:401600001402002080B500AF074B1B68002B09DB054B054A1268802109060A431A600A2000F0F8F9BD4680BD00001A4080B500AF044B044A1268802149020A431A60BD46C6
:4016400080BDC04604001A4080B584B000AF78600023FB607B680322134011D0184B1B6801221340FB60FB68002B03D17B6802221340F3D1FB68002B02D0114B01221A608F
:401680007B680C22134015D00D4B1B6810221340FA681343FB60FB681022134003D17B6808221340F0D1FB681022134002D0044B10221A60FB68181CBD4604B080BDC0464B
:4016C00010021A4080B584B000AF78607B68022B09D87B689B000A4A944663441B681B041B0CFB6004E0074B1B681B041B0CFB60FB689BB21BB2181CBD4604B080BDC04621
:4017000080011A4090021A4080B500AF044B044A1268802109060A431A60BD4680BDC04680021A4080B582B000AF044B1B687B60024B7A681A60BD4602B080BD10021A4084
:4017400090B585B000AF78600C23FC1801F072F9031C23707B68022B00D8B2E07B68302B00D9AEE05B4B1B78DBB21A1E7B689A420AD3594A0F23FB1812781A70574A0E2390
:40178000FB1812781A703FE0554B1B78DBB21A1E7B689A420AD3534A0F23FB1812781A70514A0E23FB1812781A702DE04F4B1B78DBB21A1E7B689A420AD34D4A0F23FB18EF
:4017C00012781A704B4A0E23FB1812781A701BE0494B1B78DBB21A1E7B689A420AD3474A0F23FB1812781A70454A0E23FB1812781A7009E0434A0F23FB1812781A70424A39
:401800000E23FB1812781A707B68DA1E0B23FB183E498A5C1A700B23FB181B782F2B0DD97B682A2B0AD93A4B19221A60052001F0F7F80D23FB1819221A7007E0344B1B68DE
:40184000DAB20D23FB183F210A401A700B23FA180D23FB1812781B789A4208D22C4B7A68033A2A498A5C1A60052001F0D9F87B68254A9A180A23FB1812781A70254B0A22CB
:40188000BA1812781A60244B0F22BA1812781A60224B0E22BA1812781A60052000F0BAF80B23FA180D23FB1812781B789A4208D9174B7A68033A15498A5C1A60052001F0F0
:4018C000AFF80C23FB181B78181C01F0B7F8BD4605B090BDC0F1FF0FC1F1FF0FC2F1FF0FC3F1FF0FC4F1FF0FC5F1FF0FC6F1FF0FC7F1FF0FC8F1FF0FC9F1FF0FCAF1FF0F27
:40190000CBF1FF0FCCF1FF0FCDF1FF0FD83A00002CFF0B4028FF0B401CFF0B4020FF0B4080B584B000AF021C3960FB1D1A7080239B05FB60FB1D1B7810339B00FA68D31897
:401940001B68BB60FB1D1B7810339B00FA68D3183A681A60BB68181CBD4604B080BDC04690B587B000AF021CFB1D1A70BB1D0A1C1A70FB1D1B7803221340DB0006337B6100
:401980001323FC1801F056F8031C2370FB1D1B789B08DBB29B00144A944663441B68FB607B6903229A40131CDA43FB681340FB60BB1D1A787B699A40131CFA681343FB600F
:4019C000FB1D1B789B08DBB29B00074A94466344FA681A601323FB181B78181C01F02EF8BD4607B090BDC04600E400E080B582B000AF021CFB1D1A70054BFA1D12781F21C4
:401A00000A40012191400A1C1A60BD4602B080BD00E100E080B582B000AF021CBB1D1A80BB1D1B88044A12785343181C00F0F8FFBD4602B080BDC0461C01002090B583B0BF
:401A400000AFFC1D00F0F6FF031C2370074B074A1268C02109020A431A60FB1D1B78181C00F0ECFFBD4603B090BDC04600010B4080B500AF054B1A68C0231B02134001D04E
:401A8000012300E00023181CBD4680BD00010B4090B583B000AFFC1D00F0CCFF031C23700C4B0C4A12680C490A408021C9010A431A60084B074A126807490A408021090236
:401AC0000A431A60FB1D1B78181C00F0B7FFBD4603B090BD00010B40FF3FFFFF90B585B000AF78600B23FC1800F0A4FF031C2370FFF7BEFF031E04D00123FB60FFF7C8FFA3
:401B000001E00023FB607B680D4A13407B600D4B0C4A12680C4911407A680A431A60094B1B68FB68012B01D1FFF788FF0B23FB181B78181C00F082FFBD4605B090BDC0462E
:401B40000404040010020B40FBFBFBFF80B500AF334B1B68042213401FD0324B1B680422134017D0304B1B6804221340DA432D4B1B681A402B4B1A602B4B1B680422934391
:401B80001A1C294B1A60294B1B68002B02D0274B1B6898470420FFF7A1FF214B1A688023DB00134022D01F4B1A688023DB00134017D01D4B1A688023DB001340DA43194BEE
:401BC0001B681A40174B1A60174B1B68184A1A40154B1A60154B5B68002B02D0134B5B6898478023DB00181CFFF778FF0C4B1A688023DB02134011D00A4B1A688023DB028E
:401C0000134006D0094B9B68002B02D0074B9B6898478023DB02181CFFF760FFBD4680BD10020B4024010020F8010020FC010020FFFBFFFF80B500AF094B802292041A60F0
:401C4000084B0C221A60012000F08CF8FA239B00181C00F05DF8002000F04CF8BD4680BD400105406401054090B583B000AFFC1D00F0E0FE031C2370084B084A12680221DD
:401C80000A431A60FB1D1B78181C00F0D7FE0220182100F04BF8BD4603B090BD0000054080B500AF064B1B78002B04D1FFF7C2FF034B01221A70FFF7D7FFBD4680BDC04657
:401CC0000C02002090B583B000AFFC1D00F0B2FE031C2370064B064A126802218A431A60FB1D1B78181C00F0A9FEBD4603B090BD0000054080B582B000AF7860034B7A68C3
:401D00001204120C1A60BD4602B080BD4801054080B582B000AF7860034B7A681204120C1A60BD4602B080BD5401054090B585B000AF786039600F23FC1800F07BFE031CB5
:401D40002370074B3A68796891400A1C1A600F23FB181B78181C00F071FEBD4605B090BD0800054080B582B000AF7860024B7A681A60BD4602B080BD7801054080B582B01F
:401D800000AF7860024B7A681A60BD4602B080BD7001054080B500AF00F052F8054B181C00F010F8032000F019F800F03FF8BD4680BDC046B91D000080B500AFFEF798FEDB
:401DC000BD4680BD80B582B000AF7860024B7A689A64BD4602B080BD0000002090B585B000AF021CFB1D1A701623FB600B23FC1800F020FE031C23700A4B0A4A12680A4981
:401E00001140FA1D1078FA689040021C0A431A600B23FB181B78181C00F010FEBD4605B090BDC04600E400E0FFFF3FFF80B500AF024B04221A60BD4680BDC04600E100E0B2
:401E400080B500AF024B04221A60BD4680BDC04680E100E080B500AF024B04221A60BD4680BDC04680E200E080B500AF00F050F8054B181C00F010F8032000F019F800F005
:401E80003DF8BD4680BDC0468D1E000080B500AFFEF7D8FABD4680BD80B582B000AF7860024B7A681A65BD4602B080BD0000002090B585B000AF021CFB1D1A700623FB60F6
:401EC0000B23FC1800F0B6FD031C23700A4B0A4A1268C0218A43111CFA1D1078FA689040021C0A431A600B23FB181B78181C00F0A5FDBD4605B090BD04E400E080B500AF4C
:401F0000024B10221A60BD4680BDC04600E100E080B500AF024B10221A60BD4680BDC04680E100E080B500AF084B802292041A60074B0C221A60012000F072F8192000F0B6
:401F400045F8002000F034F8BD4680BD000105402401054090B583B000AFFC1D00F06AFD031C2370084B084A126801210A431A60FB1D1B78181C00F061FD0120182100F030
:401F800033F8BD4603B090BD0000054080B500AF064B1B78002B04D1FFF7C4FF034B01221A70FFF7D7FFBD4680BDC0460D02002080B582B000AF7860034B7A681204120C9F
:401FC0001A60BD4602B080BD0801054080B582B000AF7860034B7A681204120C1A60BD4602B080BD1401054090B585B000AF786039600F23FC1800F01DFD031C2370074B21
:402000003A68796891400A1C1A600F23FB181B78181C00F013FDBD4605B090BD0800054080B582B000AF7860024B7A681A60BD4602B080BD3801054080B582B000AF786059
:40204000024B7A681A60BD4602B080BD3001054080B500AF00F050F8054B181C00F010F8032000F019F800F03DF8BD4680BDC0467520000080B500AFFEF790F9BD4680BDF1
:4020800080B582B000AF7860024B7A68DA66BD4602B080BD0000002090B585B000AF021CFB1D1A701E23FB600B23FC1800F0C2FC031C23700A4B0A4A126892009108FA1D25
:4020C0001078FA689040021C0A431A600B23FB181B78181C00F0B2FCBD4605B090BDC04608E400E080B500AF024B802212011A60BD4680BD00E100E080B500AF024B802290
:4021000012011A60BD4680BD80E100E080B500AF00F080F8BD4680BD80B500AF064B064A1268802109060A431A6000F019F800F01BF8BD4680BDC0460000074080B500AF1A
:40214000064B1B78002B04D1FFF7E0FF034B01221A70FFF7E1FFBD4680BDC0460E02002080B500AFBD4680BD80B500AF00F0A6F8BD4680BD80B582B000AF00237B60044B26
:402180001B687B607B68181CBD4602B080BDC0464003074080B582B000AF054B1B680F2213407B607B68181CBD4602B080BDC0460803074080B582B000AF7860C046064B3A
:4021C0001B680F221340082BF9D0044B7A681A60BD4602B080BDC046080207404002074080B584B000AF786039600023FB6009E07A68FB68D3181B78181CFFF7DBFFFB6845
:402200000133FB60FA683B689A42F1D3BD4604B080BDC04680B500AF174B184A1A60184B00221A60174B01221A60174B174A1A60174B07221A60174B00221A60164B01228C
:402240001A60164B114A1A60154B00221A60154B00221A60144B00221A60144B00221A60134B00221A60134B04221A60124B00221A60BD4680BDC046000007400B00000235
:40228000400007404800074000030740070000800403074010030740440007400002074004020740880E0740C80E0740480F0740080F0740C80F0740880F074080B500AF98
:4022C000044B044A1268F0218A4390210A431A60BD4680BD0C00014080B582B000AFFFF759FF031E04D0FFF745FF031C7B6002E00B4B1B687B600B4B1A68D8239B00134000
:402300003B60084BD82292001A603B681B027A6813437B607B68181CBD4602B080BDC04640030740C00F074080B500AF064B1B78002B04D100F00AF8034B01221A7000F082
:4023400045F8BD4680BDC0460F02002090B583B000AF1C4B1B78DAB2FB1D3F218A431A70184AFB1D1B780A210B43DBB21370164A154B1B78DBB201210B43DBB21370FF2018
:4023800000F034F8FF2000F04FF8002000F05CF8002000F069F8BC1D00F04CFB031C2370094A094B1B78DBB210210B43DBB21370BB1D1B78181C00F041FB00F027F8BD46E1
:4023C00003B090BD72000F4092000F4080B500AF0549054B1B78DBB2802252421343DBB20B70BD4680BDC04672000F4080B582B000AF021CFB1D1A70034AFB1D1B781370AD
:40240000BD4602B080BDC04602000F4080B500AF01E000F043F800F037F8031C1A1C10231340F6D1BD4680BD80B582B000AF021CFB1D1A70034AFB1D1B781370BD4602B05C
:4024400080BDC04642000F4080B582B000AF021CFB1D1A70034AFB1D1B781370BD4602B080BDC04622000F4080B582B000AF021CFB1D1A70034AFB1D1B781370BD4602B0C8
:4024800080BDC04682000F4080B500AF024B1B78DBB2181CBD4680BD62000F4080B500AF024B1B78DBB2181CBD4680BD52000F4080B582B000AF021CFB1D1A70034AFB1DF1
:4024C0001B781370BD4602B080BDC04670000F4080B588B000AF7860244B1B889BB29BB21BB2BB61224B1B889BB29BB21BB27B617B687A695A43BB699B02D3183B613B69E4
:402500001C4A93420EDD3B69C822D203D31A00D50F331B11DB00181C552100F025FB031CFB610FE03B69A022920394466344002B00DA0F331B11DB00181C372100F014FB8E
:40254000031CFB613A69FB69D3188022120294466344FB60FB68002B02DA074A944663441B14181CBD4608B080BDC04666F1FF0F64F1FF0FFFFF0E00FFFF000080B500AF09
:4025800000F050F8054B181C00F010F8032000F019F800F03DF8BD4680BDC046A125000080B500AFFEF760FBBD4680BD80B582B000AF7860024B7A68DA64BD4602B080BD51
:4025C0000000002090B585B000AF021CFB1D1A701E23FB600B23FC1800F02CFA031C23700A4B0A4A126892009108FA1D1078FA689040021C0A431A600B23FB181B78181C20
:4026000000F01CFABD4605B090BDC04600E400E080B500AF024B08221A60BD4680BDC04600E100E080B500AF024B08221A60BD4680BDC04680E100E080B500AF00F050F871
:40264000054B181C00F010F8032000F019F800F03DF8BD4680BDC0465D26000080B500AFFDF7C0FEBD4680BD80B582B000AF7860024B7A681A64BD4602B080BD0000002049
:4026800090B585B000AF021CFB1D1A700623FB600B23FC1800F0CEF9031C23700A4B0A4A1268C0218A43111CFA1D1078FA689040021C0A431A600B23FB181B78181C00F056
:4026C000BDF9BD4605B090BD00E400E080B500AF024B01221A60BD4680BDC04600E100E080B500AF024B01221A60BD4680BDC04680E100E090B583B000AFFC1D00F09AF96E
:40270000031C2370064B064A126804218A431A60FB1D1B78181C00F091F9BD4603B090BD0000054080B582B000AF7860024B7A681A60BD4602B080BDB001054080B500AF5C
:40274000094B802292041A60084B0C221A60012000F08EF8064B181C00F060F8002000F04FF8BD4680BDC046C0010540E4010540DC05000090B583B000AFFC1D00F05AF9C3
:40278000031C2370084B084A126808210A431A60FB1D1B78181C00F051F90820182100F04BF8BD4603B090BD0000054080B500AF064B1B78002B04D1FFF7C0FF034B012275
:4027C0001A70FFF7D7FFBD4680BDC0461002002090B583B000AFFC1D00F02CF9031C2370064B064A126808218A431A60FB1D1B78181C00F023F9BD4603B090BD0000054046
:4028000080B582B000AF7860034B7A681204120C1A60BD4602B080BDC801054080B582B000AF7860034B7A681204120C1A60BD4602B080BDD401054090B585B000AF7860F3
:4028400039600F23FC1800F0F5F8031C2370074B3A68796891400A1C1A600F23FB181B78181C00F0EBF8BD4605B090BD0800054080B582B000AF7860024B7A681A60BD46D9
:4028800002B080BDF801054080B582B000AF7860024B7A681A60BD4602B080BDF001054080B500AFBD4680BD80B500AF064B1B78002B04D100F00AF8034B01221A7000F063
:4028C0002FF8BD4680BDC0461102002080B582B000AF114B1B78DAB2FB1D3F218A431A700D4AFB1D1B780D210B43DBB213700B4A0A4B1B78DBB201210B43DBB21370FF20E1
:4029000000F050F8FF2000F05DF8802000F06AF8BD4602B080BDC04671000F4091000F4080B500AF0549054B1B78DBB2802252421343DBB20B70BD4680BDC04671000F4035
:4029400080B584B000AF021CFB1D1A700F23FB18FA1D127807210A401A70FB1D1B78DB00DAB20E23FB1838210A401A700C4A0C4B1B78DBB23F218B43DBB213700848084B6C
:402980001B78DAB20F23F9180E23FB1809781B780B43DBB21343DBB20370BD4604B080BD71000F4080B582B000AF021CFB1D1A70034AFB1D1B781370BD4602B080BDC0462F
:4029C00001000F4080B582B000AF021CFB1D1A70034AFB1D1B781370BD4602B080BDC04641000F4080B582B000AF021CFB1D1A70034AFB1D1B781370BD4602B080BDC04665
:402A000021000F4080B500AF044B044A1268802109060A431A60BD4680BDC046800002400230800804D0C0460138FDD1C046C046C0467047EFF3108072B6704780F31088EC
:402A40007047C046C046C046002243088B4274D303098B425FD3030A8B4244D3030B8B4228D3030C8B420DD3FF22090212BA030C8B4202D31212090265D0030B8B4219D3AA
:402A800000E0090AC30B8B4201D3CB03C01A5241830B8B4201D38B03C01A5241430B8B4201D34B03C01A5241030B8B4201D30B03C01A5241C30A8B4201D3CB02C01A5241D3
:402AC000830A8B4201D38B02C01A5241430A8B4201D34B02C01A5241030A8B4201D30B02C01A5241CDD2C3098B4201D3CB01C01A524183098B4201D38B01C01A5241430927
:402B00008B4201D34B01C01A524103098B4201D30B01C01A5241C3088B4201D3CB00C01A524183088B4201D38B00C01A524143088B4201D34B00C01A5241411A00D2014635
:402B4000524110467047FFE701B5002000F0FCF802BDC0460029F7D003B5FFF775FF0EBC4243891A1847C04603460B437FD4002243088B4274D303098B425FD3030A8B4297
:402B800044D3030B8B4228D3030C8B420DD3FF22090212BA030C8B4202D31212090265D0030B8B4219D300E0090AC30B8B4201D3CB03C01A5241830B8B4201D38B03C01A64
:402BC0005241430B8B4201D34B03C01A5241030B8B4201D30B03C01A5241C30A8B4201D3CB02C01A5241830A8B4201D38B02C01A5241430A8B4201D34B02C01A5241030AE9
:402C00008B4201D30B02C01A5241CDD2C3098B4201D3CB01C01A524183098B4201D38B01C01A524143098B4201D34B01C01A524103098B4201D30B01C01A5241C3088B42AA
:402C400001D3CB00C01A524183088B4201D38B00C01A524143088B4201D34B00C01A5241411A00D201465241104670475DE0CA0F00D04942031000D34042534000229C46FC
:402C800003098B422DD3030A8B4212D3FC22890112BA030A8B420CD3890192118B4208D3890192118B4204D389013AD0921100E08909C3098B4201D3CB01C01A52418309CE
:402CC0008B4201D38B01C01A524143098B4201D34B01C01A524103098B4201D30B01C01A5241C3088B4201D3CB00C01A524183088B4201D38B00C01A5241D9D243088B42E3
:402D000001D34B00C01A5241411A00D20146634652415B10104601D34042002B00D54942704763465B1000D3404201B5002000F00BF802BD0029F8D003B5FFF715FF0EBC90
:402D40004243891A1847C0467047C046F0B55F4656464D464446F0B445024600C40F83B00F1C6D0A360EA34645D0FF2E25D080231B041D4300239A46ED007F3E01937B02E9
:402D80005B0A98467800FB0F000E994640D0FF2838D0802342461B041343DB00984600237F384A46019F30186240411C1F430F2F69D87D4EBF00F659B746002D45D1082353
:402DC0000193063B9A46DAE793465346022B2FD15B46012400251C40FF236D02DB056D0AE4071D432543281C03B03CBC90469946A246AB46F0BD002D2CD104230193033B8F
:402E00009A46BCE743465A4253410322D31AC8E742460123002AC4D0404600F039FD4246431F9A4076235B42181A90460023B8E7032B00D1ADE0012B00D08CE05B4654468C
:402E40001C40E4B200230025C7E70C230193093B9A4694E7281C00F01BFD7626431F9D4000237642361A01939A4688E780250024ED03FF23B1E74546CB469A46A5E74546CD
:402E800093469A46A1E743462C041B0C9C46230C444626041C1C360C2F0C7443351C66467D4373437743EB18260C9E19B54203D980235B029C46674424043304240C1B1984
:402EC0009D016C1EA5419B0E360C2B43BD19AD011D432B0104D5012368081D400543081C031C7F33002B2CDD690704D00F212940042900D00435290103D52C4B1D40031C18
:402F00008033FE2B17DD0124FF231440002564E78020C003054209D04346034206D1454605436D026D0A4C46FF2356E705436D026D0AFF2351E70124AD016D0ADBB2144031
:402F40004BE77E235B421B1A1B2B07DD012400231440002541E7081C5A46C1E79E30291C8540D940681E85410D436B0704D00F232B40042B00D004356B0104D501240123F7
:402F80001440002529E70124AD016D0A1440002323E78023DB031D4301245B466D0223401C1C6D0AFF2318E7083B0000FFFFFFF74202510A4200C30F120E00207E2A0DDDB8
:402FC0009D2A0CDC802000040143952A0ADC9620821AD1400A1C58424240D0187047034A9818FBE7963A91400A1CF4E7FFFFFF7F70B5041E39D0C50F00D04442201C00F0AE
:4030000047FC9E23261C1B1A962B07DC082801DD083884406402640AD8B21EE0992B0ADD0522211C121AD1400A1C011C1B318E40711E8E411643052801DD421F96400F4C06
:403040003440720704D00F221640042E00D0043462010ED4A401640AD8B26402C005640AED0704432C43201C70BD002500200024F3E7024B1C409F231B1AEBE7FFFFFFFB93
:40308000F0B55F4656464D464446F0B40F0387B098464D003B0BCC0F061C924681469B466D0D01946BD0664B9D4235D080275B467F031F43F3009946624BFF00400F9C4678
:4030C00007430023BB46002665440093424617035000D20F53463F0B400D904600D172E0574A904267D080235B031F435346554A5B0FFF001F43944653460021DB006044E1
:403100004246624092462D1A0E430F2E00D9A1E04D48B600805987465B461E4300D076E000239B469946023308260093CEE799464346BB4601930091009B022B6BD1019B89
:403140009A46002153460122002789461A403C4B00213F030C0D24053F0B27433B4C1B0527401F437F00D2077F0817434846391C07B03CBC90469946A246AB46F0BD0343A6
:403180003ED05B46002B00D19CE1584600F080FB2823311C1B1A021C5F46D940083A97400B1C96403B439B46B1460023284D00262D1A00938AE7524603213A43A0D10027EF
:4031C000002302219CE752463A4315D0002F00D185E1381C00F05CFB021C28215046891A131CC8405146083B99409F400B1C074317480021801A83E70027002301217FE7DB
:4032000000239B4699460133042600935EE703230C2600935AE7032B00D13CE2012B00D0BFE11A1C019B1A4000210023002789468EE700238027994600223F03004B87E7EF
:40324000FF07000001FCFFFF483B0000FFFF0F800DFCFFFFBB4500D951E100D14CE14A46039200225C469046013D180E3F0238431B020193030C994603041B0C4946061CD0
:40328000201C1F1C0093FFF7DFFB021C7A4302904946201C171CFFF75DFC039B09041B0C19438F420CD9029B8919013B8E4200D952E18F4200D84FE1029B8919023B029355
:4032C000CC1B201C4946FFF7BFFB009F834647434946201CFFF73EFC039A0B041404240C23439F420DD95A469B19013A9E4200D930E19F4200D82DE10222524294469B19F8
:40330000E344029ADB1B17045A463A439346019C170C220C101C04925A4611042204120C141C090C7C4305924A43414347436118100C09188C4203D980204002844667442D
:403340000C0C12040804120C3C198118A34200D2E5E000D1DFE01F1B43465C1AA04592415242BF1AB74200D10EE1381C4946FFF76BFB009B029043434946381C9846FFF73B
:40338000E9FB230C0F041F43B8450CD9029BBF19013BBE4200D9FBE0B84500D8F8E0029BBF19023B02934346FF1A4946381CFFF74BFB009B039043434946381C9846FFF71E
:4033C000C9FB24040904240C214388450CD9039B8919013B8E4200D9DCE0884500D8D9E0039B8919023B03934346C91A029B039A1B04059C1A43100C13049146221C049F8E
:403400001B0C5A4344437B437843E318170CDB199C4203D980246402A44660441C0C12041B04120C00199B18814200D296E000D1FCE04A4601231A4391469B4BEB18002B69
:4034400000DC99E04A4652070AD00F2249460A40042A05D00431494592418946524293445A46D20106D55A46904B1A4080239346DB00EB188E4A934200DD62E64A465946D9
:40348000D208490711435A4689465702514601225B053F0B5B0D0A405AE680205A460003024208D0074206D107433F0399463F0B4246804B4CE65F4607433F033F0B221CFE
:4034C0007C4B45E600F0E4F9031C2030272800DC5EE6083B9E400023B346994665E6504600F0D6F9021C2032272A00DC75E657460838874000237BE6994500D2AFE65A466E
:40350000594654084A46C8075208024303924A46D2079046A9E60027884500D31CE7019F5A46BC46E044B845BF417F42BF19FF18013ABE4206D2BC425FD800D19FE03F1B60
:40354000934609E7B742FAD1019B4345F3D9371B934601E79346D4E60293B1E64A468919013A8E4218D99146814200D061E7019A9A4200D05DE760E74F4F7F1B382F13DDBB
:40358000012253461A404FE601235B42994654E7029308E7039327E788423CD874D0914647E7019B9A4648E71F2F44DC434B4A469C465B466544FA40AB4013434A46AA403E
:4035C000151C6A1E95415A46FA402B43171C5A0709D00F221A40042A05D01A1D9A429B415B42FF18131C3A023ED55346012200211A40002701238946AAE502235B429C4654
:40360000019AE3449446E04490459B415B429B19DF193F1BA0E6019F4A467C00BC42BF417F42BF19023AC91901949CE7002B95D1002201929BE75A46214B5B1BDA40202FC4
:4036400027D0204B9C465B466544AB4049460B43591E8B411343072200271A4007D00F2200271A40042AB8D17A077F023F0BDB0813439946012253461A40002368E5414501
:40368000BBD89346002767E6019C9C42C3D391466DE70023DAE780275B463F031F433F033F0B019A034B53E5FF030000FFFFFFFEFE070000FF07000002FCFFFF1E0400004B
:4036C000E2FBFFFF3E0400004200120E511C38B5C9B243025D0AC40F012915DDE02189008C466D071B0B62440021281C0D0D2D052B431C4D52052B40520813435B00E407FF
:403700005B082343191C38BD002A15D1002D1FD0281C00F0BDF80A281DDC0B232A1C1B1ADA40131C021C153295400F4A1B03121A52051B0B520DD7E7002D06D080221B0B22
:40374000120313436D07094ACEE7084A0023CBE700220023C8E7031C0B3B9D402B1C0025E3E7C046FFFF0F8089030000FF07000070B50B034D00440F6D0D5B0A23436C1C0A
:403780006405C90FC200640D012C2ADD3B4C2C19FE2C1ADC002C35DD8001451EA841DB000343520F13435A0704D00F221A40042A00D004338022D2041A4027D00134FF2C74
:4037C00003D09B015B0AE4B201E0FF2400235B02E4055B0A23435B00C9075B080B43181C70BD002D06D113430ED100245B025B0AE4B2ECE71A43E8D08020DB008004034308
:40380000FF24D0E717340CDA05230024DB08FF2CECD1002B2DD08022D20313435B025B0AD5E78024164824042343401B1F280DDC144CA4466544AB401C1C131CAB405D1E2D
:40384000AB41C240234313430024ACE71E1C0E4C641BE640341C20280DD00C4884466544AB401D1C2A43531E9A41131C2343002499E70023ABE70025F4E7C04680FCFFFF27
:403880009E03000082FCFFFF7E030000A2FCFFFF1C2101231B04984201D3000C10391B0A984201D3000A08391B09984201D30009043902A2105C40187047C04604030202E5
:4038C0000101010100000000000000000E4B70B500251E1C0D4CE41AA410A54204D0AB00F35898470135F8E700F04EF9084B00251E1C084CE41AA410A54204D0AB00F35897
:4039000098470135F8E770BD943B0000943B0000943B00009C3B0000002310B5934203D0CC5CC4540133F9E710BD031C8218934202D019700133FAE77047000000000000BC
:4039400000300F40000400400F40000401000F4032300F4016310F402C320F4020330F4009400F400B410F4002600F40820D5B045F018240841086048A809220961F9A80AE
:403980009C189E03A006A211A401A612A807AA08AE40B01FB220B480B640BE50C030C105C510C602C80EC9FFCAFFCBFFCDA0CF04D018D287D804DA04DB04DC01DD11DF018B
:4039C000E040E2C0E440E540E6C0E8C0EAC0ECC0EEC0052106200C020D280F02154017151C011D0A1E0845084F825620574069406F157402C070C2F0C4F0D040D210030284
:403A000007010A031C041E02280429032A012E08300332043408370338084020410645D046204710483A49FF4AFF4BFF4DA04F04501852805405580459045A045B045C33AB
:403A40005D335F01604062C06440654066C068C06AC06CC06EC005100F02160817401D311F0826402F083E083F0245204D204F21560857115E885F0177409D21A204A52017
:403A8000A902B401C040C280C4C0CA20CEC0D020D220D6D0EE105B205F806F4273087980D480D620DA80DCE0214023102748871295809F48A702AB80B720C8F0EA80010A93
:403AC000100A00000004000000040000000400000034000006070570030405060708090A0B0C0E0F101112131415161718191B1C1D1E1F2021222325262728292A2B2E2F29
:403B00003031323334350000862E00007E2E00007E2E0000762E0000C82D0000C82D00006C2E0000762E0000C82D00006C2E0000C82D0000762E0000CA2D0000CA2D000068
:403B4000CA2D0000102F00005432000042310000283200002E3100002832000032320000283200002E3100004231000042310000323200002E31000038310000383100006B
:403B8000383100009A340000F8B5C046F8BC08BC9E4670470503000061120000F8B5C046F8BC08BC9E467047DD020000C03B0000C80000206000000008010000000000009C
:403BC000000000007E43090D0A7E41090D0A7E54120D0A7E55120D0A7E57120D0A7E56120D0A00007E42000D0A000000C201640090016400640050002C01640000000100DA
:403C000000000000FF00000001FF0000006CDC0280BB0000300000000000C05D040404000000000000000000000000000000000000000000000000000000000000000000A7
:403C40000000000000000000000000000000000000000000000000000000000000000000000000000000000000000000000000000000000000000000000000000000000044
:403C80000000000000000000000000000000000000000000000000000000000000000000000000000000000000000000000000000000000000000000000000000000000004
:403CC00000000000000000000000000000000000000000000000000000000000000000000000000000000000000000000000000000000000000000000000000000000000C4
:403D00000000000000000000000000000000000000000000000000000000000000000000000000000000000000000000000000000000000000000000000000000000000083
:0200000490303A
:020000002421B9
:0200000490402A
:200000000000000000000000000000000000000000000000000000000000000000000000E0
:0200000490501A
:0C0000000002046311931101047735B471
:0200000490600A
:0100000001FE
:00000001FF