:400000000010002011000000150800001508000008B500F001FCC04638B51F4C23688025ED022B432360302000F0A6FD1B4A1C4B1A6020221B4B1A60103A1B4B1A60203266
:400040001A4B1A6001321A4B1A60203A194B1A601032194B1A6082221206184B1A602560174A184B1A60184A184B1A60184B194A1360194A1360194A194B1A60194A1A4B84
:400080001A600920194900F035FD092000F026FD0022174B1A6038BD00010B400600008004010B400C0202401C0202402002024024020240340202403C02024008010B4000
:4000C000110000800000024022000080400002402F000080800002400400024033000080440002407FBB008084000240890D00000C020B4038B572B601224C4B1A7000242D
:4001000010E04B4863001A195200821891881B195B001A5AC31858880004104300F0DEFB0134E4B2022CECD9002412E0404DA3001A195200AA18918AD08A00040843131C85
:40014000128B598B09041143802200F0CDFB0134E4B2002CEAD03649081C2030403100F0A3FBA0221201334B1A800122324B1A70C0229200314B1A603022314B1A60314A5C
:40018000314B1A6099231B04304A13608A21C9032F4A11602F49304A1160802189022F4A1160C02109032E4A11602E4A13602E4A13600D222D4B1A6008242D4B1C602D4B42
:4001C00018780B3A0221014319702B4D29783C20814328380143297018781621014319700521264B19602649264B1960264B1A602649274B1960402326490B602648274967
:40020000086027490B60274B1A602749274B1960274B1A60274B1C60D8221201264B1A60FFF7FAFE00F074FB38BDC0461C700F40B815000000600F4002600F4000000140D1
:400240000400014099EE00000C00014000500F4008500F400400990010500F4014500F4018500F4020500F4030500F402000004000800F4000700F4001700F4000000440E9
:40028000B603C40008000440000104407100200008010440000204404092C000080204401802044000030440B10D00000803044018030440000404400804044010B5064C6C
:4002C0002378002B07D1054B002B02D0044800E000BF0123237010BDE8000020000000009815000008B5084B002B03D00748084900E000BF07480368002B00D108BD064BD6
:40030000002BFBD09847F9E70000000098150000EC000020C80000200000000008B5012001F0C6F800F0CCFD002000F099FD002000F04CFA00F088FB00F096FB00F068FEDB
:4003400000F06CFF01F012F800F030FF00F0AEFF08BDC04608B5FFF7E1FF62B600F040FA014B1870FAE7C0460401002070B5584B1B78012B3AD0002B02D0022B4AD0A5E091
:40038000534B5B78002B0DD1514A927891008A185049525C824205D14D4AD11808710133537093E0012B1CD1542803D0432801D0412816D1542803D10021454A917008E0CA
:4003C000432803D10121424A917002E00221404A91703F4AD1180871013353700123137074E03B4B00225A709A706FE0384A5378D11808710133DBB25370927891008A1867
:4004000034498A189278023293425FDB0222304B1A705BE02E4B59780D1C9A7893009B182C4CE3189B789C1CA1420CD19400A418284E3419E478844205D1254B5A181071B5
:400440000131597042E003339D423AD193009B18204CE3181B79834233D11D4B59180871002A15D100F094F9041C00F0A3F9002821D1631EDBB2072B1DD8013400F0B0F98D
:40048000134B1C192071181D0C2100F09BFF12E0012A09D100F08EF900280CD10C4804300D2100F08FFF06E000F01AFD0022084B5A7400F085F9064B00225A701A709A7016
:4004C00004E0034B00225A701A709A7070BDC046080100209C15000008B500F0D1FFC0B2FFF744FF00F058FF0028F6D1024B1A68024B1A6008BDC046CC0F0740C00F074046
:4005000008B5002809D00D2909D10A1C011C0548143001F02FF8002002E0012000E0012008BDC0460801002070B5012000F044FD114C2123E05C42425041C0B2E05400F0EA
:40054000C7FF637C042B03D801330B4A537411E000F0C6FC084E00247474351C1435281C0D2100F02FFF002000F0BEFF74616C60AC602C7370BDC0460801002010B584B0DF
:40058000012000F0E7FD00F02BF9041C00230093019302936A4613737E3313702A3B5370473B9372033BD37200F0F2F801306B461C5468460D2100F005FF04B010BDC04614
:4005C00070B584B06A4B1B78012B32D0002B02D0022B43D0CAE0664B5B78002B0DD1644A927891008A186349525C824205D1604AD118087101335370B8E0012B14D14228C3
:4006000001D0432810D1422803D10021584A917002E00121564A9170554AD11808710133537001231370A1E0514B00225A709A709CE04F4A5378D11808710133DBB253707E
:40064000927891008A184B498A1892780232934200DA8BE00222464B1A7087E0444B59780D1C9A7893009B18424CE3189B789C1CA1420CD19400A4183E4E3419E4788442C9
:4006800005D13B4B5A181071013159706EE003339D4266D193009B18364CE3181B7983425FD1334B59180871002A2DD100F070F8431EDBB2072B4ED8441C2D4D2D1928791B
:4006C00000F084F8061C2B7983420AD0012000F0EFFE27480419267104300C2100F01EFE02E0002000F0E4FE00F064F8002832D0214B1B78002B2ED000221F4B1A7000F023
:40070000BDFC00F017FD26E06846194C6A46231D62CB62C21B781370412343700D2100F051FE012000F0E0FE012000F0C1FEA5790135EDB2281C00F031F863199D71A57159
:400740000434201C0D21FFF7DBFE201C0D2100F0E5FD00F021FC064B00225A701A709A7004E0034B00225A701A709A7004B070BD2C010020AC150000CC00002008B500F0B4
:40078000ADFDFFF71DFF00F0A1FD8306F7D408BD014B18787047C04640010020431E072B03D8034B1870002000E001207047C04640010020014B18787047C046CD000020D3
:4007C0000022014B1A707047CD00002010B5034C607000F045FB607810BDC0464001002010B5002404E00134E4B2082000F0BAF9012000F043F9002801D1042CF3D9042C67
:4008000004D8002000F04EF980B200E00020C0B210BDC046FEE7C04670B50F4E0F4D13E029686B68AC68002202E001C901C30432A242FAD1E868002202E0002102C30432F3
:400840008242FAD11035013E002EE9D100F06CFEFFF780FDFEE7C046010000007819000008B500230AE0032B03D89A000A49505800E00A4899000A4A885001332F2BF2D97B
:40088000FFF738FC0022074B1A608022D205116801230B43136008BD000000001508000000000020C0000020F0B50025002711E0BB00C658F3B2FF22964308E06A008A1819
:4008C0001478A419527822700135013BDBB2002BF4D10137072FEBD9F0BDC04608B50A1C002100F050FE08BD08B500F043FE08BD064B1B68002803D080221206134301E005
:400900005B005B08014A13607047C04680031A4008B54022024B1A600120FFF7E9FF08BD00031A4008B50E20032100F0F5F80E20234900F0DFF80122224B1A60224B1B6853
:40094000002B01DA214900E02149224A13680B431360214A214B1A60214A224B1A600023214A1360214A22490A6022490A6022490A688020400202430A60204A1360204AA7
:40098000136001331F4A136002211F4A11601F4908681F4A024013430B6000230DE09A001C498C4662440021116058001A4A815299001A481A4A88500133002BEFD008BDB1
:4009C000D10A000020001A4080031A40700210517002005100001A408C00008004001A400000FF0718001A401C001A400200020010001A4014001A4000031A4028021A40C0
:400A000038021A4018021A40000F1A4030001A40FFFFFFDF80001A406C0100203E1800006801002008B5074B1B68002B08DB054A1368802109060B4313600A2000F092F81A
:400A400008BDC04600001A4008B5064B1B78002B04D1FFF767FF0122024B1A70FFF7E2FF08BDC04642010020034A1368802149020B4313607047C04604001A40021C83071D
:400A80000CD0074B1B680120184001D19307F8D4002804D00122024B1A6000E00020704710021A4010B5041E02D0002000F020F8002C07D1A400054B9C46644420680004DC
:400AC000000C00E0002000B210BDC04680011A40014B1A681A60704710021A401F2318401E3B8340181C014B1860704700E100E001BE704738B5041C0D1C1F2802D900200B
:400B0000FFF7F6FFA400034B9C4664442068256038BDC0464000002070B5041C0E1E032E02D90020FFF7E4FF1F2C02D90020FFF7DFFF03252540ED00063500F0EBFCA4081E
:400B4000A400074B9C46644423680322AA409343AE40351C1D43256000F0E0FC70BDC04600E400E008B5034B1B7A584300F0C8FC08BDC046D0000020F0B557464E46C0B4AA
:400B800083B0041C00F0C6FC0190E71E2D2F74D83F4B1B78DBB2A34208D33E4B1B78DBB29A463D4B1B78DBB2994631E03B4B1B78DBB2A34208D33A4B1B78DBB29A46394BF8
:400BC0001B78DBB2994623E0374B1B78DBB2A34208D3364B1B78DBB29A46354B1B78DBB2994615E0334B1B78DBB2A34208D3324B1B78DBB29A46314B1B78DBB2994607E05F
:400C00002F4B1B78DBB29A462E4B1B78DBB299462D4BDE5D2F2E09D92A2C07D919222B4B1A60052000F06CFC192503E0274B1D683F231D40AE4206D2234BDA5D234B1A60C6
:400C4000052000F05DFC1F4B9C4664442378DBB21F4A13601F4B52461A601F4B4A461A600520FFF77FFFAE420AD9174BDA5D174B1A60052000F044FC02E00020FFF738FFB9
:400C8000019800F04BFC03B00CBC91469A46F0BDC0F1FF0FC1F1FF0FC2F1FF0FC3F1FF0FC4F1FF0FC5F1FF0FC6F1FF0FC7F1FF0FC8F1FF0FC9F1FF0FCAF1FF0FCBF1FF0F4F
:400CC000CCF1FF0FCDF1FF0F241900002CFF0B4028FF0B401CFF0B4020FF0B40034B1868C0231B02184000D00120704700010B4008B500F00FFC044A1368C02109020B4393
:400D0000136000F00BFC08BD00010B4010B500F001FC08490A68084B1A408024E40122430A600A6813408022120213430B6000F0F5FB10BD00010B40FF3FFFFF70B5061C06
:400D400000F0E8FB041CFFF7C9FF002803D0FFF7DDFF012500E000250848331C0340084A106808490840184310601368012D01D1FFF7BEFF201C00F0D1FB70BD040404005B
:400D800010020B40FBFBFBFF10B5244B1B685B0715D5234B1B685B070ED5224B9969042001401F4C22688A4322609A6982439A61DB68002B00D098470420FFF7BFFF174B7B
:400DC0001B685B0518D5164B1B685B0510D5154B99698022D2001140114802688A4302609969114A0A409A611B69002B00D098478020C000FFF7A2FF084B1B685B030CD5D5
:400E0000074B1B685B0304D5064B5B69002B00D098478020C002FFF791FF10BD10020B40E000002044010020FFFBFFFF024A117801230B431370704772000F40002803D00B
:400E4000024B1870024B18707047C04642000F4002000F40014B18707047C04612000F40014B18707047C04622000F40014B18707047C04632000F4008B5FF20FFF7DEFF74
:400E8000B820FFF7E7FF0120FFF7EAFF0120FFF7EDFF00F03FFB084A117801230B43137000F03CFB054B1A7802218A431A701A7802318A431A7008BD92000F4072000F407B
:400EC00008B5064B1B78002B04D1FFF7D5FF0122024B1A70FFF7AAFF08BDC0466001002008B500F017FB044A136801218B43136000F014FB08BDC046000005400004000C98
:400F0000014B18607047C046080105400004000C014B18607047C0461401054038B5041C0D1C00F0F7FAAC40024B1C6000F0F6FA38BDC0460800054008B500F0EBFA064A21
:400F4000116801230B43136000F0E8FA01201821FFF7E4FF08BDC04600000540014B18607047C0463801054008B580229204084B1A600C22074B1A600120FFF7EFFFFA2024
:400F80008000FFF7C3FF0020FFF7B8FF08BDC046000105402401054008B5064B1B78002B04D1FFF7E1FF0122024B1A70FFF7C4FF08BDC04661010020014B18607047C046B9
:400FC0003001054008B5FFF7AFFA08BD014B18647047C0460000002010B5041C00F09AFA044A1368C0218B43A4011C43146000F095FA10BD00E400E00122014B1A607047AC
:4010000000E100E00122014B1A60704780E100E008B5FFF7F7FF0448FFF7D8FF0320FFF7DBFFFFF7E9FF08BDC50F000008B5FFF7A5FA08BD014B98647047C04600000020A6
:4010400010B5041C00F066FA044A1168044B0B40A4051C43146000F061FA10BD00E400E0FFFF3FFF0422014B1A60704700E100E00422014B1A60704780E100E008B5FFF74B
:40108000F7FF0448FFF7D6FF0320FFF7D9FFFFF7E9FF08BD2D1000000004000C014B18607047C046480105400004000C014B18607047C0465401054038B5041C0D1C00F0E2
:4010C00029FAAC40024B1C6000F028FA38BDC0460800054008B500F01DFA064A116802230B43136000F01AFA02201821FFF7E4FF08BDC04600000540014B18607047C04682
:401100007801054008B580229204084B1A600C22074B1A600120FFF7EFFFFA204000FFF7C3FF0020FFF7B8FF08BDC046400105406401054008B5064B1B78002B04D1FFF7BF
:40114000E1FF0122024B1A70FFF7C4FF08BDC04662010020014B18607047C0467001054008B5FFF70BFB08BD014BD8647047C0460000002010B5041C00F0CCF9044A136811
:401180009B009B08A4071C43146000F0C7F910BD00E400E00822014B1A60704700E100E00822014B1A60704780E100E008B5FFF7F7FF0448FFF7D8FF0320FFF7DBFFFFF737
:4011C000E9FF08BD6111000008B5FFF785F908BD014BD8667047C0460000002010B5041C00F098F9044A13689B009B08A4071C43146000F093F910BD08E400E080221201BE
:40120000014B1A607047C04600E100E080221201014B1A607047C04680E100E008B5FFF7F5FF0448FFF7D4FF0320FFF7D7FFFFF7E5FF08BDC91100007222074B1A70523AD1
:40124000064B1A701A3A064B1A704132054B1A700022054B1A70704783000F4080000F4020000F4030000F4081000F4010B500F051F9041C0A4A117820230B4313700949A3
:401280000A7810231A43D2B20A70074A11780B43DBB2137000F012F9201C00F03FF910BD93000F4090000F4091000F4008B5064B1B78002B04D1FFF7BFFF0122024B1A70CA
:4012C000FFF7D4FF08BDC04663010020024B18787F2318407047C04660000F40074B1B78DBB29A0606D5064A1078C0B21E221A4202D102E0002000E00020704760000F4085
:4013000043000F40034B1B785B07FBD4024B18707047C04661000F4041000F4070B5084B1B78002B06D10AE0305DFFF7EBFF0134E4B202E00D1C061C0024AC42F4D370BDD5
:401340006301002008B500F091F808BD08B500F045F808BD08B5044A1368802109060B431360FFF7EFFF08BD0000074008B5064B1B78002B04D1FFF7E9FF0122024B1A70DF
:40138000FFF7E8FF08BDC04665010020014B18687047C04640030740024B1B680F2018407047C04608030740044B1B680F221340082BF9D0024B18607047C0460802074061
:4013C0004002074070B5061C0D1C002403E0305DFFF7EAFF0134AC42F9D370BD10B5124A124B1A600023124A13600121114A1160114A1248026007241148046011480360D2
:401400001148016011490A60114A1360114A1360114A1360114A1360114A13600421114A1160114A136010BD0B000002000007404000074048000740070000800003074061
:401440000403074010030740440007400002074004020740880E0740C80E0740480F0740080F0740C80F0740880F074003490B68F0229343603A13430B6070470C000140AB
:4014800008B5FFF789FF002802D0FFF77FFF01E0054B1868054A1368D82189000B4011601B02184308BDC04640030740C00F0740014B18707047C04671000F40034A1368CE
:4014C000802109060B4313607047C04644000240044A11687F230B40C001C0B2184310607047C04600000440044A11687F230B40C001C0B2184310607047C04600020440D0
:401500000230800804D0C0460138FDD1C046C046C0467047EFF3108072B6704780F310887047C046C046C0460E4B70B500251E1C0D4CE41AA410A54204D0AB00F3589847AA
:401540000135F8E700F006FA084B00251E1C084CE41AA410A54204D0AB00F35898470135F8E770BD60190000601900006019000068190000002310B5934203D0CC5CC45420
:401580000133F9E710BD031C8218934202D019700133FAE770470000000000007E54080D0A7E43090D0A7E41090D0A007E42080D0A7E43090D0A000000300F4080020033F0
:4015C0000F40000100400F400004000080320F40A41800008000000003000F4072300F4040310F402D320F405A330F4009400F400F410F4002600F408038810F8372000118
:401600000104020E04010507061609070C800D020E200F11102012C014E0181C1A031E1C1F082203260828E02C402D012E202F32301A31033304340F352036E037183A2215
:401640003F404002464049FF4A074BFF4C404D204EF04F05500854185604580459045A045B045C335D335F01604061A862406320802C8211841485038704881C8A228C0905
:401680008E108F0891D3930495D39603970C98109E20A120A345A430A58AA60CA714AA20B21FB3C0B420B50FB730B880B988BB20BE50BF04C031C104C5E0C6B0C70CC81A9F
:4016C000C9FFCAFFCBFFCEF0CF44D00CD401D804D904DA04DB04DC33DD33DF01E6C0EA40EB0200400102022005120610070209400A840B100CA40D0810A112041608172469
:4017000019521A061B201D881F10204A2104220225402620271628012A802C802E022F203140324035023705384039153A043B103D803E0843104602470548804F0350205D
:40174000561859015C805F29600663406E808740C0FDC2EFC46FCAC8CCC8CE5FD0D4D6F1D80D0102020808010E10100812041301140116021E1022202401260228042E2061
:4017800030103203330134203502360C38083E513F1040014610481849FF4AFF4BFF4C024D204EF05203580D59045A0D5B045C115D115F01624863AD64C066C00242032047
:4017C00004800688082009020A120E810F2010801140132414041601170619251A111B201C041D081F812110221423422608270828A029202A80308031043210370138283A
:401800003A403B403F0240204114420145804801492050405201560857105A086402670269146A806F05709473247D017E48814082108484850286808780890891089202C3
:401840009404951598049C029D019E809F08A005A180A242A301AC80AF10C0DDC2BFC4FFCA0FCC8ECE8ED01ED20CD602DE20E62051106F08730877028702D420DA80DC6059
:40188000E640021022202708570186308709891095209F08A708C010C830D620E040E610100A11011C00E300F3180C0000080000823C0042410000000F3CF041007FF300F0
:4018C000C310000008000004040000030C670018FF040000C01F2C200F001C4000802822000000046302010005000CE024FFFFFF62A0F0410C000000000002120404040435
:40190000333300010000000000004002001030100010101200000000000000000000000000000000030405060708090A0B0C0E0F101112131415161718191B1C1D1E1F2096
:4019400021222325262728292A2B2E2F3031323334350000F8B5C046F8BC08BC9E467047E502000061080000F8B5C046F8BC08BC9E467047BD02000088190000C800002039
:40198000200000008800000000000000010100000000C05D80BB000030000000006CDC0204040400000000000000000000000000000000000000000000000000000000009F
:4019C00000000000000000000000000000000000000000000000000000000000000000000000000000000000000000000000000000000000000000000000000000000000E7
:401A000000000000000000000000000000000000000000000000000000000000000000000000000000000000000000000000000000000000000000000000000000000000A6
:401A40000000000000000000000000000000000000000000000000000000000000000000000000000000000000000000000000000000000000000000000000000000000066
:401A80000000000000000000000000000000000000000000000000000000000000000000000000000000000000000000000000000000000000000000000000000000000026
:0200000490303A
:0200000031EFDE
:0200000490402A
:200000000000000000000000000000000000000000000000000000000000000000000000E0
:0200000490501A
:0C000000000204A61193110104AE43821B
:0200000490600A
:0100000001FE
:00000001FF