:400000000010002011000000B9120000B912000008B501F053F9C04638B5284C23688025ED022B432360302001F0B8FB244A254B1A601122244B1A601F32244B1A601D3A7F
:40004000234B1A601E32234B1A600F3A224B1A60103A224B1A600E32214B1A601232214B1A60113A204B1A60822212061F4B1A6025601F4A1F4B1A601F49204B1960204958
:40008000204B19602049214B1960214B21490B6021490B6021490B6021490B602149224B1960224B1A600920214901F011FB092001F002FB00221F4B1A6038BD00010B4029
:4000C0000600008004010B400C0202401C0202402002024024020240280202402C02024034020240380202403C02024008010B407FBB008000000240080000804000024004
:400100000A0000808000024022000080040002402F00008044000240840002400800024048000240AC0300808800024000010240191A00000C020B4010B572B60122344B65
:400140001A70002410E0334863001A195200821891881B195B001A5AC31858880004104301F01AF90134E4B2012CECD92949081C0C302C3101F0EAF8274A284B1A60284A23
:40018000284B1A6099231B04274A1360D1210904264A1160264A1360264A1360264A13603E22264B1A60163A254B1A60254B1878263A022101431970234C21783C2081430D
:4001C00028380143217018781621014319700B211E4B19601E491F4B19601F4B1A60C02149001E4B1960B0391D4B196008311D4B19601D4B1A601D491D4B19601D4B1A60FF
:4002000004321D4B1A60FFF707FF01F0B9F810BD1C700F4094410000303000000000014099EE00000C00014000500F4008500F4010500F4020500F4030500F402000004033
:4002400000800F4000700F4001700F4000000440DA0C0C00080004400C00044008010440000204401802044000030440B10D000008030440180304400804044010B5064C53
:400280002378002B07D1054B002B02D0044800E000BF0123237010BD00010020000000003841000008B5084B002B03D00748084900E000BF07480368002B00D108BD064B31
:4002C000002BFBD09847F9E7000000003841000004010020C80000200000000008B5002001F0C2FE01F0B0FE002001F063FE01F07FFC01F059FF01F0BFFC01F04BF901F09D
:4003000061F901F06BFD01F099FD01F00DFF01F025FD01F02FFC01F0E5FF00F0ABFD08BD08B562B6FFF7DAFF124BDB78002B13D100F0D6FE10480123C37000238370FF3307
:4003400043700E4B1B685B880371013009490131042201F0C9FF01E000F02AFD012000F0D5FB00F0CDFB034800F04AFA002000F0AFFDF8E73C4100001C010020600200201C
:4003800008B50122034B5A710349481D033101F0ABFF08BD1C0100203C410000004870473C410000004870471C01002030B5002815D0122915D1002200240CE05100435C58
:4003C0001B02411849780B431DB221B28D4200DD1C1C0132D2B2072AF0D9A0B202E0002000E0002000B230BD014B18787047C046240100200022014B1A707047240100207C
:4004000008B5002809D00D2909D10A1C011C0548043003F07FFE002002E0012000E0012008BDC0462401002038B5012001F040FF0B4B5B8A1D2B03D80133094A53820EE0A0
:40044000074C0123637001F0C7FE00256582A07900F068FB6560A560E5600022227438BD24010020F0B557464E464546E0B488B0012001F083FC494A137D0133DBB21375D9
:40048000032B04D9131C00221A7501321A70434D2A1C183200200021042300F0ADFB2026AB5D5B00EB181B8B99466A46D380D3889A4600F025FB041C8046002302930393C1
:4004C00004930593069302AA9382AE5DB21C344993009B185A5C02A80270CB185A7842709A78911CD87802AF785403321B79BB54F1008919490069182431B81C122203F08D
:4005000009FE0134640053461F0A02AB1F5501344A461A554346012B06D1301C00F060FB030A02AA9370D0701C495A228B5C0133DBB28B54022B03D900215A23174AD15450
:40054000164C2023E55C03A81221FFF72FFF6B00E3185C2298524346012B0AD1012D08D1201C5C30032100F097FB00F08FFB0D4B98702023094AD35C032B01D101F078F8C0
:40058000064D2024285D0130032102F0FBF9295508B01CBC90469946A246F0BD2401002044410000CC00002008B5002805D0052903D100F0A5FA024B1870012008BDC046CA
:4005C0008801002008B500F09BFA08BD08B501F0DDFC002001F0EEFC01F018FB01F0F2FD01F058FB00F0E6FF00F0F6FF01F004FC01F034FC01F0A6FD01F056FB01F05EFAB6
:4006000008BDC046F0B585B000282AD00D292AD1184B5E78002E28D10C1C051C01225A706846291C221C03F075FD41236A465370002301E00133DBB2042BFBD9AF78013798
:40064000FFB2381C00F062FA01220A4B9A70BB1CEF54AF70281C211CFFF7D2FE01F018FE04E0012602E0012600E00026301C05B0F0BDC0468801002070B5041C0D1C161C09
:4006800000F03EFA084BD870301843782370201C291C012201F028FEF3786370601C691C012201F021FE70BD8801002008B5FFF767FE002008BDC046F8B5002836D00C29CB
:4006C00036D1012A36D8151C041C00F019FA061C071C431EDBB2072B2ED8194B1B78002B02D00022164B1A70FFF77EFE012825D1012F14D1002D06D00136A05D002100F00C
:400700002FFA00201BE00136A05D012100F028FA011CA01C082203F006FD00200FE00136A05D002100F01CFA002008E0012006E0012004E0012002E0012000E00020F8BDBD
:40074000D4000020014B18797047C0468801002008B5FFF723FE024B9860407808BDC0468801002008B501F05BFA012001F012FA00F0C6F9012812D1134BDB899BB2952B52
:4007800005D8114AD38901339BB2D3811AE001F095F90D4B0022DA8101321A7412E00A4BDB899BB2094A934205D8074AD38901339BB2D38106E001F081F9034B0022DA8126
:4007C00001321A7408BDC046880100200F27000010B5041C00F094F901280DD1074B5B7C002B05D10122054B5A74F93000F0B4FF2078012100F0B4F910BDC046880100201B
:4008000008B5224B1B79012B17D0002B02D0022B26D03AE01D4B1B7C012B36D10A2000F09BFF00F06DF901282FD100F069F901282BD10122154B1A7127E0144B1B7C002B9B
:4008400003D1124B00221A731A71FFF7CDFD01281BD1FFF7A3FDFFF7BBFFFFF7CBFD14E0FFF7C2FD012810D1FFF7B0FE01F048F8064B1B7B012B06D1044B00221A731A7139
:400880005A8200F05DFFFFF7B5FD08BD8801002008B5FFF783FD044B5861C11C0020012201F022FD08BDC0468801002070B56C4B1B7E012B3BD0002B02D0022B4CD0CEE07B
:4008C000674B597E00290CD19B7E9A00D318654A9B5C834205D1624B5A18107701315976BDE001291ED112E09A00D2185D4CA2185278824208D15A4A93765418207701310B
:4009000051760121117605E00133DBB200E00023052BE9D9052B00D8A1E0514B00225A769A769CE04E4B00225A769A7697E04C4A537ED11808770133DBB25376927E9100FD
:400940008A1848498A1892780232934200DA86E00222434B1A7682E0414B597E0D1C9A7E93009B183F4CE3189B789C1CA1420CD19400A4183B4E3419E478844205D1384B0F
:400980005A1810770131597669E003339D4261D193009A18334B9A18137983425AD1304C6118087701F08AF80023E381237401F0E1F8A37E002B08D1FFF704FE28481C3014
:4009C0000C210022FFF778FE3EE0012B07D1FFF7F9FD23481C300D21FFF714FE34E0022B06D121481E491C310D2203F093FB2BE0032B0DD1FFF7E6FDFFF7D4FC041CFFF790
:400A0000CDFC011C201C164A1C32FFF735FE1BE0042B05D112481C300521FFF7C5FD13E0052B09D1FFF7CEFD0D481C300721FFF73DFEFFF72DFF07E0FFF7C4FD08481C3025
:400A40000C210122FFF738FE054B00225A761A769A7604E0024B00225A761A769A7670BD88010020644100004802002008B501F06DFAC0B2FFF71AFF01F006FA0028F6D1FA
:400A8000024B1A68024B1A6008BDC046CC0F0740C00F07400148024B18607047480200205802002070B500281FD004291FD8002309E05C00055F9C00104E345FA418A54298
:400AC00017DC0133DBB28B42F3D3002309E05C00055F9C00094E345FA41AA5420BDB0133DBB28B42F3D3002006E0032004E0032002E0012000E0022070BDC0468441000051
:400B0000014B187A7047C046D8000020431E072B03D8034B1872002000E001207047C046D8000020431E072B03D8034B5872002000E001207047C046D800002008B50120CC
:400B400001F0CAFB054B5B7BFF2B03D00133034A537301E001F0B2FB08BDC046D800002008B5012937D81D4B1B78834201D01B4B18701A4B1B7A012B01D1002915D1174B35
:400B80001A789B789A420CD0002A07D0012001F06BFA124B187801F00DFA02E0002001F063FA0E4B1878987016E00C4B5A789B789A420CD0002A07D0012001F055FA074B9C
:400BC000587801F0F7F902E0002001F04DFA034B5878987000E0002008BDC046D8000020042803D88000034BC05A00E0002000B27047C04684410000F8B501283BD8171CE2
:400C00000D1C061E03D0022937D800240AE0002A35D0042B35D8002404E00134E4B2082000F0B2FD012000F0E1FC002801D1042CF3D9052C27D8002E18D0042D04D10020F7
:400C400001F018FA80B21FE0022D03D1042000F0F3FC19E0281C00F0EFFC15E0201C00F0EBFC031C6200BB52013401E000240020012CF3D908E0002006E0002004E0002027
:400C800002E0002000E0002000B2F8BD014B18797047C046D800002070B500287ED004297ED8414B1B7A012B7CD10D1C041C3E4BDB78012B34D0002B04D0022B10D0032BF2
:400CC0004ED065E0384BFF221A711A785A700022FFF7E8FE01285BD10222334BDA7057E0314B1B79002B02D0013B2F4A13712E4E307833795843FF2101F05EFD7070201C57
:400D0000291C0022FFF7CEFE002803D10322264BDA703DE002283BD10122234BDA7037E0214B1B79FF2B02D001331F4A13711E4E307833795843FF2101F03EFD7070201C89
:400D4000291C0022FFF7AEFE012803D10222164BDA701DE000281BD10322134BDA7017E0114E307833795843FF2101F025FD7070201C291C0022FFF795FE012803D102221B
:400D8000094BDA7004E0022802D10122064BDA700022064B1A70044B587804E0002002E0002000E0002070BDD8000020B401002008B5FFF7F3FA034B1860034B1B68027928
:400DC0005A8008BDB80100206002002008B5012809D1184B1A683F3082431A601868042202431A6022E00A2809D1124B1868402202431A601A68042082431A6016E0002832
:400E000009D10C4B1A68403082431A601A683C3882431A600AE0032808D1064B1868402202431A601868042202431A60081C01F0C5FA08BD0000044070B50D4C01252368CA
:400E40005D730020FF21FFF7C1FF0A2000F084FC2668032000F0F0FB708022685388DB08538022683023D55401F0E4FA70BDC0466002002070B501F0D3FA01F0C1FA012041
:400E800001F07CFA002001F099FA0D4C0D4E331D2360FFF7FFFD0C4D2860FFF77FFAB0652B6842785A802368FF225A800020FF21FFF78CFF054801F07FFB01F049FB70BDC1
:400EC00060020020B80100205C02002099110000F0B585B0071C7B4B1B684E229A5C002A00D0DFE0002801D0188335E0FFF72AFC012805D1734B1C68FFF72AFC20832BE03A
:400F0000704B1B6818229A5E6F4B1B685B889A4222D0FFF717FC00281ED16A4B1C686A4B1B685D882583608802F086F9A060674901F0B0FE061CA06028B202F035F96061B0
:400F400002F012F900B202F02FF9011C301C01F0D9FF02F009F920835A4B1C681823E25E63889A4200DB23831822A35EFE2B01DDFF2323831822A35E002B01DC00232383DD
:400F8000032000F059FB60824E4B1D681223EC5EE410A4B26C822B8B1C1BA4B26C8324B2201C02F053FF009001910022484B02F0B3FC02F0DBFF03902862686A02F082FFE5
:400FC000444A454B02F0A8FC021C0B1C0098019902F07AF902F0CAFF061C6862A4001C22A85E201A02F0E0F8041CA8620398311C01F0D4FC011C201C01F0D0FC02F0B4F847
:4010000080B2A88503B2FE2B02DDFF23AB8505E000B2FE3002DAFF235B42AB85A98D0B1C14339BB2282B0BD80020FF21FFF7CEFE322000F091FB01215C23284AD1542CE077
:401040000BB2142B16DD00205C23244AD054C9B20130FFF7BBFE002F04D00120FF21FFF7B5FE1AE0174B1B68998DC9B20120FFF7ADFE12E00BB214330FDA00205C23174AE7
:40108000D054002F04D00A30FF21FFF79FFE04E04942C9B20A20FFF799FE0A4B1B685A8B9A830AE00020FF21FFF790FE322000F053FB03200021FFF789FE024B186805B020
:4010C000F0BDC046600200205C02002000007F430000E83FFCA9F1D24D62503FB801002008B5264B1A6800213023D15431E00120FFF7EEFE5C23224AD35C002BF7D0214803
:4011000001F0C2F9204800F027FB00215C231C4AD1540FE0194B1A683023D35C012B06D10022174B1A66012000F016FB07E0FC20FFF7CEFE5C23124AD35C002BEAD0104AD0
:40114000136E01331366052B03D900220C4B1A6605E00A4B1A683023D35C012BCAD10020FF21FFF733FE01F09DF90A2000F0F4FA024B1B680220185E08BDC046600200208C
:40118000B8010020390E00008813000008B5022000F052FA80B208BDF8B5012000F026FA00280DD0434E37684A257C5DFFF7EEFF183464003C1960803268535D0133535519
:4011C0003C4B1B68598EF422FF32914251D9998E91424ED9D98E91424BD9198F914248D9598F914245D9998F914242D9D98F91423FD9B43AFF3A995AF422FF32914238D918
:40120000B23AFF3A995AF422FF32914231D9B03AFF3A995AF422FF3291422AD9AE3AFF3A995AF422FF32914223D9AC3AFF3A9A5AF423FF339A421CD90020FF21FFF7C6FDEF
:401240001C4B1A6800214A23D15408E018335B00D318002159804A31535C013353544A23D35C0B2BF2D900214A23D15401310433D154104B1B684E229A5C012A0DD15021BE
:401280005A5A013292B25A52F421FF318A4204D9002150229952023A99544A229A5C0B2A02D900214A22995401F094F901F012F9F8BDC04660020020FEE7C04670B50F4EB2
:4012C0000F4D13E029686B68AC68002202E001C901C30432A242FAD1E868002202E0002102C304328242FAD11035013E002EE9D102F0EAFEFFF714F8FEE7C046010000007D
:401300001845000008B500230AE0032B03D89A000A49505800E00A4899000A4A885001332F2BF2D9FEF708FF0022074B1A608022D205116801230B43136008BD0000000012
:40134000B912000000000020C0000020F0B50025002711E0BB00C658F3B2FF22964308E06A008A181478A419527822700135013BDBB2002BF4D10137072FEBD9F0BDC046DB
:40138000024B034A1360034A13607047D800030000031A4040031A4008B50A1C002102F0C2FE08BD10B50E20032100F0A3F90E20514900F08DF90F22504B1A60504B1B6814
:4013C000002B01DA4F4900E04F49504A13680B4313604F4A4F4B1A604F4A504B1A6000234F4A13604F49504A11605049504A1160504A116880204002014311604E490A687D
:4014000002430A604D4A13604D4A136011224D4B1A600F3A4C4B1A604C490A684C4B1340012213430B60002463E04A4AA3009958DC239B010B401219127D1343032C1ED8CB
:40144000A2004548844662441360CB0708D53B49086880225202131CA3401B0C03430B60A3003C4A9B589B0722D53549086880225202131CA3401B0C03430B6018E08022BA
:40148000D2051343354A1360A300324A9B58DB0704D52C4A116820230B431360A3002D4A9B589B0704D5274A116840230B431360A300284A9B589A0502D58020400001E078
:4014C00080204001DB0504D463000021244A995203E04208630022495A5222494843224B9C46604401F068F900B2A2001F4BD0500134042C99D910BD8516000020001A40FD
:4015000080031A40702010117020001100001A40A400008004001A400000FF0F18001A401C001A400200020010001A400200FF0314001A4000031A4040031A4028021A404C
:4015400038021A4018021A40000F1A4030001A40FFFFFFDFA843000080001A4080021A407802002010270000881300006402002008B5074B1B68002B08DB054A13688021F6
:4015800009060B4313600A2000F0FEF808BDC04600001A4008B5064B1B78002B04D1FFF701FF0122024B1A70FFF7E2FF08BDC0461C020020024A13685B005B081360704706
:4015C00000001A40034A1368802149020B4313607047C04604001A40024A1168024B0B401360704704001A40FFFFFEFF011C83070CD0104B1B680120184001D18B07F8D417
:40160000002804D001220B4B1A6000E000200C230B420DD0074B1A6810231A401043034001D10A07F6D4002B02D01022014B1A607047C04610021A4010B5041E042C02D9AE
:40164000002000F043F8032C07D8A400064B9C46644420680004000C03E0044B18680004000C00B210BDC04680011A4090021A40034A1368802109060B4313607047C046F6
:4016800080021A40014B1A681A60704710021A4010B5041C00F0AEFF07231C40E40404490B68044A134023430B6000F0A7FF10BD00010B40FFFFC7FF1F2318401E3B834098
:4016C000181C014B1860704700E100E001BE704738B5041C0D1C1F2802D90020FFF7F6FFA400034B9C4664442068256038BDC0464000002070B5041C0E1E032E02D9002020
:40170000FFF7E4FF1F2C02D90020FFF7DFFF03252540ED00063500F06DFFA408A400074B9C46644423680322AA409343AE40351C1D43256000F062FF70BDC04600E400E09D
:40174000034A13681B041B0C02490B43136070470CED00E00400FA0510B5041C06E0084B186800F03DFF074B9C46644480231B029C42F4D8024B5868604300F031FF10BD0F
:40178000E80000200080FFFF08B5034B1B7A584300F026FF08BDC046E8000020F0B557464E46C0B483B0041C00F024FF0190E71E2D2F74D83F4B1B78DBB2A34208D33E4B9F
:4017C0001B78DBB29A463D4B1B78DBB2994631E03B4B1B78DBB2A34208D33A4B1B78DBB29A46394B1B78DBB2994623E0374B1B78DBB2A34208D3364B1B78DBB29A46354B7D
:401800001B78DBB2994615E0334B1B78DBB2A34208D3324B1B78DBB29A46314B1B78DBB2994607E02F4B1B78DBB29A462E4B1B78DBB299462D4BDE5D2F2E09D92A2C07D95D
:4018400019222B4B1A60052000F0CAFE192503E0274B1D683F231D40AE4206D2234BDA5D234B1A60052000F0BBFE1F4B9C4664442378DBB21F4A13601F4B52461A601F4B88
:401880004A461A600520FFF77FFFAE420AD9174BDA5D174B1A60052000F0A2FE02E00020FFF714FF019800F0A9FE03B00CBC91469A46F0BDC0F1FF0FC1F1FF0FC2F1FF0F2E
:4018C000C3F1FF0FC4F1FF0FC5F1FF0FC6F1FF0FC7F1FF0FC8F1FF0FC9F1FF0FCAF1FF0FCBF1FF0FCCF1FF0FCDF1FF0FC44300002CFF0B4028FF0B401CFF0B4020FF0B409C
:40190000F0B583B000F076FE041C134A13685B005B0813608025ED052B68022633432B600E4B1B889BB20E4A13600E4A116804230B4313600C4F3B6801930220FFF7A8FED2
:4019400030BF019B3B602B68B3432B60201C00F055FE03B0F0BDC04600000B4052F1FF0F0C000B4010ED00E000010B40034B1868C0231B02184000D00120704700010B4012
:4019800008B500F037FE044A1368C02109020B43136000F033FE08BD00010B4010B500F029FE08490A68084B1A408024E40122430A600A6813408022120213430B6000F0CD
:4019C0001DFE10BD00010B40FF3FFFFF70B5061C00F010FE041CFFF7C9FF002803D0FFF7DDFF012500E000250848331C0340084A106808490840184310601368012D01D1D1
:401A0000FFF7BEFF201C00F0F9FD70BD0404040010020B40FBFBFBFF10B5244B1B685B0715D5234B1B685B070ED5224B9969042001401F4C22688A4322609A6982439A6137
:401A4000DB68002B00D098470420FFF7BFFF174B1B685B0518D5164B1B685B0510D5154B99698022D2001140114802688A4302609969114A0A409A611B69002B00D09847FD
:401A80008020C000FFF7A2FF084B1B685B030CD5074B1B685B0304D5064B5B69002B00D098478020C002FFF791FF10BD10020B40F800002020020020FFFBFFFF08B500F00E
:401AC00099FD044A136802218B43136000F096FD08BDC046000005400004000C014B18607047C046480105400004000C014B18607047C0465401054038B5041C0D1C00F020
:401B000079FDAC40024B1C6000F078FD38BDC0460800054008B500F06DFD064A116802230B43136000F06AFD02201821FFF7E4FF08BDC04600000540014B18607047C046EB
:401B40007801054008B580229204084B1A600C22074B1A600120FFF7EFFFFA208000FFF7C3FF0020FFF7B8FF08BDC046400105406401054008B5064B1B78002B04D1FFF735
:401B8000E1FF0122024B1A70FFF7C4FF08BDC0463C020020014B18607047C0467001054008B5FEF7DFFD08BD014B98647047C0460000002010B5041C00F01CFD044A116805
:401BC000044B0B40A4051C43146000F017FD10BD00E400E0FFFF3FFF0422014B1A60704700E100E00422014B1A60704780E100E008B5FFF7F7FF0448FFF7D6FF0320FFF7DD
:401C0000D9FFFFF7E9FF08BDA11B000008B5FFF7E9FF0248FFF7C8FF08BDC046B91200000422014B1A60704780E200E008B5FEF719FC08BD014B18657047C046000000201E
:401C400010B5041C00F0D6FC044A1368C0218B43A4011C43146000F0D1FC10BD04E400E01022014B1A60704700E100E01022014B1A60704780E100E008B5FFF7F7FF044826
:401C8000FFF7D8FF0320FFF7DBFFFFF7E9FF08BD2D1C000008B5FFF7E9FF0248FFF7CAFF08BDC046B912000008B500F0A3FC044A136801218B43136000F0A0FC08BDC0466F
:401CC000000005400004000C014B18607047C046080105400004000C014B18607047C0461401054038B5041C0D1C00F083FCAC40024B1C6000F082FC38BDC04608000540C5
:401D000008B500F077FC064A116801230B43136000F074FC01201821FFF7E4FF08BDC04600000540014B18607047C0463801054008B580229204074B1A600C22064B1A6079
:401D40000120FFF7EFFF1920FFF7C4FF0020FFF7B9FF08BD000105402401054008B5064B1B78002B04D1FFF7E3FF0122024B1A70FFF7C6FF08BDC0463D020020014B18600D
:401D80007047C0463001054008B5FEF76FFE08BD014BD8667047C0460000002010B5041C00F028FC044A13689B009B08A4071C43146000F023FC10BD08E400E080221201CA
:401DC000014B1A607047C04600E100E080221201014B1A607047C04680E100E008B5FFF7F5FF0448FFF7D4FF0320FFF7D7FFFFF7E5FF08BD891D000008B5FFF7E7FF024853
:401E0000FFF7C6FF08BDC046B912000008B500F08BF808BD08B500F091F808BD08B500F03BF808BD08B5044A1368802109060B431360FFF7EBFF08BD0000074008B5064BCB
:401E40001B78002B04D1FFF7E9FF0122024B1A70FFF7E8FF08BDC0463E02002008B5FFF7D9FF044A13685B005B0813600022024B1A6008BD00000740880F0740014B1868CB
:401E80007047C04640030740024B1B680F2018407047C0460803074010B5124A124B1A600023124A13600121114A1160114A12480260072411480460114803601148016028
:401EC00011490A60114A1360114A1360114A1360114A1360114A13600421114A1160114A136010BD0B00000200000740400007404800074007000080000307400403074003
:401F000010030740440007400002074004020740880E0740C80E0740480F0740080F0740C80F0740880F074003490B68F0229343603A13430B6070470C000140024A136867
:401F4000F0218B43136070470C00014008B5FFF79BFF002802D0FFF791FF01E0054B1868054A1368D82189000B4011601B02184308BDC04640030740C00F0740024A1178CD
:401F800080230B431370704773000F40024A11787F230B401370704773000F40014B18707047C04603000F40014B18707047C04643000F40014B18707047C04623000F406D
:401FC000014B18707047C04683000F40014B1878C0B2704763000F40014B1878C0B2704753000F4008B501E0FFF7F6FFFFF7EEFFC306F9D408BDC04610B511490B783F2250
:402000009343353A13430B700E4C2278012313432370FF20FFF7C2FFFF20FFF7C5FF0020FFF7C8FF0020FFF7CBFF00F0E3FA227810231343237000F0E1FAFFF7D3FF10BD3A
:4020400073000F4093000F4008B5064B1B78002B04D1FFF7D1FF0122024B1A70FFF78EFF08BDC0463F020020014B18707047C04671000F4010B5164B1A8812B2154B1988CE
:402080000CB2604392028418134B9C420BDDC823DB031B1BD817000FC0180011C000552100F08AFB0AE0A0239B03E318D817000FC0180011C000372100F07EFB231880224F
:4020C000120294466344D817000CC018001410BD66F1FF0F64F1FF0FFFFF0E0008B5FEF72DFD08BD014BD8647047C0460000002010B5041C00F07EFA044A13689B009B0869
:40210000A4071C43146000F079FA10BD00E400E00822014B1A60704700E100E00822014B1A60704780E100E008B5FFF7F7FF0448FFF7D8FF0320FFF7DBFFFFF7E9FF08BD85
:40214000DD20000008B5FFF7E9FF0248FFF7CAFF08BDC046B912000008B5FEF765F908BD014B58647047C0460000002010B5041C00F040FA044A1168044B0B40A4031C43F8
:40218000146000F03BFA10BD00E400E0FF3FFFFF0222014B1A60704700E100E00222014B1A60704780E100E008B5FFF7F7FF0448FFF7D6FF0320FFF7D9FFFFF7E9FF08BD21
:4021C0005921000008B5FFF7E9FF0248FFF7C8FF08BDC046B912000008B500F00BFA044A136804218B43136000F008FA08BDC046000005400004000C014B18607047C046B9
:40220000880105400004000C014B18607047C0469401054038B5041C0D1C00F0EBF9AC40024B1C6000F0EAF938BDC0460800054008B500F0DFF9064A116804230B43136055
:4022400000F0DCF904201821FFF7E4FF08BDC04600000540014B18607047C046B801054008B580229204084B1A600C22074B1A600120FFF7EFFFFA20C000FFF7C3FF002061
:40228000FFF7B8FF08BDC04680010540A401054008B5064B1B78002B04D1FFF7E1FF0122024B1A70FFF7C4FF08BDC04640020020014B18607047C046B001054008B500F07B
:4022C00099F9044A136808218B43136000F096F908BDC04600000540014B18607047C046F00105407047C046F0B54F464646C0B4A1B00E1C8C181C4B9C422AD8171C80467D
:40230000CC0B49040B0E994624024C44E4010020002519E0B44207D3BD4205D24246525D6946CA54013502E022786946CA540134013300E000237F2BECD94846694600F077
:4023400077F901239C46E144BD4203D20028F1D000E00120012801D90120404221B00CBC90469946F0BDC046FF7F0000024A117880230B431370704772000F4010B5031C3A
:4023800007201840DB0038221340054A11783F24A1431170117818430843107010BDC04672000F40014B18707047C04602000F40014B18707047C04642000F40014B18705B
:4023C0007047C04622000F4008B50B490B783F229343323A13430B70084A117801230B431370FF20FFF7DEFFFF20FFF7E1FF8020FFF7E4FF08BDC04672000F4092000F400A
:4024000008B5064B1B78002B04D1FFF7DDFF0122024B1A70FFF7AAFF08BDC04641020020034A1368802109060B4313607047C04640000240024A1068012318401060704783
:4024400010000440014B18647047C0460000002010B5041C00F0CEF8044A1368C0218B43A4011C43146000F0C9F810BD00E400E00122014B1A60704700E100E00122014BC6
:402480001A60704780E100E010B5041CFFF7F6FF201CFFF7D7FF0320FFF7DAFFFFF7E8FF10BDC04608B5FFF7E9FF0248FFF7CAFF08BDC046B9120000024A117880230B4330
:4024C0001370704770000F40014B18707047C04681000F40014B1878C0B2704761000F40014B18807047C04640100F40014B188880B2704780100F40014B18807047C04638
:4025000000100F4008B501E0FFF7F0FFFFF7E2FF0307F9D408BDC04610B50B4C201CFFF7DFFF201CFFF7E8FF00F064F8074A117810230B43137000F061F8FFF7E3FF01208F
:40254000FFF7C2FF10BDC0460F27000091000F4008B5064B1B78002B04D1FFF7DDFF0122024B1A70FFF7A8FF08BDC04642020020014B58657047C0460000002010B5041CB7
:4025800000F038F8044A1168044B0B40A4031C43146000F033F810BD04E400E0FF3FFFFF2022014B1A60704700E100E02022014B1A60704780E100E010B5041CFFF7F6FFE4
:4025C000201CFFF7D5FF0320FFF7D8FFFFF7E8FF10BDC0462022014B1A60704780E200E00230800804D0C0460138FDD1C046C046C0467047EFF3108072B6704780F3108874
:402600007047C046C046C046024B1A68024B1A600020704708010B4044020020024B1A68024B1A60002070474402002008010B40F0B5A7B0002325932493FF2800D9A5E070
:40264000002900D1A2E0009004A8802201F062FD022300200021002408E09A0002AD5259002A02D0891810431C1C0133212BF4D9002903D1002803D1002502E0002500E0D0
:402680000125002D06D0A30002AA9F58002202A95A5000E00027404B02937F2303933F4B02AA1A603E493F4A11601B681B0F0A2B04D03A4B1B680F22134000E000232593A7
:4026C000259B002B64D1FFF795FF0190FFF79CFF2490259B002B15D1334A02920299009A12040A4302922D4A02A911602F482D4908601268120F0A2A03D0284B1B680F229B
:4027000013402593259E002E36D1002D34D004A80021802201F007FDA40002ABE7501E4B02937F2303931D4B02AA1A601C491D4A11601B681B0F0A2B04D0184B1B680F22AB
:402740001A40161C2596259B002B15D1184A0292029A00990D0415430295104A02A911601448104908601268120F0A2A03D00B4B1B680F2213402593249B002B02D1FFF719
:402780004DFF24900198FFF739FF01E004232593259827B0F0BDC046B6D70000080000400400008004000040B6D8000005000080B6D900000600008003460B437FD400227A
:4027C00043088B4274D303098B425FD3030A8B4244D3030B8B4228D3030C8B420DD3FF22090212BA030C8B4202D31212090265D0030B8B4219D300E0090AC30B8B4201D3B6
:40280000CB03C01A5241830B8B4201D38B03C01A5241430B8B4201D34B03C01A5241030B8B4201D30B03C01A5241C30A8B4201D3CB02C01A5241830A8B4201D38B02C01A22
:402840005241430A8B4201D34B02C01A5241030A8B4201D30B02C01A5241CDD2C3098B4201D3CB01C01A524183098B4201D38B01C01A524143098B4201D34B01C01A5241E4
:4028800003098B4201D30B01C01A5241C3088B4201D3CB00C01A524183088B4201D38B00C01A524143088B4201D34B00C01A5241411A00D201465241104670475DE0CA0F5C
:4028C00000D04942031000D34042534000229C4603098B422DD3030A8B4212D3FC22890112BA030A8B420CD3890192118B4208D3890192118B4204D389013AD0921100E0FC
:402900008909C3098B4201D3CB01C01A524183098B4201D38B01C01A524143098B4201D34B01C01A524103098B4201D30B01C01A5241C3088B4201D3CB00C01A524183083E
:402940008B4201D38B00C01A5241D9D243088B4201D34B00C01A5241411A00D20146634652415B10104601D34042002B00D54942704763465B1000D3404201B5002000F037
:402980000BF802BD0029F8D003B5FFF715FF0EBC4243891A1847C0467047C046F8B54A00430244004E02C50F240E281C9B09120EC90FB7098D4240D0A01A002800DC84E017
:4029C000002A1CD1002F5CD15A0704D00F221A40042A00D004338022D2041A40281C002A24D00134FF2C00D17BE09B015B0AE4B25B02E4055B0A2343C0071843F8BDFF2C05
:402A0000E2D08022D204174301261B2808DC391C20223E1CC140101A8640771EBE410E439B1B5A0133D4281C5A07CFD1DB08FF2C1ED05B025B0AE4B2DAE7A11A002957DD73
:402A4000002A3AD0FF2CBFD08022D204174301261B2972DD9B195A01E5D50134FF2C00D187E001218A4A194013405B080B43ABE7002B36D08022D20313435B025B0AFF24B3
:402A8000B6E7013800283FD1DB1B5A01CBD59B019E09301C01F0FAFA05388640844223DC001B1F24321C431C201ADA408640131C741EA6410024334386E7002F00D183E79D
:402AC0000139002950D1DB19C5E7002820D1621CD2B2012A5EDDDE1B720128D5FE1A0D1CD7E7FF24002383E7694B241A33406BE7002958D1621CD1B201293CDDFF2A37D09C
:402B0000FB185B08141C5FE7FF2C00D07CE75BE7002C1ED0FF2A23D08024E404404223431B285BDD0123FB1A141C0D1CADE7002EAFD100230020002478E73A1CCA40944610
:402B400020223E1C511A8E406246771EBE41164380E7002B3ED0C0430028E4D0FF2ADFD13B1CFF240D1C2FE7FF2C00D06FE72BE7FF2400235AE7002C5AD1002B7FD0002FF0
:402B800000D121E7DB195A0100D44CE7404A0134134019E7002C15D1002B2FD1002F5DD03B1C0D1C10E7002C21D1002B53D0C943002904D0FF2A4BD01B2957DD0123DB197B
:402BC000141C48E7002B22D1002F4AD03B1C0D1CFF24F9E63B1C141C0D1CF5E61D1C2024C540201A8340581E83412B439BE7FF2A2ED08024E40449422343DDE7002F00D1F1
:402C0000E2E6DA1B50013CD5FB1A0D1CDCE6FF24002F00D1D8E68022DB08D203134204D0FE08164201D1331C0D1CDB00FF24CBE6002B0DD0FF24002F00D1C5E68022DB085F
:402C4000D2031342F1D0FE081642EED1331CECE73B1CFF24B8E63B1C141CB5E6231C0020E4E6802300209B04FF24DFE61E1C2024CE40611A8B40591E8B4133439FE73B1C15
:402C8000A2E6131E00D0CEE600230020CEE6C046FFFFFFFBF0B556464D465F464446F0B443024500C70F83B08A465C0A2E0EB94641D0FF2E26D080231B042343DC000023DC
:402CC00098469B467F3E53465B025D0A53465A00DB0F120E9A4639D0FF2A33D080231B042B43DD0000237F3A5146B21A46467940081C01921E430F2E00D976E07E4AB60056
:402D00009659B746002C30D108239846063B9B46D9E780230021DB03FF245B02E4055B0AC90723430B43181C03B03CBC90469946A246AB46F0BD002C28D104239846033B19
:402D40009B46C0E7002D1FD1022302E0002D11D10123B21A50464646784001921E430F2E27D86649B60089598F460C239846093B9B46A8E7281C01F089F97622431F52427C
:402D80009D40121A0023AFE70323ADE7201C01F07DF9431F9C4076235B421E1A002398469B4690E70025D1469B465B464846022B6FD10121FF2401400023AEE77E23019ABC
:402DC0005B429B1A1B2B6DDD01214B46194000240023A2E78023DB031C4249D18023DB0323435B025B0A391C96E763016D01AB4237D389461A2001215B1B01241E1C49008F
:402E00005B00002E01DBAB4201D35B1B214301380028F3D1581E83410B431D1C019C7F34002CCBDD6B0704D00F232B40042B00D004352B0104D5019A314B8032141C1D4012
:402E4000FE2C07DD4B460121FF241940002364E7251CAAE701214A46AB015B0AE4B211405BE7019A8946013A01921B200021C4E71D4207D023435B025B0A391C4CE700259F
:402E80006302ABD58023DB032B435B025B0A514642E7032B25D0012BC0D101210024014000233AE7291CD9402B1C019A9E3293405D1EAB410B435A0704D00F221A40042A8B
:402EC00000D004335A0105D54B46012101241940002322E701214A469B015B0A114000241BE7802301214A46DB032B435B020A405B0A111C10E7C046F44300003444000089
:402F0000FFFFFFF7F0B55F4656464D464446F0B445024600C40F83B00F1C6D0A360EA34645D0FF2E25D080231B041D4300239A46ED007F3E01937B025B0A98467800FB0FB8
:402F4000000E994640D0FF2838D0802342461B041343DB00984600237F384A46019F30186240411C1F430F2F69D87D4EBF00F659B746002D45D108230193063B9A46DAE7E0
:402F800093465346022B2FD15B46012400251C40FF236D02DB056D0AE4071D432543281C03B03CBC90469946A246AB46F0BD002D2CD104230193033B9A46BCE743465A429B
:402FC00053410322D31AC8E742460123002AC4D0404601F05BF84246431F9A4076235B42181A90460023B8E7032B00D1ADE0012B00D08CE05B4654461C40E4B2002300251B
:40300000C7E70C230193093B9A4694E7281C01F03DF87626431F9D4000237642361A01939A4688E780250024ED03FF23B1E74546CB469A46A5E7454693469A46A1E743465D
:403040002C041B0C9C46230C444626041C1C360C2F0C7443351C66467D4373437743EB18260C9E19B54203D980235B029C46674424043304240C1B199D016C1EA5419B0ED5
:40308000360C2B43BD19AD011D432B0104D5012368081D400543081C031C7F33002B2CDD690704D00F212940042900D00435290103D52C4B1D40031C8033FE2B17DD012418
:4030C000FF231440002564E78020C003054209D04346034206D1454605436D026D0A4C46FF2356E705436D026D0AFF2351E70124AD016D0ADBB214404BE77E235B421B1AC0
:403100001B2B07DD012400231440002541E7081C5A46C1E79E30291C8540D940681E85410D436B0704D00F232B40042B00D004356B0104D5012401231440002529E701242C
:40314000AD016D0A1440002323E78023DB031D4301245B466D0223401C1C6D0AFF2318E774440000FFFFFFF74202510A4200C30F120E00207E2A0DDD9D2A0CDC80200004DC
:403180000143952A0ADC9620821AD1400A1C58424240D0187047034A9818FBE7963A91400A1CF4E7FFFFFF7F70B5041E39D0C50F00D04442201C00F069FF9E23261C1B1A9F
:4031C000962B07DC082801DD083884406402640AD8B21EE0992B0ADD0522211C121AD1400A1C011C1B318E40711E8E411643052801DD421F96400F4C3440720704D00F22CE
:403200001640042E00D0043462010ED4A401640AD8B26402C005640AED0704432C43201C70BD002500200024F3E7024B1C409F231B1AEBE7FFFFFFFB10B5041E35D000F0E7
:4032400025FF9E21091A962909DC082830DD021C231C083A93405B025B0AC8B220E099290CDD0522231C121AD3401A1C031C1B339C40231C5C1EA34113431C1C052801DDB4
:40328000431F9C400F4B2340620704D00F221440042C00D004335A010ED49B015B0AC8B25B025B0AC005184310BD00200023F7E763025B0AC8B2F3E79F21024A091A1340F2
:4032C000EBE7C046FFFFFFFBF0B5454657464E4694464C000A03C90FE0B488460E1C1903470FC500480A6146490F01436046520A1743C0005A00640D520DDB0F8446984563
:4033000000D1A7E0A01A002800DC01E1002A3DD163460B4300D0D4E06B0700D188E00F232B40042B00D183E02A1DAA42AD4180236D427F191B043B404646151C002B00D1D9
:403340007CE0CC4B01349C4200D1FDE03A1CCA4BED081A405007640552020543120B640D002112030B0D1B056405120B1A436308C24CF60714401C43640064083443281C70
:40338000211C1CBC90469946A246F0BDB94B9C42C2D080231B041943382800DDECE01F2800DD21E120220E1C6346121A9640C340334366469640321C561EB24113430A1CAA
:4033C000C240EB1A9D42B6411D1CBA1A7642971B3B0200D497E07A02560A002E00D1B6E0301C00F053FE031C083B1F2B00DDB7E09E40371C28262A1C361AF240161C9D407D
:403400003E439C4200DDB2E01C1B621C1F2A00DDD8E01F23291C1C1B331CA540A340D1406C1EA541D64019430D43371C002473E780231B043B40464600D082E78D4BED0873
:4034400078070543FA089C4232D012036405120B640D85E7A31A002B00DC94E0002A3CD0844A944200D157E7802212041143382B00DC05E163461943481E81410022C8B210
:403480004019A8429B41051CD2195B42D7183B0239D5784B01349C4200D14CE10120764A6B083A4028401843D5070543570833E72B1C134348D080231B031A431203120B03
:4034C0004EE70138002878D16346EE1AB5429B417A1A5B42D71A351C7AE7021C0A4300D11AE7013B002B00D0F2E04019A8429B41CA195B42D718051CC9E7131C334300D17A
:4035000018E1171C351C46466B0700D007E795E700287AD1621C5205520D012A00DCFBE06246AA1A9542B6419146781A7242861A320200D493E06246551BAC458041CF1B27
:4035400040423E1A984648E70022002508E7281C00F09CFD2030031C083B1F2B00DC47E7283885402E1C00259C4200DC4CE7424AE41A1640371CCFE6634619434B1E9941AA
:403580000022CBB21DE7002B00D0F2E0601C43055B0D012B00DCA4E0364B984200D121E163465C19AC429B41CF195B42FA186408D50725435708041CAEE62E4B9C4200D04C
:4035C000EAE6A9E6211C331C1F39CB40191C202A00D182E03F231C1BA64035436E1EB54100270D4300248EE7031C0E1C203BDE40202874D040231B1A99400B1C624613435E
:40360000591E8B4100223343DBE6002C50D0194CA24200D1A8E08024240440422743382800DDD9E01F2800DD39E120243E1C241AA640B0462E1CA146C640444626434C46A0
:40364000A5406C1EA541C74035436046451BCF1BAC45894149427F1A141C9846B8E64B464D46334300D0B8E60026002700240025E4E6C046FF070000FFFF7FFFFFFF0F807E
:403680001F2B5BDC2022081CD21A9040814660469246D8404A4610438146524660469040021C501E8241484610430A1CDA40E7E63C1C2C4358D0C043002851D16046451BD3
:4036C000AC458041CF1B40423F1A141C98467FE68F4A944200D0CAE61EE600267DE700238CE73B1C2B43002C00D0BDE0002B00D1F5E063460B4300D10EE663465B19AB4298
:403700008041CA19404217183A0200D4FCE0814A1D1C17400134FFE53A1C2A43002C51D1002A00D085E062460A4303D00F1C65469846F1E50026002700257FE6181C0A1CE1
:403740002038C240202B00D1A7E04020C01A8140081C63461843411E8841104300228FE66B4CA24200D05AE70F1C6546141C9846D2E5002C3AD1381C284371D0DB43002B50
:4037800018D0634882426BD0382B00DD9DE01F2B00DDA7E020203C1CC01A8440A1462C1C8246DC404846044350468540681E8541DF402543654465459B417F185B42FF1846
:4037C000141C64E6002A19D162460A4377D00F1C654698464E4C9FE53D436F1EBD410027EDB232E7041C0027002527E64848824236D0802000045B420743C5E762460A4344
:4038000049D08024ED087807FA0824032843224209D0CE08264206D162464F07381CD20810439846321CD200470F1743C500384C72E562460A4300D16EE56246AE1AB54224
:403840009241781A5242821A100200D455E66246551BAC458041CA1B4042171A98465BE50F1C6546141C57E5002B34D063460B4311D08024ED087807FA08240328432242B9
:40388000D1D0CB082342CED162464F07381CD20810431A1CC7E71E4C3EE5002059E7041C3E1C203CE640341C20282BD04026301A87403D436F1EBD4100272543C5E680274E
:4038C0000026FF03124C0025B8E53D436F1EBD410027EDB26EE70F1C65460D4C1CE50F1C654619E51C1C381C203CE040041C202B0CD04020C31A9F403D436F1EBD410027B9
:40390000254357E70027D4E71D1CFCE50027F3E7FF070000FFFF7FFFF0B55F4656464D464446F0B4051C061C080387B099464F00030BCC0F92469B467F0D019467D06C4B57
:403940009F4236D080205B4640031843C0006B0F1843684B83469C4600239846EE00674400934B4649461D03C90F5B0052462D0B5B0D894600D16EE05D498B4264D0802081
:403980005C4940038C4600210543ED00500F0543D20063444846FF187B1C9A46009B604002900B430F2B00D9ACE053489B00C3589F465B461D4300D082E0082300930023B7
:4039C0009B46023300269846CBE7029B01934346022B59D1012400250026019B1C40444B00212D030A0D12052D0B1543434A1B0515401D436D00E4076D082543301C291CBC
:403A000007B03CBC90469946A246AB46F0BD2B434ED05B46002B00D185E1584600F036FB021C2823291C9B1A161C5846D940083EB0400B1CB54003439B462E1C0023304F9D
:403A40000093BF1A98468CE7514629432ED10025002202219EE75146294323D0002D00D154E1281C00F012FB031C28215046C91A1A1CC8405146083A914095400A1C054322
:403A80001F480021C31A85E7032B00D1C2E1012B00D06DE14446019B00251C40E4B2002300269DE700250022012173E7032171E70423009300239B4601330026984650E7D3
:403AC0000C230093093B98464BE7802500242D030026074B84E74B46AB46161C0193884675E7029BAB46161C019388466FE7C046FF07000001FCFFFFB4440000FFFF0F805E
:403B00000DFCFFFF330C3604360C9C46331C140C1204120C53439846634653439946634663430193331C41466343090C4B445B18994505D980204002814601994944019118
:403B4000190C039141460904090C1B045B1804932B0C9846331C2D04290C4B43604600934346654658435E43009B4D431B0C9946AE194E448446B54203D980235B029946B3
:403B8000CC44350C2B1C0398634484460593009B36041B041B0CF3189C446046039058460504060C280C84465043351C81466046654344434846000C8346724314195C446E
:403BC000A24203D98022520293465D44220CAD184A461204120C24044046A41862464A437143464360460096464670438046100C84468844E044414505D9802149028C46C9
:403C0000009961440091019803998446614499429B415B4299460598434684461204120C1B049B1863449C46AB4683429B4140460A19CC44A2428941E344CC45B6415C4695
:403C4000000C8046494276425B426418334398448C428941AB459B4149425B4219430D1C009B4544EE187602E50D2E43B346049B56021E43731E9E415B46D20D3243660290
:403C80001643DB010AD50123334076081E435B46DB071E435B465B089B465746634BFB18002B5ADD720709D00F223240042A05D0321DB242B6417642B344161C5A46D2016B
:403CC00006D55A465A4B1A4080239346DB00FB18584A934234DD0124029B00251C400026554B7DE680205B460003034208D0054206D105432D032D0B4C46161C4E4B6FE60B
:403D00005D4605432D032D0B4B4B69E6504600F0BDF9031C2033272B00DCA6E65546083885400022ACE6281C00F0B0F9021C2032272A00DC75E6083885400026AB467DE63B
:403D40005A46F608520716435A4601245502029A5B052D0B5B0D144042E6384DED1B382D0ADD0124029B00251C400026002337E6019B5746029391E71F2D25DC304B321CE1
:403D80009C466744BE405B46BB40371CEA407E1EB74113433B431E1C5B46EB401D1C730709D00F233340042B05D0331DB342B6417642AD191E1C2B0220D50124029B0025BF
:403DC0001C40002601230BE65A461E4BDB1BDA40131C202D1CD01C4A94465A466744BA40171C3E43721E96411E4307230025334007D00F2300253340042BD6D16B076D0290
:403E00002D0B0124F6081E43029B1C400023E7E50027E6E780255B4601242D031D43019B2D0323401C1C2D0B034BD9E5FF030000FFFFFFFEFE070000FF07000002FCFFFF40
:403E40001E040000E2FBFFFF3E04000038B5041E16D0C50F00D04442201C00F017F9174B1B1A0A2821DC021C211C153291400A1C0B21081AC4405B052403240B5B0D03E0F6
:403E800000250023002400220021101C24030A0D1205240B14430A4A1B0514401C436400ED0764082C43211C38BD0B3884405B052403240B5B0D0022E6E7C0461E04000084
:403EC000FFFF0F804200120E511C38B5C9B243025D0AC40F012915DDE02189008C466D071B0B62440021281C0D0D2D052B431C4D52052B40520813435B00E4075B082343BE
:403F0000191C38BD002A15D1002D1FD0281C00F0BDF80A281DDC0B232A1C1B1ADA40131C021C153295400F4A1B03121A52051B0B520DD7E7002D06D080221B0B1203134378
:403F40006D07094ACEE7084A0023CBE700220023C8E7031C0B3B9D402B1C0025E3E7C046FFFF0F8089030000FF07000070B50B034D00440F6D0D5B0A23436C1C6405C90F2C
:403F8000C200640D012C2ADD3B4C2C19FE2C1ADC002C35DD8001451EA841DB000343520F13435A0704D00F221A40042A00D004338022D2041A4027D00134FF2C03D09B013E
:403FC0005B0AE4B201E0FF2400235B02E4055B0A23435B00C9075B080B43181C70BD002D06D113430ED100245B025B0AE4B2ECE71A43E8D08020DB0080040343FF24D0E795
:4040000017340CDA05230024DB08FF2CECD1002B2DD08022D20313435B025B0AD5E78024164824042343401B1F280DDC144CA4466544AB401C1C131CAB405D1EAB41C24011
:40404000234313430024ACE71E1C0E4C641BE640341C20280DD00C4884466544AB401D1C2A43531E9A41131C2343002499E70023ABE70025F4E7C04680FCFFFF9E0300006C
:4040800082FCFFFF7E030000A2FCFFFF1C2101231B04984201D3000C10391B0A984201D3000A08391B09984201D30009043902A2105C40187047C04604030202010101017A
:4040C00000000000000000000E4B70B500251E1C0D4CE41AA410A54204D0AB00F35898470135F8E700F006FA084B00251E1C084CE41AA410A54204D0AB00F35898470135C5
:40410000F8E770BD00450000004500000045000008450000002310B5934203D0CC5CC4540133F9E710BD031C8218934202D019700133FAE77047000000000000FF000000F2
:40414000000000007E43090D0A7E41090D0A7E54120D0A7E55120D0A7E57120D0A7E56120D0A00007E42080D0A7E43090D0A7E4D0B0D0A7E53030D0A7E4C010D0A7E410153
:404180000D0A0000C201640090016400640050002C01640000300F40000400400F40000402000F4036300F401B310F4059320F402E330F400D400F400B410F4002600F405E
:4041C000810D830D405449FF4AFF4BFF4F01501852805A045B045D335F016040624064406540668068806A806C806E8082018E029201A202B001B402BE11C054C5ECC602D1
:40420000C807C9FFCAFFCBFFCD83CE03CF01D018D401D604D804DA04DB04DD33DF01E040E240E440E540E680E880EA80EC80EE80068007020C0217011E801F20428046808C
:4042400048024C024D044F0156805D045E805F0165016F0170028101C090C210C410D081D218D6D0D88002200410060408010A120F041303161F1C181E0320062211230102
:40428000240726082702301F3104322037034030410545104602480E49FF4AFF4BFF4DA04F0450185287580459045A045B045C215D115F01604062C06440654066C068C04D
:4042C0006AC06CC06EC09204980399019D01A201A602AA04B204B501B603B920BE04C040C106C5D1C702C817C9FFCAFFCBFFCDA0CF04D018D280D405D804D904DA04DB04EF
:40430000DC22DD22DF01E040E2C0E440E540E6C0E8C0EAC0ECC0EEC00620074409220D080F0210A81504170119441D081F0121202502260127022CA030A036013F404102A9
:404340004508482849014F8250885620574059456D046F05734077408F019F02B720C070C2AAC43ECAC0CC8CCE10D041D214D60BE240EA40538056026F4273087620798023
:404380008220D420D620DA80DCE0DE20E22021402310274887128E0295809E029F48A702B780C8F0010E100E00040000000400000004000000040000003400000607040376
:4043C00070000000030405060708090A0B0C0E0F101112131415161718191B1C1D1E1F2021222325262728292A2B2E2F3031323334350000EA2D0000B22D0000CE2D00006C
:40440000A62D0000CE2D0000122D0000CE2D0000A62D0000B22D0000B22D0000122D0000A62D0000502E0000502E0000502E0000D42D0000B22D0000B22D00009A2E0000D0
:40444000A42D00009A2E0000122D00009A2E0000A42D0000B22D0000B22D0000122D0000A42D0000502E0000502E0000502E00007E2E00003E30000036300000363000009D
:404480002E300000802F0000802F0000243000002E300000802F000024300000802F00002E300000822F0000822F0000822F0000C8300000043B0000E23A0000E23A0000FC
:4044C000D63A0000CA390000CA390000CA3A0000D63A0000CA390000CA3A0000CA390000D63A0000CE390000CE390000CE390000E43C0000F8B5C046F8BC08BC9E4670477D
:40450000A502000005130000F8B5C046F8BC08BC9E4670477D02000028450000C80000203800000088010000000000007E42000D0A0000000100000000000000FF0000008A
:404540000000010001FF00000000C05D80BB000030000000006CDC02040404000000000000000000000000000000000000000000000000000000000000000000000000005C
:4045800000000000000000000000000000000000000000000000000000000000000000000000000000000000000000000000000000000000000000000000000000000000FB
:4045C00000000000000000000000000000000000000000000000000000000000000000000000000000000000000000000000000000000000000000000000000000000000BB
:40460000000000000000000000000000000000000000000000000000000000000000000000000000000000000000000000000000000000000000000000000000000000007A
:40464000000000000000000000000000000000000000000000000000000000000000000000000000000000000000000000000000000000000000000000000000000000003A
:0200000490303A
:020000005D752C
:0200000490402A
:200000000000000000000000000000000000000000000000000000000000000000000000E0
:0200000490501A
:0C0000000002046311931101047A6F08E0
:0200000490600A
:0100000001FE
:00000001FF