:1000000002044B008F828E83E0540100000070F8E0
:100010002278FFE4F6D8FD0204A9BB010689828A92
:1000200083E0225002E722BBFE02E32289828A8318
:10003000E49322BB010689828A83F0225002F722D0
:10004000BBFE01F322C5F0F8A3E028F0C5F0F8E507
:1000500082158270021583E038F022EF2BFFEE3A12
:10006000FEED39FDEC38FC22E88FF0A4CC8BF0A437
:100070002CFCE98EF0A42CFC8AF0EDA42CFCEA8E7A
:10008000F0A4CDA8F08BF0A42DCC3825F0FDE98F9D
:10009000F0A42CCD35F0FCEB8EF0A4FEA9F0EB8F94
:1000A000F0A4CFC5F02ECD39FEE43CFCEAA42DCE61
:1000B00035F0FDE43CFC2275F008758200EF2FFF5F
:1000C000EE33FECD33CDCC33CCC58233C5829BED30
:1000D0009AEC99E58298400CF582EE9BFEED9AFD34
:1000E000EC99FC0FD5F0D6E4CEFBE4CDFAE4CCF9E4
:1000F000A88222B800C1B90059BA002DEC8BF08457
:10010000CFCECDFCE5F0CBF97818EF2FFFEE33FE24
:10011000ED33FDEC33FCEB33FB10D703994004EBDC
:1001200099FB0FD8E5E4F9FA227818EF2FFFEE33A8
:10013000FEED33FDEC33FCC933C910D7059BE99ABA
:100140004007EC9BFCE99AF90FD8E0E4C9FAE4CC4B
:10015000FB2275F010EF2FFFEE33FEED33FDCC33B5
:10016000CCC833C810D7079BEC9AE899400AED9B9E
:10017000FDEC9AFCE899F80FD5F0DAE4CDFBE4CC7D
:10018000FAE4C8F922EF4BFFEE4AFEED49FDEC48D8
:10019000FC22E8600FECC313FCED13FDEE13FEEF41
:1001A00013FFD8F122E8600FEFC333FFEE33FEED0B
:1001B00033FDEC33FCD8F122BB010789828A83022C
:1001C00001F25005E9F80202ABBBFE05E9F80202B4
:1001D000B789828A830202C3BB010789828A8302AC
:1001E000020A5005E9F80202D3BBFE05E9F8020253
:1001F000DF22E0FCA3E0FDA3E0FEA3E0FF22E0F8A5
:10020000A3E0F9A3E0FAA3E0FB22ECF0A3EDF0A356
:10021000EEF0A3EFF022E0FBA3E0FAA3E0F922EB7B
:10022000F0A3EAF0A3E9F022E493FB740193FA74DB
:100230000293F922D083D082F8E493701274019370
:10024000700DA3A393F8740193F5828883E473740B
:1002500002936860EFA3A3A380DFE50C2582F582FB
:10026000E50B3583F583B50B0485820C2210AF06B0
:1002700085820CF50B2285820CF50BD2AF22EC8E19
:10028000F0A4CCC5F0CCCDF8EFA4CEC5F02DFDE4A4
:100290003CFCE8A42EC8C5F03DFDE43CFCEFA4FF07
:1002A000E5F028FEE43DFDE43CFC22E6FC08E6FD2A
:1002B00008E6FE08E6FF22E2FC08E2FD08E2FE088E
:1002C000E2FF22E493FC740193FD740293FE740335
:1002D00093FF22ECF608EDF608EEF608EFF622ECB6
:1002E000F208EDF208EEF208EFF2227B007A46798E
:1002F000E8120799EF4405FD7B007A4679E812077A
:10030000A5750A00E50AC39409503AAF0AEF75F0E3
:1003100005A424BFF582E43407F583AF82AE838E53
:10032000088F09AE08AF098F828E83120228AE08AB
:10033000AF098F828E83740393FC740493FD1207BC
:100340005F050A80BF7B087A0079001206D37B0123
:100350007A507903120799EF4402FD7B017A5079B4
:10036000031207A57B017A507913120799EF440213
:10037000FD7B017A5079131207A57B087A00792852
:10038000C003C002C0017B007A517902900057126D
:10039000021FD001D002D0037F087E0012069F7B8F
:1003A000087A007930C003C002C0017B007A51791D
:1003B0001290005712021FD001D002D0037F087E96
:1003C0000012069F7B087A007938C003C002C00182
:1003D0007B007A51793290005712021FD001D0026F
:1003E000D0037F087E0012069F904322E0FFEF4477
:1003F00008FF904322EFF09046ECE0FFEFC3940536
:100400005006904689743AF090480074F1F0120555
:100410003890480074B1F01206697B007A4379A0E5
:10042000C003C002C0017B007A4379B0900057122C
:10043000021FD001D002D0037F0E7E0012069F90D3
:1004400043B0E0FFEF54FDFFEFF02275930078001A
:100450007583467582E8E04401F0009046ECE0F9CF
:100460009046FAE0FAB903225420B40012B8001AF8
:10047000EA900FFFF07401900FFEF09046F6F090B6
:100480000FFEE06005900FFFE0FA90480074C0F0A6
:1004900075810C90000078007910E4F0A3D8FCD9A5
:1004A000FAEA90004DF0020011750B0F750CFD1269
:1004B000061B1202EB0204F30207B1E493A3F8E473
:1004C00093A34003F68001F208DFF48029E493A3AC
:1004D000F85407240CC8C333C4540F4420C88340C5
:1004E00004F456800146F6DFE4800B010204081094
:1004F00020408090073BE47E019360BCA3FF543F03
:1005000030E509541FFEE493A360010ECF54C025CB
:10051000E060A840B8E493A3FAE493A3F8E493A3BB
:10052000C8C582C8CAC583CAF0A3C8C582C8CAC51F
:1005300083CADFE9DEE780BE9043007402F090409A
:10054000007408F09042007403F07B0C7A01790883
:100550001207999046A1EFF07B007A4279227D083C
:100560007C0012078A7B007A4279207D517C12122E
:10057000078A900056E4F07F197E007D007C009091
:10058000005212020A9000521201F2D3EF9400EED0
:100590009400404E900056E0FFEF640360449042A8
:1005A00025E0FFEF5401FF7E00900056E0FEEE25AF
:1005B000E0FEEE4FFFEF5403FF900056EFF07FE0B8
:1005C0007E017D007C001207009000521201F27B38
:1005D000FF7AFF79FF78FF12005B90005212020A47
:1005E00080A39000521201F2EF4E70057F031207B4
:1005F000787B007A4079047D007C0112078A904064
:10060000047407F0904006E4F09040087448F090BD
:100610004004E4F09040017402F022900052E4F0B3
:10062000900052E0FFEFD3941F503D900052E0FF46
:100630007E02EF8EF0A4FFAEF0EF2400FFEE344414
:10064000FEAA06A9077B01C003C002C0017BFF7A96
:100650000779BCAC02AD01D001D002D00312078CE7
:10066000900052E004F080B8227B0C7A0179CF121E
:100670000799900052EFF0900052E0FFEF5407FF0F
:1006800090586EEFF0900052E0FFEFC4540FFFEF70
:10069000540FFF90586FEFF09058767444F0227525
:1006A0008600EF4E6027EF60010E759300900057B3
:1006B000E0F595A3E0F585A3E0F5848B938A838923
:1006C00082E0A30586F0A31586DFF6DEF4E4F59359
:1006D000F59522ACEAADA08B938A838982E0F9601C
:1006E00017A3E0F5EAA3E0F5A0A3E060F4FAA3E025
:1006F000F8A3E0F2DAF8D9E98DA08CEAE4F59322C8
:10070000EC4D4E700D78FCEF24E950032840FD229B
:1007100000007BF178DA0000EF28FF78FFEE38FE6A
:10072000ED38FDEC38FC50E7EF2BFFEE38FEED38EE
:10073000FDEC38FC40F22205020304440049016E3E
:10074000360044004400005DC04100481844004E9B
:100750002EE0000043005A00000041005F0000EC62
:100760004D6011ED60010C8B938A838982E4F0A3C4
:10077000DDFCDCFA75930022900057EFF0900057F3
:10078000E0FF900057EFF080FE228B938A838982EE
:10079000EDF0A3ECF0759300228B938A838982E0BD
:1007A000759300FF228B938A838982EDF075930005
:1007B00022D2AF9044F474FDF080FE2280FE32001D
:1007C0005120001000514000300051C00010005175
:1007D000F0001001000010000114000800014000AA
:0C07E0000A00014C000200015000002043
:00000001FF
