:400000000010002011000000791200007912000010B501F039F9C04670B52D4C23688025ED022B432360302001F070FB294A2A4B1A601122294B1A601F32294B1A6001322C
:40004000284B1A601F3A284B1A600132274B1A600E32274B1A601232264B1A60133A264B1A601232254B1A60103A254B1A6082221206244B1A602560234A244B1A6024494C
:40008000244B19602449254B19602549254B1960254B26490B6026490B6026490B602649264B19602649274B1960274B1A60274A274B1A60274A284B1A602849092001F0C8
:4000C000BFFA092001F0B0FA0022254B1A6070BD00010B400600008004010B400C0202401C0202402002024024020240280202402C02024030020240340202403802024068
:400100003C02024008010B407FBB00800000024008000080400002400A0000808000024022000080040002402F000080440002408400024008000240AC03008048000240B3
:40014000BF1200808800024000010240F301008040010240DF0100C080010240891900000C020B4010B572B60122304B1A7000240FE02F486200131959000B0041188988D1
:400180001A5AC31858880004104301F06FF80134E4B2012CEDD926490C312648283001F03FF8254A254B1A60254A264B1A6099231B04254A13609821C903244A1160244AC7
:4001C0001360244A1360244A13607E22234B1A60163A234B1A6023490B782C3A934314221343DBB20B70204A117816230B43DBB213700B221D4B1A601D4A1E4B1A60022244
:400200001D4B1A601D4A1E4B1A60D0221D4B1A6008321D4B1A601D4A1D4B1A6006221D4B1A60FFF7F9FE01F015F810BD1C700F408840000008430000303000000000014008
:4002400009EE00000C00014000500F4008500F4010500F4020500F4030500F402000004000800F4001700F4000700F4000000440DA0C0C00080004400C00044049002000CE
:40028000080104400002044018020440810D0000080304400804044010B5064C2378002B07D1054B002B02D0044800E000BF0123237010BD60010020000000002C400000C2
:4002C000084B10B5002B03D00749084800E000BF07480368002B00D110BD064B002BFBD09847F9E700000000640100202C400000C00000200000000010B5002001F082FEF9
:4003000001F070FE002001F01FFE01F029FC01F01DFF01F069FC01F0F1F801F007F901F017FD01F045FD01F0D1FE01F0D1FC01F0D9FB01F0A9FF00F0C3FD10BD10B562B67E
:40034000FFF7DAFF02F00CF9074B0122DA7000229A70012000F010FC044800F055FA002000F0DAFDF8E7C0467C0100203040000010B582B000236A46D3716A4693713A4B04
:400380009B79012B36D1384C0023A37102F0BCF86B46DA1DD871238901339BB2238113789B070FD5304B5B89FD2B02D9FE222E4B5A812D4B5889013080B25881C0B200F0F5
:4003C0002DFD13E06B4607331B781B070ED5264B5B89012B02D80122234B5A81224B5889013880B25881C0B200F018FD1E4B987A00F014FD1C4B1B899BB2012B2BD9002267
:40040000194B1A816B4607331B785B070FD5164B9B89FD2B02D9FE32134B9A81124B9889013080B29881C0B200F05AFE13E06B4607331B78DB070ED50B4B9B89012B02D85E
:400440000122094B9A81084B9889013880B29881C0B200F045FE6B4607331B78DBB26A46937102B010BDC0467C01002010B50348C11C0630012201F009FF10BD30400000F0
:400480000048704730400000004870477C01002010B5002814D0122914D1002300240BE05900425C120212B2411849780A43944200DA14000133DBB2072BF1D9200002E055
:4004C000002000E0002010BD014B18787047C0468C0100200022014B1A7070478C01002010B5002809D00D2909D10A0001000548043003F089FD002002E0012000E001206E
:4005000010BDC0468C01002010B5012001F0A2FE0B4B5B8A1D2B03D80133094A53820EE0074C0123637001F029FE00236382A07900F02EFB201D0D22002103F06EFD10BDC8
:400540008C010020F0B557464E464546E0B488B0012001F0CDFB404D2A00143204230021002000F081FB2B7F5B00EB1814229B5E99466A46D380D3889A4600F0F7FA0400BD
:4005800080461622002102A803F047FD2E7FB21C324993009B185A5C02A80270CB185A7842709A78911CD87802AF785403321B79BB542035F3009B19590069181222B81C84
:4005C00003F022FD0134640053461F0A02AB1F5501344A461A554346012B07D1300000F039FB83B21B0A02AA9370D0701A4956228B5C0133DBB28B54022B03D9002156230A
:40060000154AD154144C257F122103A8FFF740FF6B00E318582298524346012B08D1012D06D103212000583000F070FB00F068FB094B1B7F032B01D100F0CEFF064C207FAC
:400640000130032102F0BAF9217708B01CBC90469946A246F0BDC0468C0100203840000010B5002803D0052901D100F07FFA012010BDC04610B500F079FA10BD10B501F01B
:400680004FFC002001F060FC01F078FA01F06CFD01F0B8FA00F042FF00F052FF01F066FB01F096FB01F020FD01F0B6FA01F0BEF910BDC046F0B585B006000D00002828D0A5
:4006C0000D2928D1174B1F78002F26D101221A700A000100684603F097FC41236A465370002301E00133DBB2042BFBD9B4780134E4B2200000F040FA01220A4B5A70A31CDF
:40070000F454B47029003000FFF7EAFE01F092FD04E0012702E0012700E00027380005B0F0BDC046EC01002070B504000D00160000F01CFA30184378237001222900200078
:4007400001F0A4FDF3786370691C601C012201F09DFD70BD10B5FFF789FE002010BDC04670B504001500002842D00C2942D1012A42D800F0FBF90200431EDBB2072B3DD878
:400780001F4B1B78002B02D000211D4B1970012A27D1002D06D00130205C002100F016FA00202CE0174B9B78002B0BD00130205C002100F00BFA01000500A01C082203F0F0
:4007C0002CFC0AE00130205C012100F0FFF901000500A01C082203F020FC0A4B9D7000200DE00130205C002100F0F0F9002006E0012004E0012002E0012000E0012070BDC2
:40080000C4000020EC01002010B5214B5B78012B17D0002B02D0022B24D038E01D4BDB78012B34D10A2000F04FFF00F09FF901282DD100F09BF9012829D10122144B5A7084
:4008400025E0144BDB78002B03D1124A1371104A5370FFF78DFDFFF737FE012817D1FFF739FE14E0FFF730FE012810D1FFF706FF00F0FEFF074B1B79012B06D10023054A77
:400880001371034A537000F013FFFFF723FE10BDC4000020EC01002010B501F079F9012001F030F900F062F9012812D1134BDB889BB2952B05D8114AD38801339BB2D380DE
:4008C0001AE001F0B3F80D4B0022DA800132DA7012E00A4BDB889BB2094A934205D8074AD38801339BB2D38006E001F09FF8034B0022DA800132DA7010BDC046EC01002000
:400900000F27000010B5FFF7BBFDC11C0122002001F0BCFC10BDC04670B56C4B5B7A012B3BD0002B02D0022B4CD0CEE0674B997A00290CD1DB7A9A00D318654A9B5C834286
:4009400005D1624B5A18107301319972BDE001291ED112E09A00D2185D4CA2185278904208D15A4AD37254182073013191720121517205E00133DBB200E00023052BE9D921
:40098000052B00D8A1E0514B00229A72DA729CE04E4B00229A72DA7297E04C4A937AD11808730133DBB29372D27A91008A1848498A1892780232934200DA86E00222434B0E
:4009C0005A7282E0414B997A0D00DA7A93009B183F4CE3189B789C1CA1420CD19400A4183B4E3419E478A04205D1384B5A1810730131997269E003339D4261D193009A18AE
:400A0000334B9A18137998425AD1304C6118087301F00CF80023E380E37001F063F8E37A002B08D1FFF726FE00220C2127480C30FFF796FE3EE0012B07D1FFF71BFE0D210D
:400A400022480C30FFF736FE34E0022B06D10D221E490C311F4803F0D7FA2BE0032B0DD1FFF708FEFFF710FD0400FFF709FD0100164A0C322000FFF757FE1BE0042B05D170
:400A8000052112480C30FFF7EBFD13E0052B09D1FFF7F0FD07210D480C30FFF75BFEFFF731FF07E0FFF7E6FD01220C2107480C30FFF756FE054B00229A725A72DA7204E02F
:400AC000024B00229A725A72DA7270BDEC010020584000009802002010B501F0FDF9C0B2FFF71AFF01F08AF90028F6D1024B1A68024B1A6010BDC046CC0F0740C00F0740A6
:400B00000148024B1860704798020020A802002070B500281FD004291FD8002309E05C00255E9C00104EA45FA418A54217DC0133DBB28B42F3D3002309E05C00255E9C00B3
:400B4000094EA45FA41AA5420BDB0133DBB28B42F3D3002006E0032004E0032002E0012000E0022070BDC04678400000014B187A7047C046C8000020431EDBB2072B03D89E
:400B8000024B1872002000E001207047C8000020431EDBB2072B03D8024B5872002000E001207047C800002010B5012001F066FB054B5B7BFF2B03D00133034A537301E049
:400BC00001F04EFB10BDC046C800002010B50400012938D81D4B1B78834201D01B4B187000290ED1002C07D0012001F00BFA200001F0AAF9200027E0002001F003FA200053
:400C000022E0124A53789278934217D00F4A1278934202D20E4A137001E00D4B1A700C4B1B78002B07D0012001F0ECF9084B187801F08AF902E0002001F0E4F9044B1878B2
:400C4000024B987000E0002010BDC046C800002005020020042803D88000024BC05E00E00020704778400000F8B507000D00160001283AD8002803D0022938D800240AE086
:400C8000002A36D0042B36D8002404E00134E4B2082000F031FD012000F05CFC002801D1042CF3D9052C28D8002F18D0042D04D1002001F0ADF900B220E0022D03D1042071
:400CC00000F06EFC1AE0280000F06AFC16E0200000F066FC03006200B052013401E000240023012CF3D9180008E0002006E0002004E0002002E0002000E00020F8BDC04616
:400D0000014B18797047C046C800002070B504000D00002879D0042979D83F4B1B7A012B77D13D4BDB78012B34D0002B04D0022B10D0032B4ED065E0374BFF221A711A7811
:400D40005A700022FFF7E4FE01285BD10222324BDA7057E0304B1B79002B02D0013B2E4A13712D4E307833795843FF2101F040FD7070002229002000FFF7CAFE002803D137
:400D80000322254BDA703DE002283BD10122224BDA7037E0204B1B79FF2B02D001331E4A13711D4E307833795843FF2101F020FD7070002229002000FFF7AAFE012803D187
:400DC0000222154BDA701DE000281BD10322124BDA7017E0104E307833795843FF2101F007FD7070002229002000FFF791FE012803D10222084BDA7004E0022802D101225D
:400E0000054BDA70044B587804E0002002E0002000E0002070BDC046C800002010B504000A4B18700A4B5B78984203D00021FFF7CDFE08E0984203D00021FFF7C7FE02E028
:400E40000121FFF7C3FE024B5C7010BDC80000200502002010B5012809D1184B1A683F3082431A601868042202431A6022E00A2809D1124B1868402202431A601A68042032
:400E800082431A6016E0002809D10C4B1A68403082431A601A683C3882431A600AE0032808D1064B1868402202431A601868042202431A60080001F055FA10BD00000440A0
:400EC00070B501F083FA01F071FA012001F02AFA002001F047FA0C4C0C4B2360FFF710FE0B4D2860FFF7CCFA2B6842785A802368FF225A80FF210020FFF7ACFF054801F0DD
:400F0000EFFA01F0B9FA70BDB002002008020020AC020020F9100000F0B583B00600694B1C684E23E35C002B00D0C3E0002801D020831EE01822A35E634A12685088834227
:400F400017D000B2208302F005F9051CA0605F4901F0B0FEA06065615D4901F0C5FF051CA08802F0F7F8291C01F02EFD02F0D0F820831823E25E63889A4200DB23831823D6
:400F8000E25EA3889A4200DC23831822A35EFE2B01DDFF2323831822A35E052B01DC05232383032000F0FCFA6082464B1C681223E05EC01060821822A35E181A07B2678313
:400FC000380002F0C7F8051C2062606A02F0F2FE404A414B02F032FC00900191380002F0A7FE009A019B02F0FDF802F037FF009060621C22A05E381A02F0ACF8071CA062B2
:401000000099281C01F0E0FC011C381C01F0DCFC02F07EF800B2A085FE2802DDFF23A38504E0FE3002DAFF235B42A3852C23E15E4B1D9BB20A2B0BD8FF210020FFF70AFFCF
:40104000052000F041FB01215423244AD1542BE0052917DD00205423204AD054C9B20130FFF7F8FE002E04D0FF210120FFF7F2FE1AE0144B1B682C21595EC9B20120FFF76E
:40108000E9FE11E04B1D0FDA00205423134AD054002E04D0FF210A30FFF7DCFE04E04942C9B20A20FFF7D6FE064B1B681A215A5E9A8303E0FF210020FFF7CCFE014B186852
:4010C00003B0F0BDB0020020AC02002000007F4300007042C3F5285C8FC2ED3F08020020014B1B6858807047AC02002010B5022000F056FA80B210BDF8B5012000F02AFA65
:4011000000280DD0444E37684A257C5DFFF7EEFF183464003C1960803268535D013353553D4B1B68598EF422FF32914251D9998E91424ED9D98E91424BD9198F914248D9F2
:40114000598F914245D9998F914242D9D98F91423FD9B43AFF3A995AF422FF32914238D9B23AFF3A995AF422FF32914231D9B03AFF3A995AF422FF3291422AD9AE3AFF3A58
:40118000995AF422FF32914223D9AC3AFF3A9A5AF423FF339A421CD9FF210020FFF75AFE1D4B1A6800214A23D15408E018335B00D318002159804A31535C013353544A23E9
:4011C000D35C0B2BF2D900214A23D15401310433D154114B1B684E229A5C012A0DD150215A5A013292B25A52F421FF318A4204D9002150229952023A99544A229A5C0B2ABC
:4012000002D900214A2299540122044B1A7001F075F901F0F5F8F8BDB002002082010020F0B50025002711E0BB00C658F3B2FF22964308E06A008A181478A4195278227003
:401240000135013BDBB2002BF4D10137072FEBD9F0BDC046024B034A1360034A13607047D800030000031A4040031A4010B50A00002102F0D2FE10BD10B502F099FE036809
:401280000C2B00D1FEE7FEE770B50F4E0F4D13E029686B68AC68002202E001C901C30432A242FAD1E868002202E0002102C304328242FAD11035013E002EE9D102F07EFEC3
:4012C000FFF73CF8FEE7C04601000000C444000010B500230AE0032B03D89A000949505800E009489900094A885001332F2BF2D9FEF738FF8022D205116801230B43136010
:4013000010BDC04600000000791200000000002010B503210E2000F0A5F951490E2000F08FF90F224F4B1A604F4B1B68002B01DA4E4900E04E494F4A13680B4313604E4A67
:401340004E4B1A604E4A4F4B1A6000234E4A13604E494F4A11604F494F4A11604F4A116880204002014311604D490A6802430A604C4A13604C4A136011224C4B1A600F3A3E
:401380004B4B1A604B490A684B4B1340012213430B60002461E0494AA3009958DC239B010B401219127D1343032C1CD8A2004448844662441360CB0707D53A490A680123CD
:4013C000A3401B041B0C13430B60A3003B4A9B589B0721D534490A680123A3401B041B0C13430B6018E08022D2051343354A1360A300324A9B58DB0704D52C4A116820239B
:401400000B431360A3002D4A9B589B0704D5274A116840230B431360A300284A9B589A0502D58020400001E080204001DB0504D463000021244A995203E0420863002249A5
:401440005A5222494843224B9C46604401F0D0F900B2A2001F4BD0500134042C9BD910BDED15000020001A4080031A40702010117020001100001A40A400008004001A4012
:401480000000FF0F18001A401C001A400200020010001A400200FF0314001A4000031A4040031A4028021A4038021A4018021A40000F1A4030001A40FFFFFFDF504300006E
:4014C00080001A4080021A40C80200201027000088130000B402002010B5074B1B68002B08DB054A1368802109060B4313600A2000F002F910BDC04600001A4010B5064B69
:401500001B78002B04D1FFF703FF0122024B1A70FFF7E2FF10BDC04664020020024A13685B005B081360704700001A40034A1368802149020B4313607047C04604001A405D
:40154000024A1168024B0B401360704704001A40FFFFFEFF010083070CD0104B1B680120184001D18B07F8D4002804D001220B4B1A6000E000200C230B420DD0074B1A6881
:4015800010231A401043034001D10A07F6D4002B02D01022014B1A607047C04610021A4010B50400042802D9002000F047F8032C07D8A400064B9C46644420680004000CF9
:4015C00003E0044B18680004000C00B210BDC04680011A4090021A40034A1368802109060B4313607047C04680021A40014B1A681A60704710021A4010B5040000F0CAFF1E
:40160000E304E022920313401900054C2368054A1A400B001343236000F0C0FF10BDC04600010B40FFFFC7FF1F2318401E3B8340014A13607047C04600E100E001BE70475D
:4016400070B504000D001F2802D90020FFF7F6FF1034A40080239B059C4664442068256070BDC04670B504000E00032902D90020FFF7E4FF1F2C02D90020FFF7DFFF032599
:401680002540ED00063500F085FFA408A400074B9C46644421680323AB4099430B003100A9401943216000F079FF70BD00E400E0034A13681B041B0C02490B43136070475B
:4016C0000CED00E00400FA0510B5040006E0084B586800F055FF074B9C46644480231B029C42F4D8024B9868604300F049FF10BDE00000200080FFFF10B5034B1B7B58430B
:4017000000F03EFF10BDC046E0000020F0B557464E46C0B483B0040000F03CFF0190E71E2D2F74D83F4B1B78DBB29C4208D83E4B1B78DBB29A463D4B1B78DBB2994631E036
:401740003B4B1B78DBB29C4208D83A4B1B78DBB29A46394B1B78DBB2994623E0374B1B78DBB29C4208D8364B1B78DBB29A46354B1B78DBB2994615E0334B1B78DBB29C4229
:4017800008D8324B1B78DBB29A46314B1B78DBB2994607E02F4B1B78DBB29A462E4B1B78DBB299462D4BDE5D2F2E09D92A2C07D919222B4B1A60052000F0E2FE192503E00F
:4017C000274B1D683F231D40B54206D9234BDA5D234B1A60052000F0D3FE1F4B9C4664442378DBB21F4A13601F4B52461A601F4B4A461A600520FFF77FFFB5420AD2174B34
:40180000DA5D174B1A60052000F0BAFE02E00020FFF714FF019800F0C1FE03B00CBC91469A46F0BDC0F1FF0FC1F1FF0FC2F1FF0FC3F1FF0FC4F1FF0FC5F1FF0FC6F1FF0F48
:40184000C7F1FF0FC8F1FF0FC9F1FF0FCAF1FF0FCBF1FF0FCCF1FF0FCDF1FF0F6C4300002CFF0B4028FF0B401CFF0B4020FF0B40F0B583B000F08EFE0400134A13685B00F7
:401880005B0813608025ED052B68022633432B600E4B1B889BB20E4A13600E4A116804230B4313600C4F3B6801930220FFF7A4FE30BF019B3B602B68B3432B60200000F09C
:4018C0006DFE03B0F0BDC04600000B4052F1FF0F0C000B4010ED00E000010B40034B1868C0231B02184000D00120704700010B4010B500F04FFE044A1368C02109020B43DC
:40190000136000F04BFE10BD00010B4010B500F041FE08490A68084B1A408024E40122430A600A6813408022120213430B6000F035FE10BD00010B40FF3FFFFF70B5050048
:4019400000F028FE0400FFF7C9FF002803D0FFF7DDFF012100E0002108482840084A1568084B2B40184310601368012901D1FFF7BFFF200000F012FE70BDC0460404040005
:4019800010020B40FBFBFBFF10B5244B1B685B0715D5234B1B685B070ED5224BD969042001401F4C22688A432260DA698243DA611B69002B00D098470420FFF7BFFF174B6E
:4019C0001B685B0518D5164B1B685B0510D5154BD9698022D2001140114802688A430260D969114A0A40DA615B69002B00D098478020C000FFF7A2FF084B1B685B030CD5C9
:401A0000074B1B685B0304D5064B9B69002B00D098478020C002FFF791FF10BD10020B40F400002068020020FFFBFFFF10B500F0B1FD044A136808218B43136000F0AEFD92
:401A400010BDC046000005400004000C014B18607047C046C80105400004000C014B18607047C046D401054070B504000D0000F091FDAC40024B1C6000F090FD70BDC046EB
:401A80000800054010B500F085FD064A116808230B43136000F082FD18210820FFF7E4FF10BDC04600000540014B18607047C046F801054010B580229204084B1A600C2275
:401AC000074B1A600120FFF7EFFFFA208000FFF7C3FF0020FFF7B8FF10BDC046C0010540E401054010B5064B1B78002B04D1FFF7E1FF0122024B1A70FFF7C4FF10BDC046EE
:401B000088020020014B18607047C046F001054010B5FEF7C1FE10BD014B98647047C0460000002010B5040000F034FD044A1168044B0B40A4051C43146000F02FFD10BD29
:401B400000E400E0FFFF3FFF0422014B1A60704700E100E00422014B1A60704780E100E010B5FFF7F7FF0448FFF7D6FF0320FFF7D9FFFFF7E9FF10BD111B000010B5FFF7D2
:401B8000E9FF0248FFF7C8FF10BDC046791200000422014B1A60704780E200E010B5FEF7D1FC10BD014B18657047C0460000002010B5040000F0EEFC044A1368C0218B43DE
:401BC000A4011C43146000F0E9FC10BD04E400E01022014B1A60704700E100E01022014B1A60704780E100E010B5FFF7F7FF0448FFF7D8FF0320FFF7DBFFFFF7E9FF10BD3B
:401C00009D1B000010B5FFF7E9FF0248FFF7CAFF10BDC0467912000010B500F0BBFC044A136804218B43136000F0B8FC10BDC046000005400004000C014B18607047C046FA
:401C4000880105400004000C014B18607047C0469401054070B504000D0000F09BFCAC40024B1C6000F09AFC70BDC0460800054010B500F08FFC064A116804230B431360C2
:401C800000F08CFC18210420FFF7E4FF10BDC04600000540014B18607047C046B801054010B580229204084B1A600C22074B1A600120FFF7EFFF96204000FFF7C3FF002048
:401CC000FFF7B8FF10BDC04680010540A401054010B5064B1B78002B04D1FFF7E1FF0122024B1A70FFF7C4FF10BDC04689020020014B18607047C046B001054010B5FEF7D3
:401D0000EBFE10BD014BD8667047C0460000002010B5040000F03EFC044A13689B009B08A4071C43146000F039FC10BD08E400E080221201014B1A607047C04600E100E057
:401D400080221201014B1A607047C04680E100E010B5FFF7F5FF0448FFF7D4FF0320FFF7D7FFFFF7E5FF10BDFD1C000010B5FFF7E7FF0248FFF7C6FF10BDC0467912000073
:401D800010B500F093F810BD10B500F099F810BD10B500F03BF810BD10B5044A1368802109060B431360FFF7EBFF10BD0000074010B5064B1B78002B04D1FFF7E9FF0122B1
:401DC000024B1A70FFF7E8FF10BDC0468A02002010B5FFF7D9FF044A13685B005B0813600022024B1A6010BD00000740880F0740014B18687047C04640030740024B1B6865
:401E00000F2018407047C04608030740144A154B1A600023144A13601449154A11601549154A1160072215490A6015490B6001201449086014490A60144A1360144A13607C
:401E4000144A1360144A1360144A13600421144A1160144A13601268134B1A807047C0460B000002000007404000074001000A004800074007000080000307400403074067
:401E800010030740440007400002074004020740880E0740C80E0740480F0740080F0740C80F0740880F07408C020020024B1A88024B1A607047C0468C020020880F074008
:401EC000034B1A68E423DB001340024A13807047880F07408C02002010B5FFF78FFF002802D0FFF785FF01E0064B1868064A1368D821890011601B02D82292021340184335
:401F000010BDC04640030740C00F0740034A117880235B420B43DBB21370704770000F40024A11787F230B401370704770000F40014B18707047C04600000F40014B1870D5
:401F40007047C04640000F40014B18707047C04620000F40014B18707047C04680000F40014B1878C0B2704760000F40014B1878C0B2704750000F4010B501E0FFF7F6FFCC
:401F8000FFF7EEFFC306F9D410BDC04610B513490B783F2293430A221343DBB20B70104C227801231343DBB22370FF20FFF7C0FFFF20FFF7C3FF0020FFF7C6FF0020FFF744
:401FC000C9FF00F0E7FA227810231343DBB2237000F0E4FAFFF7D0FF10BDC04670000F4090000F4010B5064B1B78002B04D1FFF7CDFF0122024B1A70FFF788FF10BDC0464C
:402000008E020020014B18707047C04671000F4010B5184B1B881BB2174A148824B244439B02E418154B9C420CDDC823DB031B1BDA170F201040C0180011C000552100F06F
:40204000D7FB0BE0A0239B03E318DA170F201040C0180011C000372100F0CAFB041980231B029C466444E0170004000C0419201410BDC04666F1FF0F64F1FF0FFFFF0E00BB
:4020800010B5FEF791FD10BD014BD8647047C0460000002010B5040000F07CFA044A13689B009B08A4071C43146000F077FA10BD00E400E00822014B1A60704700E100E098
:4020C0000822014B1A60704780E100E010B5FFF7F7FF0448FFF7D8FF0320FFF7DBFFFFF7E9FF10BD8120000010B5FFF7E9FF0248FFF7CAFF10BDC0467912000010B5FEF72B
:4021000003FA10BD014B58647047C0460000002010B5040000F03EFA044A1168044B0B40A4031C43146000F039FA10BD00E400E0FF3FFFFF0222014B1A60704700E100E0D2
:402140000222014B1A60704780E100E010B5FFF7F7FF0448FFF7D6FF0320FFF7D9FFFFF7E9FF10BDFD20000010B5FFF7E9FF0248FFF7C8FF10BDC0467912000010B500F03F
:4021800009FA044A136802218B43136000F006FA10BDC046000005400004000C014B18607047C046480105400004000C014B18607047C0465401054070B504000D0000F077
:4021C000E9F9AC40024B1C6000F0E8F970BDC0460800054010B500F0DDF9064A116802230B43136000F0DAF918210220FFF7E4FF10BDC04600000540014B18607047C0462D
:402200007801054010B580229204084B1A600C22074B1A600120FFF7EFFFFA20C000FFF7C3FF0020FFF7B8FF10BDC046400105406401054010B5064B1B78002B04D1FFF716
:40224000E1FF0122024B1A70FFF7C4FF10BDC0468F020020014B18607047C0467001054010B500F097F9044A136801218B43136000F094F910BDC04600000540014B186046
:402280007047C046300105407047C046F0B54F464646C0B4A1B0804617000E008A1880231B029A4229D8CC0BC909FF230B40994624024C44E4010020002519E0B44207D3DB
:4022C000BD4205D24246525D6946CA54013502E022786946CA540134013300E000237F2BECD96946484600F071F901239C46E144BD4203D20028F1D000E00120012801D927
:402300000120404221B00CBC90469946F0BDC046034A117880235B420B43DBB21370704772000F4010B5030007201840DB0038221340054A11783F24A143117011781843BA
:402340000843107010BDC04672000F40014B18707047C04601000F40014B18707047C04641000F40014B18707047C04621000F4010B50C490B783F2293430D221343DBB215
:402380000B70094A117801230B43DBB21370FF20FFF7DCFFFF20FFF7DFFF8020FFF7E2FF10BDC04672000F4091000F4010B5064B1B78002B04D1FFF7DBFF0122024B1A7003
:4023C000FFF7A6FF10BDC04690020020034A1368802109060B4313607047C04640000240034A117880235B420B43DBB21370704773000F40014B18707047C04683000F40F5
:40240000014B1878C0B2704763000F40014B18707047C04623000F40014B1878C0B2704743000F40014B18707047C04603000F4010B501E0FFF7F0FFFFF7E2FF0307F9D42F
:4024400010BDC04610B53120FFF7E0FF3120FFF7E9FF00F09FF8074A117810230B43DBB2137000F09BF8FFF7E3FF0120FFF7C2FF10BDC04693000F4010B5064B1B78002BC1
:4024800004D1FFF7DFFF0122024B1A70FFF7A8FF10BDC04691020020014B98657047C0460000002010B5040000F074F8044A1168044B0B40A4051C43146000F06FF810BD0A
:4024C00004E400E0FFFF3FFF4022014B1A60704700E100E04022014B1A60704780E100E010B50400FFF7F6FF2000FFF7D5FF0320FFF7D8FFFFF7E8FF10BDC0464022014B2C
:402500001A60704780E200E0014B1878C0B2704762000F407047C046014B58657047C0460000002010B5040000F034F8044A1168044B0B40A4031C43146000F02FF810BD2B
:4025400004E400E0FF3FFFFF2022014B1A60704700E100E02022014B1A60704780E100E010B5FFF7F7FF0448FFF7D6FF0320FFF7D9FFFFF7E9FF10BD152500000000000039
:402580000230800804D0C0460138FDD1C046C046C0467047EFF3108072B6704780F310887047C046024B1A68024B1A600020704708010B4094020020024B1A68024B1A6091
:4025C000002070479402002008010B40F0B5474680B4A6B00500002325932493FF2800D9EFE0002900D1ECE0802204A801F00CFD022300200021002408E09A0002AE925923
:40260000002A02D0891810431C000133212BF4D9002903D1002803D1002602E0002600E00126002E06D0A30002AA9F58002202A95A5000E00027664B02937F230393654B1D
:4026400002AA1A606449654A1160C0461B681B0F1B07F0221206934204D15E4B1B68FF2213400DE05B4B1B681B0F1B07A0221206934204D0574B1B68FF22134000E000239D
:402680002593259B002B00D09DE0FFF783FF0190FFF788FF2490259B002B25D1504A029202992A040A4302924A4A02A911604D484A490860C0461268120F1207F02109061D
:4026C0008A4204D1434B1B68FF2213400BE0414A1268120F1207A02109068A4203D03D4B1B68FF2213402593259B9846002B59D1002E57D08022002104A801F08EFCA4000E
:4027000002ABE750324B02937F230393314B02AA1A603149314A1160C0461B681B0F1B07F0221206934205D12A4B1B68FF221A4090460CE0274B1B681B0F1B07A022120669
:40274000934204D0234B1B68FF221A40904643462593259B002B25D1234A0292029A2D04154302951B4A02A9116020481B490860C0461268120F1207F02109068A4204D15F
:40278000144B1B68FF2213400BE0124A1268120F1207A02109068A4203D00E4B1B68FF2213402593249B002B07D1FFF705FF2490249B002B01D0249B25930198FFF7EEFE34
:4027C00001E004232593259826B004BC9046F0BDB6D70000080000400400008004000040B6D8000005000080B6D900000600008003460B437FD4002243088B4274D3030907
:402800008B425FD3030A8B4244D3030B8B4228D3030C8B420DD3FF22090212BA030C8B4202D31212090265D0030B8B4219D300E0090AC30B8B4201D3CB03C01A5241830B17
:402840008B4201D38B03C01A5241430B8B4201D34B03C01A5241030B8B4201D30B03C01A5241C30A8B4201D3CB02C01A5241830A8B4201D38B02C01A5241430A8B4201D32A
:402880004B02C01A5241030A8B4201D30B02C01A5241CDD2C3098B4201D3CB01C01A524183098B4201D38B01C01A524143098B4201D34B01C01A524103098B4201D30B016C
:4028C000C01A5241C3088B4201D3CB00C01A524183088B4201D38B00C01A524143088B4201D34B00C01A5241411A00D201465241104670475DE0CA0F00D04942031000D394
:402900004042534000229C4603098B422DD3030A8B4212D3FC22890112BA030A8B420CD3890192118B4208D3890192118B4204D389013AD0921100E08909C3098B4201D3FD
:40294000CB01C01A524183098B4201D38B01C01A524143098B4201D34B01C01A524103098B4201D30B01C01A5241C3088B4201D3CB00C01A524183088B4201D38B00C01AF7
:402980005241D9D243088B4201D34B00C01A5241411A00D20146634652415B10104601D34042002B00D54942704763465B1000D3404201B5002000F005F802BD0029F8D050
:4029C00016E770477047C046F8B54A02430244004E00C50F240E28009B09360EC90F92098D4259D0A01B002800DC8DE0002E1AD1002A00D079E05A0704D00F221A40042A8F
:402A000000D004335A0138D50134FF2C00D189E028009B015B0AE4B25B02E4055B0A2343C0071843F8BDFF2CE5D08021C9040A431B2800DD89E016002021C640081A824081
:402A4000511E8A4132439B1A5A0114D59B019E09300001F08FFA05388640844265DC041B330020200134E340041BA640721E964100243343BFE75A07BFD1DF082800FF2CF6
:402A80002FD1002F00D187E08022D20313003B435B025B0AFF24BFE7A11B002949DD002E29D0FF2CA7D08026F60432431B2900DD8DE017002026CF40711A8A40511E8A41AA
:402AC0003A439B185A01D6D50134FF2C64D0012276491A405B080B4013438CE7031ECAD100207B025B0AE4B296E701380028AAD0FF2C9DD17FE7002A00D17CE701390029ED
:402B0000DFD0FF2CD2D176E7002820D1601CC0B2012853DD80279E1AFF0437402FD0D61A0D0095E72800002376E7614B241A334061E700294DD1611CCEB2012E2FDDFF2916
:402B40002AD09B185B080C0055E701227BE7002C1BD1002B5BD0C04300280CD0FF2E7ED01B2800DD92E01D002024C540201A8340581E83412B43D31A34000D0064E7002E44
:402B800000D065E700200024ABE7FF2E67D08024E40440422343E3E7FF2400233CE7002C61D1002B7ED0002A00D124E79B185A0100D460E73E4A0C0013401CE7002C1ED10D
:402BC000002B2FD1002A66D013000D0013E7012277E7002C1FD1002B5AD0C94300290BD0FF2E50D01B295FDC1F002024CF40611A8B40591E8B413B439B18340062E7002B8E
:402C00001CD1002A4AD013000D00FF24F3E6130034000D00EFE6FF2E35D08024E40449422343DFE7002A00D1E5E68027981AFF04074000D152E7D31A0D00DCE6FF24002A2D
:402C400000D1D8E68020DB08C003034204D0D208024201D113000D00DB00FF24CBE61300FF240D00C7E6002B0DD0FF24002A00D1C1E68021DB08C9030B42EDD0D2080A426A
:402C8000EAD11300E8E71300FF24B4E6012372E713003400AFE60027002022E780270020FF03F1E61300A6E60123A5E7FFFFFF7DFFFFFFFBF0B5564644465F464D46F0B4F6
:402CC00044024600C70F83B08846650A360EBA463DD0FF2E22D00023EC00802599469B46ED0425437F3E43465C025800DB0F640A000E984636D0FF2830D080230021E400B0
:402D0000DB041C437F38301A0190484642460843724E800030587A4013008746002D44D108239946063B9B46DDE70122FF2000241A406402C305640AD2071C4314432000C3
:402D400003B03CBC90469946A246AB46F0BD002D20D104239946033B9B46C4E7002C17D1022102E0002C0AD10121321A01924A4643460A435A48920082587B409746200032
:402D800001F0F8F8431F76309C4040420021BAE70321B8E7280001F0EDF8431F9D4000237630464299469B469DE70C239946093B9B4698E780240022E403FF20B9E7002433
:402DC000C2468B465A465346022AAED0032A7DD0012A31D1012200201A400024A9E70122101A1B2856DD1A4000200024A1E78023DB031D424BD18023DB032B435C02640A7F
:402E00003A00FF2095E76D016001854230D2019A0024013A01921B220127290064006D00002901DBA84201D82D1A3C43013A002AF3D16A1E95412C4301987F300028CEDD9A
:402E4000620704D00F222240042A00D00434220103D5244A019814408030FE2800DD64E70122A401640AC0B21A4062E72C00A9E72D1A1A220124CFE76B02BCD500248023CE
:402E8000DB031C436402640A4246FF2051E71C42B3D1F4E721002022C140101A8440621E94410C43620704D00F222240042A00D00434620104D5012201201A40002438E74C
:402EC0000122A401640A1A40002032E78023DB031C436402640A5246FF202AE79C430000DC430000FFFFFFF7F0B557464E4645464300E0B446028846760A1F0EC40F002F9E
:402F000047D0FF2F25D0002380259A469946F600ED042E437F3F434642465D02D20F5B006D0A1B0E904640D0FF2B39D080220020ED00D20415437F3BFB1842465746591C11
:402F400062408C4607430F2F5CD86F49BF00C9598F46002E45D108239A46063B9946DAE7424602282DD0032800D1C3E0012800D0A2E0002500260240D4B27602ED05760ABD
:402F80002E43E407264330001CBC90469946A246F0BD002E1AD104239A46033B9946BAE72A00511E8A41901CC6E70120002DC3D0280000F0DFFF431F76309D4043420020FE
:402FC000BAE70124FF2514400026D6E7300000F0D1FF431F9E400023763047429A46994699E70C239A46093B994694E780260024F603FF25C1E735004846B2E73500220000
:403000004846AEE72904090C0800370C3604360C2C0C7943704367437443060C64183619B14203D980214902884647440004000C310409188D01681E8541890E2943350CE7
:40304000ED19AD010D43290104D5012369081D4063460D4319007F31002925DD680704D00F202840042800D00435280103D5274980330D401900FE29A3DC0124AD016E0AE0
:403080001440CDB279E78020C003064207D0054205D128434602760A4446FF256DE706437602760AFF2568E70124611A1B2905DD14400025002660E76346CBE72E002023DD
:4030C000CE40591A8D406B1E9D412E43730704D00F233340042B00D00436730104D5012401251440002648E70124B601760A1440002542E780260124F6032E437602760A12
:403100001440FF2539E7C0461C440000FFFFFFF74302590A4300C20F1B0E00207E2B0EDD9D2B0DDC802000040143952B0BDC9620C31AD9400B005842002A00D118007047A9
:40314000034BD018FBE7963B99400B00F3E7C046FFFFFF7F70B5002830D0C317C5185D40C40F280000F006FF9E231B1A962B0DDC9622D21A95406A02520AD8B25202C00511
:40318000520AE40702432243100070BD992B19DC9922D21A9540124A2A40690704D00F210D40042D00D00432510103D50C4B1A409F231B1A9201520AD8B2DFE70024002099
:4031C0000022DBE705222E00121AB921D6402A00C91A8A40551EAA4135001543DBE7C046FFFFFFFBF8B556465F464D464446F0B40F00FD0FAA4609037C002E005F00450FD5
:40320000490A7F0D2943C5001803BC46400A570F640DDB0F3843D2009A4500D1AAE06646A61B002E00DCFFE06346002B39D10300134300D0D9E06B0709D00F232B40042BA2
:4032400005D02B1DAB42AD416D4249191D000B0200D482E0CA4B01349C4200D1FEE00A005646C84BED081A405007640552020543120B640D002112030B0D1B056405120B28
:403280001A436308C04CF60714401C43640064083443280021003CBC90469946A246AB46F8BDB74B9C42C6D080231B041843382E00DDEBE01F2E00DD1EE120239B1B9C461A
:4032C00003006746BB40984613004746F3403B436746BA40571EBA4113430200F240EB1A9D42B6411D008A1A7642911B0B0231D54A02560A002E00D1B4E0300000F03AFEA9
:403300000300083B1F2B00DDB5E020222900D21AD1409E400A009D4032439C4200DDB1E01C1B631C1F2B00DDD5E0202114002800C91A8C40D8408D400443DA40681E85414D
:4033400011002543002476E74146314300D134E2310045466B0700D06FE756464807ED08C9080543864B9C4235D00A036405120B640D7FE76346E31A9B46002B00DC8BE00D
:403380006746002F3CD07E4FBC4200D153E780273F0438435B46382B00DCF7E00243501E82410020D2B253194218AB4289411D00494289180B02CDD5714B01349C4200D104
:4033C0003DE101206F4A6B080A4028401843D507054351082FE72B000B4300D1CBE180231B030B431A03120B44E7013E002E6DD1AE1AB5429B41091A5B42C91A350075E7DE
:403400000700174300D116E701235B429C46E3445B46002B00D0E0E0AA18AA429B4109185B4259181500C5E7002E75D1661C7605760D012E00DCF3E0AE1AB0464545BF41A3
:403440000E1A7F42F61B370200D48FE0551BAA42B641411A76428E1B9A464BE756460022002507E7280000F085FD20300300083B1F2B00DC49E72A002838824000259C420F
:4034800000DC4DE73F49E41A1140D4E60243501E8241D3B2002222E7002B00D0F3E0631C9C465B055B0D012B00DC9FE0344B9C4500D1C3E0AA180918AA4280414042411888
:4034C000CD075208154349086446B4E62C4B9C4200D0ECE6AFE611001F3CE1400C00202B00D17FE04021CB1A9A4015436A1E95410021254300242DE733000700203BDF40C6
:403500003B00202E70D04027BE1BB0400243501E824113430022E2E6002C4FD0184CA44500D1ABE08024240476422143382E00DDDFE01F2E00DD43E12027BC1BA1460C009F
:403540004F46BC40A0462C004746F4403C434F46BD406F1EBD41F1402C43151BAA429241411A5242891A64469A46BFE641464546314300D0BEE6002600240025F2E6C046B4
:40358000FF070000FFFF7FFFFFFF0F801F2B59DC2027FF1ABC46070063469F405B46B9461700DF40B8464F4643461F4363469A40531E9A415B463A43D840F4E60C002C43DE
:4035C0005CD0F643002E55D1551BAA42A441411A6442091B9A46644688E6964FBC4200D0D8E628E6002280E700208FE70B002B43002C00D0C2E0002B00D101E103001343C8
:4036000000D118E6AB18AB42B6410918764271180A0200D409E1884A1D00114064460AE6002C5BD10E002E4300D08AE00100114300D1C2E0010015009A46FCE56446002193
:4036400000258FE620235B429C46DC4463460700DF405B46BC46202B00D1ACE040235F46DB1B98400243501E8241634613431A00002098E66F4CA44500D057E701001500E9
:4036800064469A46D7E5002C39D10C002C436ED0DB43002B1AD0674CA44568D0382B00DDA4E01F2B00DDAEE020240F00E41AA740B9462F00DF40B846A3464F464446274360
:4036C0005C46A5406C1EA541D9403D43AD1895429B4109185B42591864466BE60C002C4315D1010011437BD0010015009A46514CA1E50D43691E8D410021ECB22DE74D4C6D
:40370000A44534D0802424045B422143C6E7040014434ED0ED084C072C438025C9082D03294208D0C6082E4205D1D208410711430C009A463100620FC900E50011433D4C66
:4037400079E50600164300D175E5AE1AB0464545BF410E1A7F42F61B370200D4F4E5551BAA42B641411A7642891B9A4663E50100150064465FE5002200257BE5002B3BD026
:403780000300134315D0ED084B072B438025C9082D03294207D0C4082C4204D141070B002100D2081343C9005A0F1143DD00214C41E5204C3FE5002054E700260025D1E599
:4037C00034000F00203CE7403C00202E2BD04027BE1BB1400D43691E8D4100212C43BCE6802100260903134C0025BBE50D43691E8D410021EDB269E7010015000D4C1AE55C
:403800000100150017E51C000F00203CE7403C00202B0CD04027FB1A99400D43691E8D410021254352E70021D4E71D0092E50021F3E7C046FF070000FFFF7FFFF0B55F466C
:4038400056464D464446F0B40D0399464E002B0B87B00700924680469B46760DCC0F002E69D06D4B9E4235D05B468022DD001204430F13432B439B46C3009846674B0027B2
:403880009C460023664401934A4615035000D20F53462D0B400D914600D176E05E4A90426CD080225B0F120413435C4AED0094461D4353460022DB00604449463618701C32
:4038C0006140029017430F2F00D9AFE05448BF00C759BF465B461F4300D088E000239B469846023308270193CEE74946022A6AD0032A00D109E2012A00D0BBE11140002263
:40390000002300259046CCB200212D030A0D12052D0B1543434A1B0515401D436D00E4076D0825434046290007B03CBC90469946A246AB46F0BD034352D05B46002B00D1A7
:403940008AE1584600F016FB03000B3B1C2B00DD7BE11D22D31A3A0001005D46DA4008398D4013008F402B439B46B8462E4B00279C46002360444642019385E752462A433D
:403980002CD100250023022297E752462A4321D0002D00D154E1280000F0ECFA03000B3B1C2B00DD46E11D21CB1A51460200D9405346083A954093400D431B4A94466044DA
:4039C0004042002279E7012400220C40124B0025904699E70025002301226EE703226CE700239B4698460133042701934CE703230C27019348E700238025984600242D0302
:403A0000054B81E75D464346019A6FE75D4643462100019A6AE7C046FF07000001FCFFFF5C440000FFFF0F80F30300004246120C91461A0C9446424617044A461B041B0C58
:403A40005A43604690464A4642431000039262461C003F0C7A437C4342440192220C9246019A5244904506D98246802040028046C24450460390100C049048462404240CAF
:403A80001204121905922A0C2D042D0C68432C00824648467C4350438146200C8046574357444744BA4503D9802040028046C144380C3F04B84648442404240C0190049878
:403AC000A044404404905846000C814658460404200C8246070048465F434C464343604660436446834650464443380C8446E4186444A34203D980235B029C46E34448468D
:403B00003F04230C3F0C2404E419574668436F4384464D46504655434243380C814662444A445B44944503D9802040028446654403983F04834604983F0C8446E344C3452A
:403B4000804140428246100484460198674484466744A344BC46A345A4419946D44464428742BF41D4458041E144A04699459B417F424042C8440743120CBA18A045A44195
:403B80005F423B0064422343D71843467D19DB0D6D021D435B465A02059B1A43531E9A415B46DB0D1A4343465B021343EA0107D501225C0813402343EA07029E13436D088D
:403BC000574AB218002A4BDD580709D00F201840042805D0181D98429B415B42ED180300E80104D54F4A15408022D200B2184E48824200DDE7E60124DB08680718436D0285
:403C0000530580462D0B5B0D0C407DE6802259461203114208D0154206D115432D0398462D0B4C46414B6FE65D4615432D032D0B3E4B69E603005546283B9D400023BCE679
:403C4000504600F097F92030A8E60300283B9F400023BB46984689E600F08CF9203073E60124A61A382E07DD00220C4000230025904649E6029EA3E71F2E20DC20222C00B1
:403C80001800921BF040944093400443581E83411C43F540630709D00F232340042B05D023001C1D9C4292415242AD182B021FD5012400220C4001230025904624E61F20F5
:403CC0002C004042821AD440202E1CD04022961BB5402B43581E83410720234318400025002809D00F2200251A401C00042AD8D1230068076D022D0B0124DB080343984669
:403D00000C40002300E60025E3E780220124120315432D0398462D0B0C40044BF4E5C046FF030000FFFFFFFEFE070000FF07000070B5002830D0C317C4185C40C50F2000B0
:403D400000F018F9174B184A1B1AD21A1F2A18DD164AD21A9440002224035B05240B5B0D0021100024030A0D1205240B1443104A1B0514401C436400ED0764082C43210032
:403D800070BD210091400A000B21081AC4405B052403240B5B0DE3E70025002300240022DEE7C0461E0400003304000013040000FFFF0F804200120E511C4302C9B270B596
:403DC0005D0AC40F012915DDE02189008C466D071B0B6244002128000D0D2D052B431C4D52052B40520813435B00E4075B082343190070BD002A15D1002D1FD0280000F05A
:403E0000B9F80A281DDC0B232A001B1ADA4013000200153295400F4A1B03121A52051B0B520DD7E7002D06D080221B0B120313436D07094ACEE7084A0023CBE70022002373
:403E4000C8E703000B3B9D402B000025E3E7C046FFFF0F8089030000FF0700004B0070B55E0D0C03751C640A420F6D052243C90FC4006D0D012D2ADD3B4BF318FE2B1ADC22
:403E8000002B42DD8001451EA841D2001043620F0243500704D00F201040042800D004328020C004104021D00133FF2B03D09201520ADBB201E0FF2300225202520ADB052D
:403EC00013435B00C9075B080B43180070BD002E07D01443EFD08020D20080040243FF23D7E722430023002A03D00522D208FF2B03D05202520ADBB2DFE7002A32D08020C3
:403F0000C00302435202520AD7E71800173014DB8020000402431E20C01A1F280FDC2500124BF3189D406E1EB5419A402B0013432200C2401A430023ABE70023D5E7022507
:403F40006D42EB1A1500DD40202809D0084BF3189A401443621E9441220000232A4398E70022F6E70022A8E780FCFFFF82FCFFFFA2FCFFFF1C2101231B04984201D3000CA9
:403F800010391B0A984201D3000A08391B09984201D30009043902A2105C40187047C04604030202010101010000000000000000014B18687047C046580100200E4B70B5CE
:403FC00000251E000D4CE41AA410A54204D0AB00F35898470135F8E700F062FA084B00251E00084CE41AA410A54204D0AB00F35898470135F8E770BDAC440000AC44000034
:40400000AC440000B4440000002310B59A4203D0CC5CC4540133F9E710BD03008218934202D019700133FAE77047000000000000FF000000000000007E43090D0A7E41099F
:404040000D0A7E54120D0A7E55120D0A7E57120D0A7E56120D0A00007E42080D0A7E43090D0A7E4D0B0D0A7E53030D0A7E4C010D0A7E41010D0A000090016400F401640098
:40408000F4010500F401640000300F40000400400F400004800D830D0F01130616011B041C061F02220226042A013101320133013506360637013E044010410645D14702DF
:4040C000481749FF4AFF4BFF4DA04F04501852805405580459045A045B045C335D335F01604062C06440654066C068C06AC06CC06EC08040844088078A089006921194016E
:40410000961298409B029C189E03A101A220A410A501A604AA1FAC40AF02B01FB102B240B420B701B808B980BE04BF01C020C105C510C602C80EC9FFCAFFCBFFCDA0CF0410
:40414000D018D804D904DA04DB04DC31DD01DF01E040E2C0E440E540E6C0E8C0EAC0ECC0EEC0020103020424050209480E640F0210A816A1172019841C101D201E80200143
:40418000210A2220254027802CA02D4030A0310236203B40400145204720482849014F8250885620574059856D4073408A40C070C2F5C4FECAD0CC2DCE08D028D214D60B23
:4041C000E220000802040302061008040A080E2013041C011E021F01200222012308300C31013220330234033508361037045287580459045B045D105F018504870288041E
:404200008A02930897089C029E04A502A601A704AB01B006B101B201B506B708BF40C046C5ECC702C813C9FFCAFFCBFFCF01D018D280D401D604D804D904DA04DB04DD225B
:40424000DF01E040E240E440E540E680E880EA80EC80EE800308041106220A020E0212201440190A1D401E041F0A200422412419262129082B082F8030083102344035409A
:40428000360238083C01410248084905500859055A805C0A5E105F4063806C106E6071027680820283408620878088488A028B488C038E30942496449D029E80A610A702B1
:4042C000B380B410C0F2C281C414CA86CC93CE82D001D204D6FBD801E420EA10EE20550257086F047010731077087A087C808B08D440D620DA80DCE0DE6001010301050277
:404300000F0223182420270481028208850187018B01942097109F0CA608B102B480C070C280C8F0E010E220E430010F100F000002000F4065300F4030310F4049320F4072
:4043400045330F400E400F4018410F4002600F4000040000000400000004000000040000003400000607040370000000030405060708090A0B0C0E0F1011121314151617B4
:4043800018191B1C1D1E1F2021222325262728292A2B2E2F3031323334350000062E00002A2D0000E82D0000C02D0000E82D0000B42D0000E82D0000C02D00002A2D000035
:4043C0002A2D0000B42D0000C02D00006C2E00006C2E00006C2E0000EE2D00002A2D00002A2D0000D42D0000BE2D0000D42D0000B42D0000D42D0000BE2D00002A2D0000F0
:404400002A2D0000B42D0000BE2D00006C2E00006C2E00006C2E0000782E000004300000622F0000622F0000602F0000F62F0000F62F0000EC2F0000602F0000F62F0000E7
:40444000EC2F0000F62F0000602F0000FC2F0000FC2F0000FC2F0000863000002C3A0000EC380000EC380000EA380000043A0000043A0000F6390000EA380000043A00005B
:40448000F6390000043A0000EA3800000C3A00000C3A00000C3A00000C3C000043000000F8B5C046F8BC08BC9E467047C1020000D1120000F8B5C046F8BC08BC9E467047DE
:4044C00099020000D8440000C0000020A00000007801000000000000000000000101000000000000FF0000000000010001FF000000000000FF000000010000000000C05DED
:4045000080BB000030000000006CDC020404040000000000000000000000000000000000000000000000000000000000000000009C440000000000000000000000000000DA
:40454000000000000000000000000000000000000000000000000000000000000000000000000000000000000000000000000000F800002000000000000000000000000023
:4045800000000000000000000000000000000000000000000000000000000000000000000000000000000000000000000000000000000000000000000000000000000000FB
:4045C00000000000000000000000000000000000000000000000000000000000000000000000000000000000000000000000000000000000000000000000000000000000BB
:40460000000000000000000000000000000000000000000000000000000000000000000000000000000000000000000000000000000000000000000000000000000000007A
:40464000000000000000000000000000000000000000000000000000000000000000000000000000000000000000000000000000000000000000000000000000000000003A
:0200000490303A
:02000000457643
:0200000490402A
:200000000000000000000000000000000000000000000000000000000000000000000000E0
:0200000490501A
:0C0000000002046311931101047A5709F7
:0200000490600A
:0100000001FE
:00000001FF