:4000000000100020110000008D1300008D13000010B501F0C3F9C04670B52D4C23688025ED022B432360302001F0FAFB294A2A4B1A601122294B1A601F32294B1A601E3AC9
:40004000284B1A601032284B1A600F3A274B1A601E32274B1A600232264B1A60133A264B1A601232254B1A60113A254B1A6082221206244B1A602560234A244B1A6024494C
:40008000244B19602449254B19602549254B1960254B26490B6026490B6026490B6026490B602649264B1960264B1A60264A274B1A60274A274B1A602749092001F04AFB07
:4000C000092001F03BFB0022244B1A6070BDC04600010B400600008004010B400C0202401C0202402002024024020240280202402C02024030020240340202403802024090
:400100003C02024008010B407FBB00800000024008000080400002400A0000808000024022000080040002402F00008044000240840002400800024048000240AC030080B3
:400140008800024000010240E7030080400102401F0300C0800102409D1A00000C020B4010B572B60122304B1A7000240FE02F486200131959000B00411889881A5AC31886
:4001800058880004104301F0FBF80134E4B2012CEDD926490C312648483001F0CBF8254A254B1A60254A264B1A6099231B04254A1360D1210904244A1160244A1360244A83
:4001C0001360244A13607E22234B1A60163A234B1A6023490B782C3A934314221343DBB20B70204A117816230B43DBB213700B221D4B1A601D4A1E4B1A6002221D4B1A6043
:400200001D4A1E4B1A60D0221D4B1A6008321D4B1A601D4A1D4B1A6006221D4B1A60FFF7FBFE01F0A1F810BD1C700F409C4200001C450000303000000000014009EE000039
:400240000C00014000500F4008500F4010500F4020500F4030500F402000004000800F4001700F4000700F4000000440DA0C0C00080004400C000440490020000801044078
:400280000002044018020440810D0000080304400804044010B5064C2378002B07D1054B002B02D0044800E000BF0123237010BD600100200000000040420000084B10B5E1
:4002C000002B03D00749084800E000BF07480368002B00D110BD064B002BFBD09847F9E7000000006401002040420000C00000200000000010B5002001F00CFF01F0FAFE87
:40030000002001F0A9FE01F0B5FC01F0A7FF01F0F5FC01F07DF901F093F901F0A1FD01F0CFFD01F05BFF01F05BFD01F065FC02F033F800F001FE10BD10B562B6FFF7DAFF4F
:4003400002F0DAF9114BDB78002B13D100F000FF0F480123C370002383700E4B1B685A8802719B884371013005220849013102F015F801E000F076FD012000F001FC0348C8
:4003800000F046FA002000F003FEF8E7444200007C010020B402002010B582B06B46DC1D0023237002F07CF920702F4B1B78012B58D16B4607331B785B070FD52B4BDB88D7
:4003C000FA2B02D9FB22294BDA80284BD888043080B2D880C0B200F00DFF13E06B4607331B78DB070ED5214BDB88042B02D804221E4BDA801D4BD888043880B2D880C0B21C
:4004000000F0F8FE6B4607331B789B070FD5174B1B89F62B02D9F722144B1A81134B1889043080B21881C0B200F006FD13E06B4607331B781B070ED50C4B1B89042B02D8E0
:4004400004220A4B1A81094B1889043880B21881C0B200F0F1FC054B187A00F0EDFC0022014B1A7002B010BD980200207C01002010B50348C11C0630012201F08FFF10BD00
:40048000444200000048704744420000004870477C01002010B5002814D0122914D1002300240BE05900425C120212B2411849780A43944200DA14000133DBB2072BF1D9BB
:4004C000200002E0002000E0002010BD014B18787047C046880100200022014B1A7070478801002010B5002809D00D2909D10A0001000548043003F091FE002002E001206C
:4005000000E0012010BDC0468801002010B5012001F028FF0B4B5B8A1D2B03D80133094A53820EE0074C0123637001F0AFFE00236382A07900F030FB201D0D22002103F0F4
:4005400076FE10BD88010020F0B557464E464546E0B488B0012001F053FC484A137D0133DBB21375032B04D9130000221A7501321A70424D2A00183204230021002000F0B1
:4005800081FB2026AB5D5B00EB1818229B5E99466A46D380D3889A4600F0ECFA040080461622002102A803F042FEAE5DB21C344993009B185A5C02A80270CB185A78427018
:4005C0009A78911CD87802AF785403321B79BB542435F3009B19590069181222B81C03F01DFE0134640053461F0A02AB1F5501344A461A554346012B07D1300000F038FB17
:4006000083B21B0A02AA9370D0701C495A228B5C0133DBB28B54022B03D900215A23174AD154164C2023E55C122103A8FFF732FF6B00E3185C2298524346012B08D1012D67
:4006400006D1032120005C3000F06EFB00F066FB20230A4AD35C032B01D101F047F8074D2024285D0130032102F074FA295508B01CBC90469946A246F0BDC046880100205A
:400680004C42000010B5002803D0052901D100F071FA012010BDC04610B500F06BFA10BD10B501F0C5FC002001F0D6FC01F0F0FA01F0E2FD01F030FB00F0BAFF00F0CAFF33
:4006C00001F0DCFB01F00CFC01F096FD01F02EFB01F036FA10BDC046F0B585B006000D00002828D00D2928D1174B1F78002F26D101221A700A000100684603F08FFD412303
:400700006A465370002301E00133DBB2042BFBD9B4780134E4B2200000F032FA01220A4B5A70A31CF454B47029003000FFF7DAFE01F008FE04E0012702E0012700E00027A3
:40074000380005B0F0BDC046EC01002070B504000D00160000F00EFA30184378237001222900200001F01AFEF3786370691C601C012201F013FE70BD10B5FFF779FE00209A
:4007800010BDC046F8B504001500002834D00C2934D1012A34D800F0EDF906000700431EDBB2072B2ED8194B1B78002B02D00022164B1A70FFF78AFE012825D1012F14D147
:4007C000002D06D00136A05D002100F003FA00201BE00136A05D012100F0FCF90100A01C082203F024FD00200FE00136A05D002100F0F0F9002008E0012006E0012004E012
:40080000012002E0012000E00020F8BDC400002010B5214B5B78012B17D0002B02D0022B24D038E01D4B9B78012B34D10A2000F0D5FF00F09FF901282DD100F09BF90128B8
:4008400029D10122144B5A7025E0144B9B78002B03D1124AD370104A5370FFF79DFDFFF735FE012817D1FFF737FE14E0FFF72EFE012810D1FFF714FF01F084F8074BDB78D0
:40088000012B06D10023054AD370034A537000F099FFFFF721FE10BDC4000020EC01002010B501F0FFF9012001F0B6F900F062F9012812D1134B9B889BB2952B05D8114A89
:4008C000938801339BB293801AE001F039F90D4B00229A8001329A7012E00A4B9B889BB2094A934205D8074A938801339BB2938006E001F025F9034B00229A8001329A70E3
:4009000010BDC046EC0100200F27000010B5FFF7B9FDC11C0122002001F040FD10BDC04670B56C4BDB79012B3BD0002B02D0022B4CD0CEE0674B197A00290CD15B7A9A00FA
:40094000D318654A9B5C834205D1624B5A18107301311972BDE001291ED112E09A00D2185D4CA2185278904208D15A4A537254182073013111720121D17105E00133DBB2C1
:4009800000E00023052BE9D9052B00D8A1E0514B00221A725A729CE04E4B00221A725A7297E04C4A137AD11808730133DBB21372527A91008A1848498A189278023293428B
:4009C00000DA86E00222434BDA7182E0414B197A0D005A7A93009B183F4CE3189B789C1CA1420CD19400A4183B4E3419E478A04205D1384B5A1810730131197269E0033313
:400A00009D4261D193009A18334B9A18137998425AD1304C6118087301F092F80023A380A37001F0E9F8637A002B08D1FFF734FE00220C2127480C30FFF7A4FE3EE0012BA4
:400A400007D1FFF729FE0D2122480C30FFF744FE34E0022B06D10D221E490C311F4803F0DDFB2BE0032B0DD1FFF716FEFFF70EFD0400FFF707FD0100164A0C322000FFF783
:400A800065FE1BE0042B05D1052112480C30FFF7F9FD13E0052B09D1FFF7FEFD07210D480C30FFF769FEFFF731FF07E0FFF7F4FD01220C2107480C30FFF764FE054B00228E
:400AC0001A72DA715A7204E0024B00221A72DA715A7270BDEC0100206C4200009C02002010B501F081FAC0B2FFF71AFF01F00EFA0028F6D1024B1A68024B1A6010BDC046B4
:400B0000CC0F0740C00F07400148024B186070479C020020AC02002070B500281FD004291FD8002309E05C00255E9C00104EA45FA418A54217DC0133DBB28B42F3D30023D7
:400B400009E05C00255E9C00094EA45FA41AA5420BDB0133DBB28B42F3D3002006E0032004E0032002E0012000E0022070BDC0468C420000014B187A7047C046C80000201F
:400B8000431EDBB2072B03D8024B1872002000E001207047C8000020431EDBB2072B03D8024B5872002000E001207047C800002010B5012001F0EAFB054B5B7BFF2B03D0F2
:400BC0000133034A537301E001F0D2FB10BDC046C800002010B5012943D8234B1B78834201D0214B1870204B1B7A012B01D1002915D11D4B1A789B789A420CD0002A07D0EC
:400C0000012001F087FA184B187801F025FA02E0002001F07FFA144B1878987022E0124A53789278934217D00F4A1278934202D20E4A137001E00D4B1A700C4B1B78002B8D
:400C400007D0012001F066FA084B187801F004FA02E0002001F05EFA044B1878024B987000E0002010BDC046C800002005020020042803D88000024BC05E00E0002070474F
:400C80008C420000F8B507000D00160001283AD8002803D0022938D800240AE0002A36D0042B36D8002404E00134E4B2082000F0ADFD012000F0D8FC002801D1042CF3D933
:400CC000052C28D8002F18D0042D04D1002001F027FA00B220E0022D03D1042000F0EAFC1AE0280000F0E6FC16E0200000F0E2FC03006200B052013401E000240023012CFC
:400D0000F3D9180008E0002006E0002004E0002002E0002000E00020F8BDC046014B18797047C046C800002070B504000D00002879D0042979D83F4B1B7A012B77D13D4B3E
:400D4000DB78012B34D0002B04D0022B10D0032B4ED065E0374BFF221A711A785A700022FFF7DAFE01285BD10222324BDA7057E0304B1B79002B02D0013B2E4A13712D4EA3
:400D8000307833795843FF2101F0FEFD7070002229002000FFF7C0FE002803D10322254BDA703DE002283BD10122224BDA7037E0204B1B79FF2B02D001331E4A13711D4E94
:400DC000307833795843FF2101F0DEFD7070002229002000FFF7A0FE012803D10222154BDA701DE000281BD10322124BDA7017E0104E307833795843FF2101F0C5FD70709A
:400E0000002229002000FFF787FE012803D10222084BDA7004E0022802D10122054BDA70044B587804E0002002E0002000E0002070BDC046C800002010B50400074B18708D
:400E4000074B5B78984203D00021FFF7C3FE02E00121FFF7BFFE024B5C7010BDC80000200502002010B5FFF70DFB044B027919684A801B6842799A8010BDC046B402002043
:400E800010B5012809D1184B1A683F3082431A601868042202431A6022E00A2809D1124B1868402202431A601A68042082431A6016E0002809D10C4B1A68403082431A6001
:400EC0001A683C3882431A600AE0032808D1064B1868402202431A601868042202431A60080001F0C7FA10BD0000044070B5114C012322685373FF210020FFF7C1FF0A2097
:400F000000F06CFC2568032000F0D4FB688022685388DB08538023685A883B2A02D800229A8001E03C3A9A8001213022995401F0DFFA70BDB402002070B501F0CFFA01F090
:400F4000BDFA012001F076FA002001F093FA0C4C0C4B2360FFF7D8FD0B4D2860FFF792FA2B6842785A802368FF225A80FF210020FFF786FF054801F07FFB01F049FB70BDB9
:400F8000B402002008020020B00200200D120000F0B585B00700684B1C684E23E35C002B00D0C1E0002801D020831CE01822A35E624A12685088834215D005B2258360881A
:400FC00002F0DCF9A0605E4901F040FF061CA060280002F08BF9011C6061301C02F050F802F062F920831823E25E63889A4200DB23831823E25EA3889A4200DC238318223E
:40100000A35EFE2B01DDFF2323831822A35E052B01DC05232383032000F04CFB6082464B1C681223E05EC01060821822A35E181A05B26583280002F059F901902062606AFF
:4010400002F0C2FF3F4A404B02F002FD02900391280002F077FF029A039B02F0CDF903F007F8061C60621C22A05E281A02F03EF9051CA062311C019801F072FD011C281CC9
:4010800001F06EFD02F010F900B2A085FE2802DDFF23A38504E0FE3002DAFF235B42A3852C23E15E4B1D9BB20A2B0BD8FF210020FFF7E6FE052000F091FB01215423234AC2
:4010C000D1542BE0052917DD002054231F4AD054C9B20130FFF7D4FE002F04D0FF210120FFF7CEFE1AE0144B1B682C21595EC9B20120FFF7C5FE11E04B1D0FDA00205423F2
:40110000124AD054002F04D0FF210A30FFF7B8FE04E04942C9B20A20FFF7B2FE064B1B681A215A5E9A8303E0FF210020FFF7A8FE014B186805B0F0BDB4020020B0020020F3
:4011400000007F43C3F5285C8FC2ED3F0802002010B5244B1A6800213023D1542DE0224801F0F0F9214800F039FB00215423204AD15413E01B4B1A683023D35C012B0AD112
:4011800000221B4B9A65012000F028FBFF210020FFF776FE07E0FC20FFF7FAFE5423144AD35C002BE6D0124A936D01339365052B03D900220E4B9A6505E00A4B1A683023D7
:4011C000D35C012BCBD1FF210020FFF759FE01F0C7F90A2000F002FB024B1B680220185E10BDC046B4020020ED0E00008813000008020020014B1B6858807047B0020020A2
:4012000010B5022000F056FA80B210BDF8B5012000F02AFA00280DD0444E37684A257C5DFFF7EEFF183464003C1960803268535D013353553D4B1B68598EF422FF3291422E
:4012400051D9998E91424ED9D98E91424BD9198F914248D9598F914245D9998F914242D9D98F91423FD9B43AFF3A995AF422FF32914238D9B23AFF3A995AF422FF32914270
:4012800031D9B03AFF3A995AF422FF3291422AD9AE3AFF3A995AF422FF32914223D9AC3AFF3A9A5AF423FF339A421CD9FF210020FFF7E6FD1D4B1A6800214A23D15408E0FC
:4012C00018335B00D318002159804A31535C013353544A23D35C0B2BF2D900214A23D15401310433D154114B1B684E229A5C012A0DD150215A5A013292B25A52F421FF31A5
:401300008A4204D9002150229952023A99544A229A5C0B2A02D900214A2299540122044B1A7001F0B7F901F035F9F8BDB402002098020020F0B50025002711E0BB00C658B5
:40134000F3B2FF22964308E06A008A181478A419527822700135013BDBB2002BF4D10137072FEBD9F0BDC046024B034A1360034A13607047D800030000031A4040031A4008
:4013800010B50A00002102F052FF10BD10B502F019FF03680C2B00D1FEE7FEE770B50F4E0F4D13E029686B68AC68002202E001C901C30432A242FAD1E868002202E00021EC
:4013C00002C304328242FAD11035013E002EE9D102F0FEFEFEF7B0FFFEE7C04601000000F846000010B500230AE0032B03D89A000949505800E009489900094A88500133A3
:401400002F2BF2D9FEF7ACFE8022D205116801230B43136010BDC046000000008D1300000000002010B503210E2000F0A5F951490E2000F08FF90F224F4B1A604F4B1B6837
:40144000002B01DA4E4900E04E494F4A13680B4313604E4A4E4B1A604E4A4F4B1A6000234E4A13604E494F4A11604F494F4A11604F4A116880204002014311604D490A680A
:4014800002430A604C4A13604C4A136011224C4B1A600F3A4B4B1A604B490A684B4B1340012213430B60002461E0494AA3009958DC239B010B401219127D1343032C1CD856
:4014C000A2004448844662441360CB0707D53A490A680123A3401B041B0C13430B60A3003B4A9B589B0721D534490A680123A3401B041B0C13430B6018E08022D2051343B3
:40150000354A1360A300324A9B58DB0704D52C4A116820230B431360A3002D4A9B589B0704D5274A116840230B431360A300284A9B589A0502D58020400001E08020400143
:40154000DB0504D463000021244A995203E04208630022495A5222494843224B9C46604401F012FA00B2A2001F4BD0500134042C9BD910BD0117000020001A4080031A4056
:40158000702010117020001100001A40A400008004001A400000FF0F18001A401C001A400200020010001A400200FF0314001A4000031A4040031A4028021A4038021A4015
:4015C00018021A40000F1A4030001A40FFFFFFDF8445000080001A4080021A40CC0200201027000088130000B802002010B5074B1B68002B08DB054A1368802109060B431F
:4016000013600A2000F002F910BDC04600001A4010B5064B1B78002B04D1FFF703FF0122024B1A70FFF7E2FF10BDC04664020020024A13685B005B081360704700001A4021
:40164000034A1368802149020B4313607047C04604001A40024A1168024B0B401360704704001A40FFFFFEFF010083070CD0104B1B680120184001D18B07F8D4002804D010
:4016800001220B4B1A6000E000200C230B420DD0074B1A6810231A401043034001D10A07F6D4002B02D01022014B1A607047C04610021A4010B50400042802D9002000F03C
:4016C00047F8032C07D8A400064B9C46644420680004000C03E0044B18680004000C00B210BDC04680011A4090021A40034A1368802109060B4313607047C04680021A40A6
:40170000014B1A681A60704710021A4010B5040001F00CF8E304E022920313401900054C2368054A1A400B001343236001F002F810BDC04600010B40FFFFC7FF1F231840C5
:401740001E3B8340014A13607047C04600E100E001BE704770B504000D001F2802D90020FFF7F6FF1034A40080239B059C4664442068256070BDC04670B504000E000329E0
:4017800002D90020FFF7E4FF1F2C02D90020FFF7DFFF03252540ED00063500F0C7FFA408A400074B9C46644421680323AB4099430B003100A9401943216000F0BBFF70BD55
:4017C00000E400E0034A13681B041B0C02490B43136070470CED00E00400FA0510B5040006E0084B586800F097FF074B9C46644480231B029C42F4D8024B9868604300F00A
:401800008BFF10BDE00000200080FFFF10B5034B1B7B584300F080FF10BDC046E0000020F0B557464E46C0B483B0040000F07EFF0190E71E2D2F74D83F4B1B78DBB29C4299
:4018400008D83E4B1B78DBB29A463D4B1B78DBB2994631E03B4B1B78DBB29C4208D83A4B1B78DBB29A46394B1B78DBB2994623E0374B1B78DBB29C4208D8364B1B78DBB2F7
:401880009A46354B1B78DBB2994615E0334B1B78DBB29C4208D8324B1B78DBB29A46314B1B78DBB2994607E02F4B1B78DBB29A462E4B1B78DBB299462D4BDE5D2F2E09D9B5
:4018C0002A2C07D919222B4B1A60052000F024FF192503E0274B1D683F231D40B54206D9234BDA5D234B1A60052000F015FF1F4B9C4664442378DBB21F4A13601F4B5246F2
:401900001A601F4B4A461A600520FFF77FFFB5420AD2174BDA5D174B1A60052000F0FCFE02E00020FFF714FF019800F003FF03B00CBC91469A46F0BDC0F1FF0FC1F1FF0FD5
:40194000C2F1FF0FC3F1FF0FC4F1FF0FC5F1FF0FC6F1FF0FC7F1FF0FC8F1FF0FC9F1FF0FCAF1FF0FCBF1FF0FCCF1FF0FCDF1FF0FA04500002CFF0B4028FF0B401CFF0B40E6
:4019800020FF0B40F0B583B000F0D0FE0400134A13685B005B0813608025ED052B68022633432B600E4B1B889BB20E4A13600E4A116804230B4313600C4F3B680193022046
:4019C000FFF7A4FE30BF019B3B602B68B3432B60200000F0AFFE03B0F0BDC04600000B4052F1FF0F0C000B4010ED00E000010B40034B1868C0231B02184000D00120704708
:401A000000010B4010B500F091FE044A1368C02109020B43136000F08DFE10BD00010B4010B500F083FE08490A68084B1A408024E40122430A600A6813408022120213433D
:401A40000B6000F077FE10BD00010B40FF3FFFFF70B5050000F06AFE0400FFF7C9FF002803D0FFF7DDFF012100E0002108482840084A1568084B2B40184310601368012958
:401A800001D1FFF7BFFF200000F054FE70BDC0460404040010020B40FBFBFBFF10B5244B1B685B0715D5234B1B685B070ED5224BD969042001401F4C22688A432260DA69DE
:401AC0008243DA611B69002B00D098470420FFF7BFFF174B1B685B0518D5164B1B685B0510D5154BD9698022D2001140114802688A430260D969114A0A40DA615B69002BEB
:401B000000D098478020C000FFF7A2FF084B1B685B030CD5074B1B685B0304D5064B9B69002B00D098478020C002FFF791FF10BD10020B40F400002068020020FFFBFFFF07
:401B400010B500F0F3FD044A136808218B43136000F0F0FD10BDC046000005400004000C014B18607047C046C80105400004000C014B18607047C046D401054070B5040025
:401B80000D0000F0D3FDAC40024B1C6000F0D2FD70BDC0460800054010B500F0C7FD064A116808230B43136000F0C4FD18210820FFF7E4FF10BDC04600000540014B18606F
:401BC0007047C046F801054010B580229204084B1A600C22074B1A600120FFF7EFFFFA208000FFF7C3FF0020FFF7B8FF10BDC046C0010540E401054010B5064B1B78002B2B
:401C000004D1FFF7E1FF0122024B1A70FFF7C4FF10BDC04688020020014B18607047C046F001054010B5FEF73BFE10BD014B98647047C0460000002010B5040000F076FD01
:401C4000044A1168044B0B40A4051C43146000F071FD10BD00E400E0FFFF3FFF0422014B1A60704700E100E00422014B1A60704780E100E010B5FFF7F7FF0448FFF7D6FF4C
:401C80000320FFF7D9FFFFF7E9FF10BD251C000010B5FFF7E9FF0248FFF7C8FF10BDC0468D1300000422014B1A60704780E200E010B5FEF749FC10BD014B18657047C046F3
:401CC0000000002010B5040000F030FD044A1368C0218B43A4011C43146000F02BFD10BD04E400E01022014B1A60704700E100E01022014B1A60704780E100E010B5FFF726
:401D0000F7FF0448FFF7D8FF0320FFF7DBFFFFF7E9FF10BDB11C000010B5FFF7E9FF0248FFF7CAFF10BDC0468D13000010B500F0FDFC044A136804218B43136000F0FAFC47
:401D400010BDC046000005400004000C014B18607047C046880105400004000C014B18607047C0469401054070B504000D0000F0DDFCAC40024B1C6000F0DCFC70BDC046D2
:401D80000800054010B500F0D1FC064A116804230B43136000F0CEFC18210420FFF7E4FF10BDC04600000540014B18607047C046B801054010B580229204074B1A600C2225
:401DC000064B1A600120FFF7EFFF0C20FFF7C4FF0020FFF7B9FF10BD80010540A401054010B5064B1B78002B04D1FFF7E3FF0122024B1A70FFF7C6FF10BDC046890200202F
:401E0000014B18607047C046B001054010B5FEF767FE10BD014BD8667047C0460000002010B5040000F082FC044A13689B009B08A4071C43146000F07DFC10BD08E400E01A
:401E400080221201014B1A607047C04600E100E080221201014B1A607047C04680E100E010B5FFF7F5FF0448FFF7D4FF0320FFF7D7FFFFF7E5FF10BD0D1E000010B5FFF7B0
:401E8000E7FF0248FFF7C6FF10BDC0468D13000010B500F093F810BD10B500F099F810BD10B500F03BF810BD10B5044A1368802109060B431360FFF7EBFF10BD00000740FC
:401EC00010B5064B1B78002B04D1FFF7E9FF0122024B1A70FFF7E8FF10BDC0468A02002010B5FFF7D9FF044A13685B005B0813600022024B1A6010BD00000740880F07409D
:401F0000014B18687047C04640030740024B1B680F2018407047C04608030740144A154B1A600023144A13601449154A11601549154A1160072215490A6015490B600120C6
:401F40001449086014490A60144A1360144A1360144A1360144A1360144A13600421144A1160144A13601268134B1A807047C0460B000002000007404000074001000A00E6
:401F80004800074007000080000307400403074010030740440007400002074004020740880E0740C80E0740480F0740080F0740C80F0740880F07408C020020024B1A8869
:401FC000024B1A607047C0468C020020880F0740034B1A68E423DB001340024A13807047880F07408C02002010B5FFF78FFF002802D0FFF785FF01E0064B1868064A136870
:40200000D821890011601B02D82292021340184310BDC04640030740C00F0740034A117880235B420B43DBB21370704773000F40024A11787F230B401370704773000F4036
:40204000014B18707047C04603000F40014B18707047C04643000F40014B18707047C04623000F40014B18707047C04683000F40014B1878C0B2704763000F40014B187861
:40208000C0B2704753000F4010B501E0FFF7F6FFFFF7EEFFC306F9D410BDC04610B513490B783F2293430A221343DBB20B70104C227801231343DBB22370FF20FFF7C0FFAF
:4020C000FF20FFF7C3FF0020FFF7C6FF0020FFF7C9FF00F02BFB227810231343DBB2237000F028FBFFF7D0FF10BDC04673000F4093000F4010B5064B1B78002B04D1FFF709
:40210000CDFF0122024B1A70FFF788FF10BDC0468E020020014B18707047C04670000F4010B5184B1B881BB2174A148824B244439B02E418154B9C420CDDC823DB031B1BD8
:40214000DA170F201040C0180011C000552100F01BFC0BE0A0239B03E318DA170F201040C0180011C000372100F00EFC041980231B029C466444E0170004000C0419201458
:4021800010BDC04666F1FF0F64F1FF0FFFFF0E0010B5FEF70DFD10BD014BD8647047C0460000002010B5040000F0C0FA044A13689B009B08A4071C43146000F0BBFA10BD18
:4021C00000E400E00822014B1A60704700E100E00822014B1A60704780E100E010B5FFF7F7FF0448FFF7D8FF0320FFF7DBFFFFF7E9FF10BD9121000010B5FFF7E9FF0248C4
:40220000FFF7CAFF10BDC0468D13000010B5FEF77DF910BD014B58647047C0460000002010B5040000F082FA044A1168044B0B40A4031C43146000F07DFA10BD00E400E082
:40224000FF3FFFFF0222014B1A60704700E100E00222014B1A60704780E100E010B5FFF7F7FF0448FFF7D6FF0320FFF7D9FFFFF7E9FF10BD0D22000010B5FFF7E9FF02485E
:40228000FFF7C8FF10BDC0468D13000010B500F04DFA044A136802218B43136000F04AFA10BDC046000005400004000C014B18607047C046480105400004000C014B186086
:4022C0007047C0465401054070B504000D0000F02DFAAC40024B1C6000F02CFA70BDC0460800054010B500F021FA064A116802230B43136000F01EFA18210220FFF7E4FF34
:4023000010BDC04600000540014B18607047C0467801054010B580229204084B1A600C22074B1A600120FFF7EFFFFA20C000FFF7C3FF0020FFF7B8FF10BDC04640010540C5
:402340006401054010B5064B1B78002B04D1FFF7E1FF0122024B1A70FFF7C4FF10BDC0468F020020014B18607047C0467001054010B500F0DBF9044A136801218B43136011
:4023800000F0D8F910BDC04600000540014B18607047C046300105407047C046F0B54F464646C0B4A1B0804617000E008A1880231B029A4229D8CC0BC909FF230B409946E6
:4023C00024024C44E4010020002519E0B44207D3BD4205D24246525D6946CA54013502E022786946CA540134013300E000237F2BECD96946484600F0B5F901239C46E144FA
:40240000BD4203D20028F1D000E00120012801D90120404221B00CBC90469946F0BDC046034A117880235B420B43DBB21370704772000F4010B5030007201840DB003822CF
:402440001340054A11783F24A1431170117818430843107010BDC04672000F40014B18707047C04602000F40014B18707047C04642000F40014B18707047C04622000F4020
:4024800010B50C490B783F2293430D221343DBB20B70094A117801230B43DBB21370FF20FFF7DCFFFF20FFF7DFFF8020FFF7E2FF10BDC04672000F4092000F4010B5064B78
:4024C0001B78002B04D1FFF7DBFF0122024B1A70FFF7A6FF10BDC04690020020034A1368802109060B4313607047C04640000240024A10680123184010607047100004402C
:40250000014B18647047C0460000002010B5040000F00CF9044A1368C0218B43A4011C43146000F007F910BD00E400E00122014B1A60704700E100E00122014B1A607047C6
:4025400080E100E010B50400FFF7F6FF2000FFF7D7FF0320FFF7DAFFFFF7E8FF10BDC04610B5FFF7E9FF0248FFF7CAFF10BDC0468D130000034A117880235B420B43DBB2C8
:402580001370704771000F40014B18707047C04680000F40014B1878C0B2704760000F40014B18807047C04640100F40014B188880B2704780100F40014B18807047C04678
:4025C00000100F4010B501E0FFF7F0FFFFF7E2FF0307F9D410BDC04610B50B4C2000FFF7DFFF2000FFF7E8FF00F0A0F8074A117810230B43DBB2137000F09CF8FFF7E2FF15
:402600000120FFF7C1FF10BDE7FD000090000F4010B5064B1B78002B04D1FFF7DDFF0122024B1A70FFF7A6FF10BDC04691020020014B98657047C0460000002010B50400AE
:4026400000F074F8044A1168044B0B40A4051C43146000F06FF810BD04E400E0FFFF3FFF4022014B1A60704700E100E04022014B1A60704780E100E010B50400FFF7F6FF85
:402680002000FFF7D5FF0320FFF7D8FFFFF7E8FF10BDC0464022014B1A60704780E200E0014B1878C0B2704761000F407047C046014B58657047C0460000002010B504004E
:4026C00000F034F8044A1168044B0B40A4031C43146000F02FF810BD04E400E0FF3FFFFF2022014B1A60704700E100E02022014B1A60704780E100E010B5FFF7F7FF04487E
:40270000FFF7D6FF0320FFF7D9FFFFF7E9FF10BDAD260000000000000230800804D0C0460138FDD1C046C046C0467047EFF3108072B6704780F310887047C046024B1A6813
:40274000024B1A600020704708010B4094020020024B1A68024B1A60002070479402002008010B40F0B5474680B4A6B00500002325932493FF2800D9EFE0002900D1ECE052
:40278000802204A801F04AFD022300200021002408E09A0002AE9259002A02D0891810431C000133212BF4D9002903D1002803D1002602E0002600E00126002E06D0A300BE
:4027C00002AA9F58002202A95A5000E00027664B02937F230393654B02AA1A606449654A1160C0461B681B0F1B07F0221206934204D15E4B1B68FF2213400DE05B4B1B6838
:402800001B0F1B07A0221206934204D0574B1B68FF22134000E000232593259B002B00D09DE0FFF783FF0190FFF788FF2490259B002B25D1504A029202992A040A4302924A
:402840004A4A02A911604D484A490860C0461268120F1207F02109068A4204D1434B1B68FF2213400BE0414A1268120F1207A02109068A4203D03D4B1B68FF221340259348
:40288000259B9846002B59D1002E57D08022002104A801F0CCFCA40002ABE750324B02937F230393314B02AA1A603149314A1160C0461B681B0F1B07F0221206934205D124
:4028C0002A4B1B68FF221A4090460CE0274B1B681B0F1B07A0221206934204D0234B1B68FF221A40904643462593259B002B25D1234A0292029A2D04154302951B4A02A9AE
:40290000116020481B490860C0461268120F1207F02109068A4204D1144B1B68FF2213400BE0124A1268120F1207A02109068A4203D00E4B1B68FF2213402593249B002BC5
:4029400007D1FFF705FF2490249B002B01D0249B25930198FFF7EEFE01E004232593259826B004BC9046F0BDB6D70000080000400400008004000040B6D8000005000080DE
:40298000B6D900000600008003460B437FD4002243088B4274D303098B425FD3030A8B4244D3030B8B4228D3030C8B420DD3FF22090212BA030C8B4202D31212090265D0FC
:4029C000030B8B4219D300E0090AC30B8B4201D3CB03C01A5241830B8B4201D38B03C01A5241430B8B4201D34B03C01A5241030B8B4201D30B03C01A5241C30A8B4201D307
:402A0000CB02C01A5241830A8B4201D38B02C01A5241430A8B4201D34B02C01A5241030A8B4201D30B02C01A5241CDD2C3098B4201D3CB01C01A524183098B4201D38B0166
:402A4000C01A524143098B4201D34B01C01A524103098B4201D30B01C01A5241C3088B4201D3CB00C01A524183088B4201D38B00C01A524143088B4201D34B00C01A5241B1
:402A8000411A00D201465241104670475DE0CA0F00D04942031000D34042534000229C4603098B422DD3030A8B4212D3FC22890112BA030A8B420CD3890192118B4208D3F8
:402AC000890192118B4204D389013AD0921100E08909C3098B4201D3CB01C01A524183098B4201D38B01C01A524143098B4201D34B01C01A524103098B4201D30B01C01A57
:402B00005241C3088B4201D3CB00C01A524183088B4201D38B00C01A5241D9D243088B4201D34B00C01A5241411A00D20146634652415B10104601D34042002B00D5494299
:402B4000704763465B1000D3404201B5002000F005F802BD0029F8D016E770477047C046F8B54A02430244004E00C50F240E28009B09360EC90F92098D4259D0A01B00281D
:402B800000DC8DE0002E1AD1002A00D079E05A0704D00F221A40042A00D004335A0138D50134FF2C00D189E028009B015B0AE4B25B02E4055B0A2343C0071843F8BDFF2C97
:402BC000E5D08021C9040A431B2800DD89E016002021C640081A8240511E8A4132439B1A5A0114D59B019E09300001F0CDFA05388640844265DC041B330020200134E340D4
:402C0000041BA640721E964100243343BFE75A07BFD1DF082800FF2C2FD1002F00D187E08022D20313003B435B025B0AFF24BFE7A11B002949DD002E29D0FF2CA7D0802649
:402C4000F60432431B2900DD8DE017002026CF40711A8A40511E8A413A439B185A01D6D50134FF2C64D0012276491A405B080B4013438CE7031ECAD100207B025B0AE4B28B
:402C800096E701380028AAD0FF2C9DD17FE7002A00D17CE701390029DFD0FF2CD2D176E7002820D1601CC0B2012853DD80279E1AFF0437402FD0D61A0D0095E72800002326
:402CC00076E7614B241A334061E700294DD1611CCEB2012E2FDDFF292AD09B185B080C0055E701227BE7002C1BD1002B5BD0C04300280CD0FF2E7ED01B2800DD92E01D00AF
:402D00002024C540201A8340581E83412B43D31A34000D0064E7002E00D065E700200024ABE7FF2E67D08024E40440422343E3E7FF2400233CE7002C61D1002B7ED0002A00
:402D400000D124E79B185A0100D460E73E4A0C0013401CE7002C1ED1002B2FD1002A66D013000D0013E7012277E7002C1FD1002B5AD0C94300290BD0FF2E50D01B295FDCD6
:402D80001F002024CF40611A8B40591E8B413B439B18340062E7002B1CD1002A4AD013000D00FF24F3E6130034000D00EFE6FF2E35D08024E40449422343DFE7002A00D159
:402DC000E5E68027981AFF04074000D152E7D31A0D00DCE6FF24002A00D1D8E68020DB08C003034204D0D208024201D113000D00DB00FF24CBE61300FF240D00C7E6002B8A
:402E00000DD0FF24002A00D1C1E68021DB08C9030B42EDD0D2080A42EAD11300E8E71300FF24B4E6012372E713003400AFE60027002022E780270020FF03F1E61300A6E61B
:402E40000123A5E7FFFFFF7DFFFFFFFBF0B5564644465F464D46F0B444024600C70F83B08846650A360EBA463DD0FF2E22D00023EC00802599469B46ED0425437F3E434634
:402E80005C025800DB0F640A000E984636D0FF2830D080230021E400DB041C437F38301A0190484642460843724E800030587A4013008746002D44D108239946063B9B4642
:402EC000DDE70122FF2000241A406402C305640AD2071C431443200003B03CBC90469946A246AB46F0BD002D20D104239946033B9B46C4E7002C17D1022102E0002C0AD10F
:402F00000121321A01924A4643460A435A48920082587B409746200001F036F9431F76309C4040420021BAE70321B8E7280001F02BF9431F9D4000237630464299469B46CC
:402F40009DE70C239946093B9B4698E780240022E403FF20B9E70024C2468B465A465346022AAED0032A7DD0012A31D1012200201A400024A9E70122101A1B2856DD1A40BA
:402F800000200024A1E78023DB031D424BD18023DB032B435C02640A3A00FF2095E76D016001854230D2019A0024013A01921B220127290064006D00002901DBA84201D86D
:402FC0002D1A3C43013A002AF3D16A1E95412C4301987F300028CEDD620704D00F222240042A00D00434220103D5244A019814408030FE2800DD64E70122A401640AC0B2F8
:403000001A4062E72C00A9E72D1A1A220124CFE76B02BCD500248023DB031C436402640A4246FF2051E71C42B3D1F4E721002022C140101A8440621E94410C43620704D02E
:403040000F222240042A00D00434620104D5012201201A40002438E70122A401640A1A40002032E78023DB031C436402640A5246FF202AE7D045000010460000FFFFFFF7C6
:40308000F0B557464E4645464300E0B446028846760A1F0EC40F002F47D0FF2F25D0002380259A469946F600ED042E437F3F434642465D02D20F5B006D0A1B0E904640D00A
:4030C000FF2B39D080220020ED00D20415437F3BFB1842465746591C62408C4607430F2F5CD86F49BF00C9598F46002E45D108239A46063B9946DAE7424602282DD00328B1
:4031000000D1C3E0012800D0A2E0002500260240D4B27602ED05760A2E43E407264330001CBC90469946A246F0BD002E1AD104239A46033B9946BAE72A00511E8A41901C9E
:40314000C6E70120002DC3D0280001F01DF8431F76309D4043420020BAE70124FF2514400026D6E7300001F00FF8431F9E400023763047429A46994699E70C239A46093B9C
:40318000994694E780260024F603FF25C1E735004846B2E7350022004846AEE72904090C0800370C3604360C2C0C7943704367437443060C64183619B14203D980214902A7
:4031C000884647440004000C310409188D01681E8541890E2943350CED19AD010D43290104D5012369081D4063460D4319007F31002925DD680704D00F202840042800D036
:403200000435280103D5274980330D401900FE29A3DC0124AD016E0A1440CDB279E78020C003064207D0054205D128434602760A4446FF256DE706437602760AFF2568E71F
:403240000124611A1B2905DD14400025002660E76346CBE72E002023CE40591A8D406B1E9D412E43730704D00F233340042B00D00436730104D5012401251440002648E743
:403280000124B601760A1440002542E780260124F6032E437602760A1440FF2539E7C04650460000FFFFFFF74302590A4300C20F1B0E00207E2B0EDD9D2B0DDC80200004CD
:4032C0000143952B0BDC9620C31AD9400B005842002A00D118007047034BD018FBE7963B99400B00F3E7C046FFFFFF7F70B5002830D0C317C5185D40C40F280000F044FFD0
:403300009E231B1A962B0DDC9622D21A95406A02520AD8B25202C005520AE40702432243100070BD992B19DC9922D21A9540124A2A40690704D00F210D40042D00D00432E8
:40334000510103D50C4B1A409F231B1A9201520AD8B2DFE7002400200022DBE705222E00121AB921D6402A00C91A8A40551EAA4135001543DBE7C046FFFFFFFB70B5041EDA
:4033800028D000F001FF9E231B1A962B0ADC9622D21A94406202520AD8B25202520AC005104370BD992B18DC9922D21A9440114A2240610704D00F210C40042C00D00432F3
:4033C000510103D50B4B1A409F231B1A9201520AD8B2E2E700200022DFE705222500121AB921D5402200C91A8A40541EA2412C001443DCE7FFFFFFFBF8B556465F464D4668
:403400004446F0B40F00FD0FAA4609037C002E005F00450F490A7F0D2943C5001803BC46400A570F640DDB0F3843D2009A4500D1AAE06646A61B002E00DCFFE06346002B01
:4034400039D10300134300D0D9E06B0709D00F232B40042B05D02B1DAB42AD416D4249191D000B0200D482E0CA4B01349C4200D1FEE00A005646C84BED081A405007640541
:4034800052020543120B640D002112030B0D1B056405120B1A436308C04CF60714401C43640064083443280021003CBC90469946A246AB46F8BDB74B9C42C6D080231B0467
:4034C0001843382E00DDEBE01F2E00DD1EE120239B1B9C4603006746BB40984613004746F3403B436746BA40571EBA4113430200F240EB1A9D42B6411D008A1A7642911BE4
:403500000B0231D54A02560A002E00D1B4E0300000F03AFE0300083B1F2B00DDB5E020222900D21AD1409E400A009D4032439C4200DDB1E01C1B631C1F2B00DDD5E020211E
:4035400014002800C91A8C40D8408D400443DA40681E854111002543002476E74146314300D134E2310045466B0700D06FE756464807ED08C9080543864B9C4235D00A03E4
:403580006405120B640D7FE76346E31A9B46002B00DC8BE06746002F3CD07E4FBC4200D153E780273F0438435B46382B00DCF7E00243501E82410020D2B253194218AB420E
:4035C00089411D00494289180B02CDD5714B01349C4200D13DE101206F4A6B080A4028401843D507054351082FE72B000B4300D1CBE180231B030B431A03120B44E7013EB5
:40360000002E6DD1AE1AB5429B41091A5B42C91A350075E70700174300D116E701235B429C46E3445B46002B00D0E0E0AA18AA429B4109185B4259181500C5E7002E75D10C
:40364000661C7605760D012E00DCF3E0AE1AB0464545BF410E1A7F42F61B370200D48FE0551BAA42B641411A76428E1B9A464BE756460022002507E7280000F085FD203052
:403680000300083B1F2B00DC49E72A002838824000259C4200DC4DE73F49E41A1140D4E60243501E8241D3B2002222E7002B00D0F3E0631C9C465B055B0D012B00DC9FE0DA
:4036C000344B9C4500D1C3E0AA180918AA42804140424118CD075208154349086446B4E62C4B9C4200D0ECE6AFE611001F3CE1400C00202B00D17FE04021CB1A9A40154358
:403700006A1E95410021254300242DE733000700203BDF403B00202E70D04027BE1BB0400243501E824113430022E2E6002C4FD0184CA44500D1ABE080242404764221432B
:40374000382E00DDDFE01F2E00DD43E12027BC1BA1460C004F46BC40A0462C004746F4403C434F46BD406F1EBD41F1402C43151BAA429241411A5242891A64469A46BFE698
:4037800041464546314300D0BEE6002600240025F2E6C046FF070000FFFF7FFFFFFF0F801F2B59DC2027FF1ABC46070063469F405B46B9461700DF40B8464F4643461F43EF
:4037C00063469A40531E9A415B463A43D840F4E60C002C435CD0F643002E55D1551BAA42A441411A6442091B9A46644688E6964FBC4200D0D8E628E6002280E700208FE7BA
:403800000B002B43002C00D0C2E0002B00D101E10300134300D118E6AB18AB42B6410918764271180A0200D409E1884A1D00114064460AE6002C5BD10E002E4300D08AE0AD
:403840000100114300D1C2E0010015009A46FCE56446002100258FE620235B429C46DC4463460700DF405B46BC46202B00D1ACE040235F46DB1B98400243501E8241634653
:4038800013431A00002098E66F4CA44500D057E70100150064469A46D7E5002C39D10C002C436ED0DB43002B1AD0674CA44568D0382B00DDA4E01F2B00DDAEE020240F002A
:4038C000E41AA740B9462F00DF40B846A3464F46444627435C46A5406C1EA541D9403D43AD1895429B4109185B42591864466BE60C002C4315D1010011437BD001001500DD
:403900009A46514CA1E50D43691E8D410021ECB22DE74D4CA44534D0802424045B422143C6E7040014434ED0ED084C072C438025C9082D03294208D0C6082E4205D1D20805
:40394000410711430C009A463100620FC900E50011433D4C79E50600164300D175E5AE1AB0464545BF410E1A7F42F61B370200D4F4E5551BAA42B641411A7642891B9A4698
:4039800063E50100150064465FE5002200257BE5002B3BD00300134315D0ED084B072B438025C9082D03294207D0C4082C4204D141070B002100D2081343C9005A0F1143CA
:4039C000DD00214C41E5204C3FE5002054E700260025D1E534000F00203CE7403C00202E2BD04027BE1BB1400D43691E8D4100212C43BCE6802100260903134C0025BBE521
:403A00000D43691E8D410021EDB269E7010015000D4C1AE50100150017E51C000F00203CE7403C00202B0CD04027FB1A99400D43691E8D410021254352E70021D4E71D008B
:403A400092E50021F3E7C046FF070000FFFF7FFFF0B55F4656464D464446F0B40D0399464E002B0B87B00700924680469B46760DCC0F002E69D06D4B9E4235D05B468022D0
:403A8000DD001204430F13432B439B46C3009846674B00279C460023664401934A4615035000D20F53462D0B400D914600D176E05E4A90426CD080225B0F120413435C4A96
:403AC000ED0094461D4353460022DB00604449463618701C6140029017430F2F00D9AFE05448BF00C759BF465B461F4300D088E000239B469846023308270193CEE74946F0
:403B0000022A6AD0032A00D109E2012A00D0BBE111400022002300259046CCB200212D030A0D12052D0B1543434A1B0515401D436D00E4076D0825434046290007B03CBC8C
:403B400090469946A246AB46F0BD034352D05B46002B00D18AE1584600F016FB03000B3B1C2B00DD7BE11D22D31A3A0001005D46DA4008398D4013008F402B439B46B846D1
:403B80002E4B00279C46002360444642019385E752462A432CD100250023022297E752462A4321D0002D00D154E1280000F0ECFA03000B3B1C2B00DD46E11D21CB1A5146D3
:403BC0000200D9405346083A954093400D431B4A944660444042002279E7012400220C40124B0025904699E70025002301226EE703226CE700239B46984601330427019378
:403C00004CE703230C27019348E700238025984600242D03054B81E75D464346019A6FE75D4643462100019A6AE7C046FF07000001FCFFFF90460000FFFF0F80F3030000CD
:403C40004246120C91461A0C9446424617044A461B041B0C5A43604690464A4642431000039262461C003F0C7A437C4342440192220C9246019A5244904506D98246802084
:403C800040028046C24450460390100C049048462404240C1204121905922A0C2D042D0C68432C00824648467C4350438146200C8046574357444744BA4503D9802040020A
:403CC0008046C144380C3F04B84648442404240C01900498A044404404905846000C814658460404200C8246070048465F434C464343604660436446834650464443380CF0
:403D00008446E4186444A34203D980235B029C46E34448463F04230C3F0C2404E419574668436F4384464D46504655434243380C814662444A445B44944503D9802040025C
:403D40008446654403983F04834604983F0C8446E344C345804140428246100484460198674484466744A344BC46A345A4419946D44464428742BF41D4458041E144A046A6
:403D800099459B417F424042C8440743120CBA18A045A4415F423B0064422343D71843467D19DB0D6D021D435B465A02059B1A43531E9A415B46DB0D1A4343465B021343E1
:403DC000EA0107D501225C0813402343EA07029E13436D08574AB218002A4BDD580709D00F201840042805D0181D98429B415B42ED180300E80104D54F4A15408022D2002F
:403E0000B2184E48824200DDE7E60124DB08680718436D02530580462D0B5B0D0C407DE6802259461203114208D0154206D115432D0398462D0B4C46414B6FE65D4615434B
:403E40002D032D0B3E4B69E603005546283B9D400023BCE6504600F097F92030A8E60300283B9F400023BB46984689E600F08CF9203073E60124A61A382E07DD00220C40FA
:403E800000230025904649E6029EA3E71F2E20DC20222C001800921BF040944093400443581E83411C43F540630709D00F232340042B05D023001C1D9C4292415242AD18E1
:403EC0002B021FD5012400220C4001230025904624E61F202C004042821AD440202E1CD04022961BB5402B43581E83410720234318400025002809D00F2200251A401C0087
:403F0000042AD8D1230068076D022D0B0124DB08034398460C40002300E60025E3E780220124120315432D0398462D0B0C40044BF4E5C046FF030000FFFFFFFEFE0700000B
:403F4000FF07000070B5002830D0C317C4185C40C50F200000F018F9174B184A1B1AD21A1F2A18DD164AD21A9440002224035B05240B5B0D0021100024030A0D1205240B6F
:403F80001443104A1B0514401C436400ED0764082C43210070BD210091400A000B21081AC4405B052403240B5B0DE3E70025002300240022DEE7C0461E0400003304000014
:403FC00013040000FFFF0F804200120E511C4302C9B270B55D0AC40F012915DDE02189008C466D071B0B6244002128000D0D2D052B431C4D52052B40520813435B00E40753
:404000005B082343190070BD002A15D1002D1FD0280000F0B9F80A281DDC0B232A001B1ADA4013000200153295400F4A1B03121A52051B0B520DD7E7002D06D080221B0B71
:40404000120313436D07094ACEE7084A0023CBE700220023C8E703000B3B9D402B000025E3E7C046FFFF0F8089030000FF0700004B0070B55E0D0C03751C640A420F6D052D
:404080002243C90FC4006D0D012D2ADD3B4BF318FE2B1ADC002B42DD8001451EA841D2001043620F0243500704D00F201040042800D004328020C004104021D00133FF2BCF
:4040C00003D09201520ADBB201E0FF2300225202520ADB0513435B00C9075B080B43180070BD002E07D01443EFD08020D20080040243FF23D7E722430023002A03D0052263
:40410000D208FF2B03D05202520ADBB2DFE7002A32D08020C00302435202520AD7E71800173014DB8020000402431E20C01A1F280FDC2500124BF3189D406E1EB5419A401C
:404140002B0013432200C2401A430023ABE70023D5E702256D42EB1A1500DD40202809D0084BF3189A401443621E9441220000232A4398E70022F6E70022A8E780FCFFFF3C
:4041800082FCFFFFA2FCFFFF1C2101231B04984201D3000C10391B0A984201D3000A08391B09984201D30009043902A2105C40187047C046040302020101010100000000FA
:4041C00000000000014B18687047C046580100200E4B70B500251E000D4CE41AA410A54204D0AB00F35898470135F8E700F072FA084B00251E00084CE41AA410A54204D099
:40420000AB00F35898470135F8E770BDE0460000E0460000E0460000E8460000002310B59A4203D0CC5CC4540133F9E710BD03008218934202D019700133FAE77047000076
:4042400000000000FF000000000000007E43090D0A7E41090D0A7E54120D0A7E55120D0A7E57120D0A7E56120D0A00007E42080D0A7E43090D0A7E4D0B0D0A7E53030D0AF5
:404280007E4C010D0A7E41010D0A0000C8006400C8006400190005002C01640000300F40000400400F400004800D830D0301060607020E080F01120116082202260431011B
:4042C00032063401350236083E403F01405449FF4AFF4BFF4F01501854015604580459045A045B045C025D335F016040624064406540668068806A806C806E80800282045F
:40430000860188048A028B02910893109510960897089B019E10A704B006B118B208B302B410B504B601B701C041C5ECC720C823C9FFCAFFCBFFCD83CE03CF01D018D2805A
:40434000D804D904DA04DB04DD33DF01E040E240E440E540E680E880EA80EC80EE80000403010402051409020A200D800E1010A0180419401A201D141E862201230824820B
:40438000251426102F10351436093A463D204302464248014D8A4E0156025702598A5E6563406B017401764087408940C075C2ACC40CCA40CCE0CE2BD091D208D6FBD80186
:4043C000E280022004400504070809080A1F0B040C4010401418150216031701180719011A081B021C101E04200622112401261228403040321F330C3420350338023E019B
:40440000402041054612480E49FF4AFF4BFF4DA04F0450185287580459045A045B045C015D115F01604062C06440654066C068C06AC06CC06EC087028C039702A004A20156
:40444000A404A602A701B004B302B501B603B802BF04C020C106C5D0C610C702C81EC9FFCAFFCBFFCDA0CF04D018D280D405D804D904DA04DB04DC02DD22DF01E040E2C08B
:40448000E440E540E6C0E8C0EAC0ECC0EEC000400488051007400E880F2210A01725184019401D301E201F012224240827202904300835043620370838043D2840044520F4
:4044C000480849014F8250A8575059415A086E086F057102774082048610871089808E108F019084961097209B089E04A114A240A4A0A582AE01AF08B648C0F1C2F0C47CF9
:40450000CA02CC62CE62D024D214D60BE020E240E410528057016F047010731077087A407D4086408A80D420D620DA80DCE0DE60E6400008030807200D4023182420270485
:404540008140870988048D408F209420954097109F0CA701C070C280C8F0E080E440E610010F100F02000F4059300F4032310F4066320F4042330F4010400F4017410F40C0
:4045800002600F4000040000000400000004000000040000003400000607040370000000030405060708090A0B0C0E0F101112131415161718191B1C1D1E1F202122232511
:4045C000262728292A2B2E2F30313233343500009E2F0000C22E0000802F0000582F0000802F00004C2F0000802F0000582F0000C22E0000C22E00004C2F0000582F000007
:40460000043000000430000004300000862F0000C22E0000C22E00006C2F0000562F00006C2F00004C2F00006C2F0000562F0000C22E0000C22E00004C2F0000562F000013
:40464000043000000430000004300000103000009C310000FA300000FA300000F83000008E3100008E31000084310000F83000008E310000843100008E310000F83000005F
:404680009431000094310000943100001E320000403C0000003B0000003B0000FE3A0000183C0000183C00000A3C0000FE3A0000183C00000A3C0000183C0000FE3A0000E5
:4046C000203C0000203C0000203C0000203E000043000000F8B5C046F8BC08BC9E467047BD020000E5130000F8B5C046F8BC08BC9E4670479502000008470000C0000020FC
:40470000A000000078010000000000000101000000000000FF0000000000010001FF000000000000FF000000010000000000C05D80BB000030000000006CDC020404040080
:404740000000000000000000000000000000000000000000000000000000000000000000D04600000000000000000000000000000000000000000000000000000000000023
:404780000000000000000000000000000000000000000000000000000000000000000000F800002000000000000000000000000000000000000000000000000000000000E1
:4047C00000000000000000000000000000000000000000000000000000000000000000000000000000000000000000000000000000000000000000000000000000000000B9
:404800000000000000000000000000000000000000000000000000000000000000000000000000000000000000000000000000000000000000000000000000000000000078
:404840000000000000000000000000000000000000000000000000000000000000000000000000000000000000000000000000000000000000000000000000000000000038
:4048800000000000000000000000000000000000000000000000000000000000000000000000000000000000000000000000000000000000000000000000000000000000F8
:0200000490303A
:020000000216E6
:0200000490402A
:200000000000000000000000000000000000000000000000000000000000000000000000E0
:0200000490501A
:0C0000000002046311931101047B13A99A
:0200000490600A
:0100000001FE
:00000001FF